{
	"src/UserListByCR.sol": {
		"SortedTroves": {
			"abi": [
				{
					"anonymous": false,
					"inputs": [
						{
							"indexed": false,
							"internalType": "address",
							"name": "_borrowerOperationsAddress",
							"type": "address"
						}
					],
					"name": "BorrowerOperationsAddressChanged",
					"type": "event"
				},
				{
					"anonymous": false,
					"inputs": [
						{
							"indexed": false,
							"internalType": "address",
							"name": "_id",
							"type": "address"
						},
						{
							"indexed": false,
							"internalType": "uint256",
							"name": "_NICR",
							"type": "uint256"
						}
					],
					"name": "NodeAdded",
					"type": "event"
				},
				{
					"anonymous": false,
					"inputs": [
						{
							"indexed": false,
							"internalType": "address",
							"name": "_id",
							"type": "address"
						}
					],
					"name": "NodeRemoved",
					"type": "event"
				},
				{
					"anonymous": false,
					"inputs": [
						{
							"indexed": true,
							"internalType": "address",
							"name": "previousOwner",
							"type": "address"
						},
						{
							"indexed": true,
							"internalType": "address",
							"name": "newOwner",
							"type": "address"
						}
					],
					"name": "OwnershipTransferred",
					"type": "event"
				},
				{
					"anonymous": false,
					"inputs": [
						{
							"indexed": false,
							"internalType": "address",
							"name": "_troveManagerAddress",
							"type": "address"
						}
					],
					"name": "TroveManagerAddressChanged",
					"type": "event"
				},
				{
					"inputs": [],
					"name": "NAME",
					"outputs": [
						{
							"internalType": "string",
							"name": "",
							"type": "string"
						}
					],
					"stateMutability": "view",
					"type": "function"
				},
				{
					"inputs": [],
					"name": "borrowerOperationsAddress",
					"outputs": [
						{
							"internalType": "address",
							"name": "",
							"type": "address"
						}
					],
					"stateMutability": "view",
					"type": "function"
				},
				{
					"inputs": [
						{
							"internalType": "address",
							"name": "_id",
							"type": "address"
						}
					],
					"name": "contains",
					"outputs": [
						{
							"internalType": "bool",
							"name": "",
							"type": "bool"
						}
					],
					"stateMutability": "view",
					"type": "function"
				},
				{
					"inputs": [],
					"name": "data",
					"outputs": [
						{
							"internalType": "address",
							"name": "head",
							"type": "address"
						},
						{
							"internalType": "address",
							"name": "tail",
							"type": "address"
						},
						{
							"internalType": "uint256",
							"name": "maxSize",
							"type": "uint256"
						},
						{
							"internalType": "uint256",
							"name": "size",
							"type": "uint256"
						}
					],
					"stateMutability": "view",
					"type": "function"
				},
				{
					"inputs": [
						{
							"internalType": "uint256",
							"name": "_NICR",
							"type": "uint256"
						},
						{
							"internalType": "address",
							"name": "_prevId",
							"type": "address"
						},
						{
							"internalType": "address",
							"name": "_nextId",
							"type": "address"
						}
					],
					"name": "findInsertPosition",
					"outputs": [
						{
							"internalType": "address",
							"name": "",
							"type": "address"
						},
						{
							"internalType": "address",
							"name": "",
							"type": "address"
						}
					],
					"stateMutability": "view",
					"type": "function"
				},
				{
					"inputs": [],
					"name": "getFirst",
					"outputs": [
						{
							"internalType": "address",
							"name": "",
							"type": "address"
						}
					],
					"stateMutability": "view",
					"type": "function"
				},
				{
					"inputs": [],
					"name": "getLast",
					"outputs": [
						{
							"internalType": "address",
							"name": "",
							"type": "address"
						}
					],
					"stateMutability": "view",
					"type": "function"
				},
				{
					"inputs": [],
					"name": "getMaxSize",
					"outputs": [
						{
							"internalType": "uint256",
							"name": "",
							"type": "uint256"
						}
					],
					"stateMutability": "view",
					"type": "function"
				},
				{
					"inputs": [
						{
							"internalType": "address",
							"name": "_id",
							"type": "address"
						}
					],
					"name": "getNext",
					"outputs": [
						{
							"internalType": "address",
							"name": "",
							"type": "address"
						}
					],
					"stateMutability": "view",
					"type": "function"
				},
				{
					"inputs": [
						{
							"internalType": "address",
							"name": "_id",
							"type": "address"
						}
					],
					"name": "getPrev",
					"outputs": [
						{
							"internalType": "address",
							"name": "",
							"type": "address"
						}
					],
					"stateMutability": "view",
					"type": "function"
				},
				{
					"inputs": [],
					"name": "getSize",
					"outputs": [
						{
							"internalType": "uint256",
							"name": "",
							"type": "uint256"
						}
					],
					"stateMutability": "view",
					"type": "function"
				},
				{
					"inputs": [
						{
							"internalType": "address",
							"name": "_id",
							"type": "address"
						},
						{
							"internalType": "uint256",
							"name": "_NICR",
							"type": "uint256"
						},
						{
							"internalType": "address",
							"name": "_prevId",
							"type": "address"
						},
						{
							"internalType": "address",
							"name": "_nextId",
							"type": "address"
						}
					],
					"name": "insert",
					"outputs": [],
					"stateMutability": "nonpayable",
					"type": "function"
				},
				{
					"inputs": [],
					"name": "isEmpty",
					"outputs": [
						{
							"internalType": "bool",
							"name": "",
							"type": "bool"
						}
					],
					"stateMutability": "view",
					"type": "function"
				},
				{
					"inputs": [],
					"name": "isFull",
					"outputs": [
						{
							"internalType": "bool",
							"name": "",
							"type": "bool"
						}
					],
					"stateMutability": "view",
					"type": "function"
				},
				{
					"inputs": [],
					"name": "isOwner",
					"outputs": [
						{
							"internalType": "bool",
							"name": "",
							"type": "bool"
						}
					],
					"stateMutability": "view",
					"type": "function"
				},
				{
					"inputs": [],
					"name": "owner",
					"outputs": [
						{
							"internalType": "address",
							"name": "",
							"type": "address"
						}
					],
					"stateMutability": "view",
					"type": "function"
				},
				{
					"inputs": [
						{
							"internalType": "address",
							"name": "_id",
							"type": "address"
						},
						{
							"internalType": "uint256",
							"name": "_newNICR",
							"type": "uint256"
						},
						{
							"internalType": "address",
							"name": "_prevId",
							"type": "address"
						},
						{
							"internalType": "address",
							"name": "_nextId",
							"type": "address"
						}
					],
					"name": "reInsert",
					"outputs": [],
					"stateMutability": "nonpayable",
					"type": "function"
				},
				{
					"inputs": [
						{
							"internalType": "address",
							"name": "_id",
							"type": "address"
						}
					],
					"name": "remove",
					"outputs": [],
					"stateMutability": "nonpayable",
					"type": "function"
				},
				{
					"inputs": [
						{
							"internalType": "uint256",
							"name": "_size",
							"type": "uint256"
						},
						{
							"internalType": "address",
							"name": "_troveManagerAddress",
							"type": "address"
						},
						{
							"internalType": "address",
							"name": "_borrowerOperationsAddress",
							"type": "address"
						}
					],
					"name": "setParams",
					"outputs": [],
					"stateMutability": "nonpayable",
					"type": "function"
				},
				{
					"inputs": [],
					"name": "troveManager",
					"outputs": [
						{
							"internalType": "contract ITroveManager",
							"name": "",
							"type": "address"
						}
					],
					"stateMutability": "view",
					"type": "function"
				},
				{
					"inputs": [
						{
							"internalType": "uint256",
							"name": "_NICR",
							"type": "uint256"
						},
						{
							"internalType": "address",
							"name": "_prevId",
							"type": "address"
						},
						{
							"internalType": "address",
							"name": "_nextId",
							"type": "address"
						}
					],
					"name": "validInsertPosition",
					"outputs": [
						{
							"internalType": "bool",
							"name": "",
							"type": "bool"
						}
					],
					"stateMutability": "view",
					"type": "function"
				}
			],
			"devdoc": {
				"kind": "dev",
				"methods": {
					"isOwner()": {
						"details": "Returns true if the caller is the current owner."
					},
					"owner()": {
						"details": "Returns the address of the current owner."
					}
				},
				"version": 1
			},
			"evm": {
				"assembly": "    /* \"src/UserListByCR.sol\":1969:16811  contract SortedTroves is Ownable, CheckContract, ISortedTroves {... */\n  mstore(0x40, 0x80)\n  callvalue\n  dup1\n  iszero\n  tag_1\n  jumpi\n  0x00\n  dup1\n  revert\ntag_1:\n  pop\n    /* \"src/Dependencies/Ownable.sol\":839:849  msg.sender */\n  caller\n    /* \"src/Dependencies/Ownable.sol\":830:836  _owner */\n  0x00\n  dup1\n    /* \"src/Dependencies/Ownable.sol\":830:849  _owner = msg.sender */\n  0x0100\n  exp\n  dup2\n  sload\n  dup2\n  0xffffffffffffffffffffffffffffffffffffffff\n  mul\n  not\n  and\n  swap1\n  dup4\n  0xffffffffffffffffffffffffffffffffffffffff\n  and\n  mul\n  or\n  swap1\n  sstore\n  pop\n    /* \"src/Dependencies/Ownable.sol\":897:907  msg.sender */\n  caller\n    /* \"src/Dependencies/Ownable.sol\":864:908  OwnershipTransferred(address(0), msg.sender) */\n  0xffffffffffffffffffffffffffffffffffffffff\n  and\n    /* \"src/Dependencies/Ownable.sol\":893:894  0 */\n  0x00\n    /* \"src/Dependencies/Ownable.sol\":864:908  OwnershipTransferred(address(0), msg.sender) */\n  0xffffffffffffffffffffffffffffffffffffffff\n  and\n  0x8be0079c531659141344cd1fd0a4f28419497f9722a3daafe3b4186f6b6457e0\n  mload(0x40)\n  mload(0x40)\n  dup1\n  swap2\n  sub\n  swap1\n  log3\n    /* \"src/UserListByCR.sol\":1969:16811  contract SortedTroves is Ownable, CheckContract, ISortedTroves {... */\n  dataSize(sub_0)\n  dup1\n  dataOffset(sub_0)\n  0x00\n  codecopy\n  0x00\n  return\nstop\n\nsub_0: assembly {\n        /* \"src/UserListByCR.sol\":1969:16811  contract SortedTroves is Ownable, CheckContract, ISortedTroves {... */\n      mstore(0x40, 0x80)\n      callvalue\n      dup1\n      iszero\n      tag_1\n      jumpi\n      0x00\n      dup1\n      revert\n    tag_1:\n      pop\n      jumpi(tag_2, lt(calldatasize, 0x04))\n      shr(0xe0, calldataload(0x00))\n      dup1\n      0x681fe70c\n      gt\n      tag_24\n      jumpi\n      dup1\n      0xa3f4df7e\n      gt\n      tag_25\n      jumpi\n      dup1\n      0xa3f4df7e\n      eq\n      tag_18\n      jumpi\n      dup1\n      0xb72703ac\n      eq\n      tag_19\n      jumpi\n      dup1\n      0xb7f8cf9b\n      eq\n      tag_20\n      jumpi\n      dup1\n      0xbabd3d9a\n      eq\n      tag_21\n      jumpi\n      dup1\n      0xde8fa431\n      eq\n      tag_22\n      jumpi\n      dup1\n      0xf376d798\n      eq\n      tag_23\n      jumpi\n      jump(tag_2)\n    tag_25:\n      dup1\n      0x681fe70c\n      eq\n      tag_13\n      jumpi\n      dup1\n      0x73d4a13a\n      eq\n      tag_14\n      jumpi\n      dup1\n      0x765e0159\n      eq\n      tag_15\n      jumpi\n      dup1\n      0x8da5cb5b\n      eq\n      tag_16\n      jumpi\n      dup1\n      0x8f32d59b\n      eq\n      tag_17\n      jumpi\n      jump(tag_2)\n    tag_24:\n      dup1\n      0x416980dc\n      gt\n      tag_26\n      jumpi\n      dup1\n      0x416980dc\n      eq\n      tag_8\n      jumpi\n      dup1\n      0x46f7cf87\n      eq\n      tag_9\n      jumpi\n      dup1\n      0x4d622831\n      eq\n      tag_10\n      jumpi\n      dup1\n      0x5dbe47e8\n      eq\n      tag_11\n      jumpi\n      dup1\n      0x63e1d57c\n      eq\n      tag_12\n      jumpi\n      jump(tag_2)\n    tag_26:\n      dup1\n      0x1e223143\n      eq\n      tag_3\n      jumpi\n      dup1\n      0x29092d0e\n      eq\n      tag_4\n      jumpi\n      dup1\n      0x2be21260\n      eq\n      tag_5\n      jumpi\n      dup1\n      0x3d83908a\n      eq\n      tag_6\n      jumpi\n      dup1\n      0x3fce12d5\n      eq\n      tag_7\n      jumpi\n    tag_2:\n      0x00\n      dup1\n      revert\n        /* \"src/UserListByCR.sol\":9849:9943  function getFirst() external view override returns (address) {... */\n    tag_3:\n      tag_27\n      tag_28\n      jump\t// in\n    tag_27:\n      mload(0x40)\n      tag_29\n      swap2\n      swap1\n      tag_30\n      jump\t// in\n    tag_29:\n      mload(0x40)\n      dup1\n      swap2\n      sub\n      swap1\n      return\n        /* \"src/UserListByCR.sol\":6322:6438  function remove(address _id) external override {... */\n    tag_4:\n      tag_31\n      0x04\n      dup1\n      calldatasize\n      sub\n      dup2\n      add\n      swap1\n      tag_32\n      swap2\n      swap1\n      tag_33\n      jump\t// in\n    tag_32:\n      tag_34\n      jump\t// in\n    tag_31:\n      stop\n        /* \"src/UserListByCR.sol\":8350:8922  function reInsert(address _id, uint256 _newNICR, address _prevId, address _nextId) external override {... */\n    tag_5:\n      tag_35\n      0x04\n      dup1\n      calldatasize\n      sub\n      dup2\n      add\n      swap1\n      tag_36\n      swap2\n      swap1\n      tag_37\n      jump\t// in\n    tag_36:\n      tag_38\n      jump\t// in\n    tag_35:\n      stop\n        /* \"src/UserListByCR.sol\":2367:2400  ITroveManager public troveManager */\n    tag_6:\n      tag_39\n      tag_40\n      jump\t// in\n    tag_39:\n      mload(0x40)\n      tag_41\n      swap2\n      swap1\n      tag_42\n      jump\t// in\n    tag_41:\n      mload(0x40)\n      dup1\n      swap2\n      sub\n      swap1\n      return\n        /* \"src/UserListByCR.sol\":10918:11117  function validInsertPosition(uint256 _NICR, address _prevId, address _nextId) external view override returns (bool) {... */\n    tag_7:\n      tag_43\n      0x04\n      dup1\n      calldatasize\n      sub\n      dup2\n      add\n      swap1\n      tag_44\n      swap2\n      swap1\n      tag_45\n      jump\t// in\n    tag_44:\n      tag_46\n      jump\t// in\n    tag_43:\n      mload(0x40)\n      tag_47\n      swap2\n      swap1\n      tag_48\n      jump\t// in\n    tag_47:\n      mload(0x40)\n      dup1\n      swap2\n      sub\n      swap1\n      return\n        /* \"src/UserListByCR.sol\":14671:14880  function findInsertPosition(uint256 _NICR, address _prevId, address _nextId) external view override returns (address, address) {... */\n    tag_8:\n      tag_49\n      0x04\n      dup1\n      calldatasize\n      sub\n      dup2\n      add\n      swap1\n      tag_50\n      swap2\n      swap1\n      tag_45\n      jump\t// in\n    tag_50:\n      tag_51\n      jump\t// in\n    tag_49:\n      mload(0x40)\n      tag_52\n      swap3\n      swap2\n      swap1\n      tag_53\n      jump\t// in\n    tag_52:\n      mload(0x40)\n      dup1\n      swap2\n      sub\n      swap1\n      return\n        /* \"src/UserListByCR.sol\":4132:4417  function insert (address _id, uint256 _NICR, address _prevId, address _nextId) external override {... */\n    tag_9:\n      tag_54\n      0x04\n      dup1\n      calldatasize\n      sub\n      dup2\n      add\n      swap1\n      tag_55\n      swap2\n      swap1\n      tag_37\n      jump\t// in\n    tag_55:\n      tag_56\n      jump\t// in\n    tag_54:\n      stop\n        /* \"src/UserListByCR.sol\":10040:10133  function getLast() external view override returns (address) {... */\n    tag_10:\n      tag_57\n      tag_58\n      jump\t// in\n    tag_57:\n      mload(0x40)\n      tag_59\n      swap2\n      swap1\n      tag_30\n      jump\t// in\n    tag_59:\n      mload(0x40)\n      dup1\n      swap2\n      sub\n      swap1\n      return\n        /* \"src/UserListByCR.sol\":8990:9103  function contains(address _id) public view override returns (bool) {... */\n    tag_11:\n      tag_60\n      0x04\n      dup1\n      calldatasize\n      sub\n      dup2\n      add\n      swap1\n      tag_61\n      swap2\n      swap1\n      tag_33\n      jump\t// in\n    tag_61:\n      tag_62\n      jump\t// in\n    tag_60:\n      mload(0x40)\n      tag_63\n      swap2\n      swap1\n      tag_48\n      jump\t// in\n    tag_63:\n      mload(0x40)\n      dup1\n      swap2\n      sub\n      swap1\n      return\n        /* \"src/UserListByCR.sol\":9653:9752  function getMaxSize() external view override returns (uint256) {... */\n    tag_12:\n      tag_64\n      tag_65\n      jump\t// in\n    tag_64:\n      mload(0x40)\n      tag_66\n      swap2\n      swap1\n      tag_67\n      jump\t// in\n    tag_66:\n      mload(0x40)\n      dup1\n      swap2\n      sub\n      swap1\n      return\n        /* \"src/UserListByCR.sol\":9327:9420  function isEmpty() public view override returns (bool) {... */\n    tag_13:\n      tag_68\n      tag_69\n      jump\t// in\n    tag_68:\n      mload(0x40)\n      tag_70\n      swap2\n      swap1\n      tag_48\n      jump\t// in\n    tag_70:\n      mload(0x40)\n      dup1\n      swap2\n      sub\n      swap1\n      return\n        /* \"src/UserListByCR.sol\":3206:3222  Data public data */\n    tag_14:\n      tag_71\n      tag_72\n      jump\t// in\n    tag_71:\n      mload(0x40)\n      tag_73\n      swap5\n      swap4\n      swap3\n      swap2\n      swap1\n      tag_74\n      jump\t// in\n    tag_73:\n      mload(0x40)\n      dup1\n      swap2\n      sub\n      swap1\n      return\n        /* \"src/UserListByCR.sol\":10267:10384  function getNext(address _id) external view override returns (address) {... */\n    tag_15:\n      tag_75\n      0x04\n      dup1\n      calldatasize\n      sub\n      dup2\n      add\n      swap1\n      tag_76\n      swap2\n      swap1\n      tag_33\n      jump\t// in\n    tag_76:\n      tag_77\n      jump\t// in\n    tag_75:\n      mload(0x40)\n      tag_78\n      swap2\n      swap1\n      tag_30\n      jump\t// in\n    tag_78:\n      mload(0x40)\n      dup1\n      swap2\n      sub\n      swap1\n      return\n        /* \"src/Dependencies/Ownable.sol\":991:1068  function owner() public view returns (address) {... */\n    tag_16:\n      tag_79\n      tag_80\n      jump\t// in\n    tag_79:\n      mload(0x40)\n      tag_81\n      swap2\n      swap1\n      tag_30\n      jump\t// in\n    tag_81:\n      mload(0x40)\n      dup1\n      swap2\n      sub\n      swap1\n      return\n        /* \"src/Dependencies/Ownable.sol\":1342:1432  function isOwner() public view returns (bool) {... */\n    tag_17:\n      tag_82\n      tag_83\n      jump\t// in\n    tag_82:\n      mload(0x40)\n      tag_84\n      swap2\n      swap1\n      tag_48\n      jump\t// in\n    tag_84:\n      mload(0x40)\n      dup1\n      swap2\n      sub\n      swap1\n      return\n        /* \"src/UserListByCR.sol\":2038:2082  string constant public NAME = \"SortedTroves\" */\n    tag_18:\n      tag_85\n      tag_86\n      jump\t// in\n    tag_85:\n      mload(0x40)\n      tag_87\n      swap2\n      swap1\n      tag_88\n      jump\t// in\n    tag_87:\n      mload(0x40)\n      dup1\n      swap2\n      sub\n      swap1\n      return\n        /* \"src/UserListByCR.sol\":10521:10638  function getPrev(address _id) external view override returns (address) {... */\n    tag_19:\n      tag_89\n      0x04\n      dup1\n      calldatasize\n      sub\n      dup2\n      add\n      swap1\n      tag_90\n      swap2\n      swap1\n      tag_33\n      jump\t// in\n    tag_90:\n      tag_91\n      jump\t// in\n    tag_89:\n      mload(0x40)\n      tag_92\n      swap2\n      swap1\n      tag_30\n      jump\t// in\n    tag_92:\n      mload(0x40)\n      dup1\n      swap2\n      sub\n      swap1\n      return\n        /* \"src/UserListByCR.sol\":2320:2360  address public borrowerOperationsAddress */\n    tag_20:\n      tag_93\n      tag_94\n      jump\t// in\n    tag_93:\n      mload(0x40)\n      tag_95\n      swap2\n      swap1\n      tag_30\n      jump\t// in\n    tag_95:\n      mload(0x40)\n      dup1\n      swap2\n      sub\n      swap1\n      return\n        /* \"src/UserListByCR.sol\":9163:9266  function isFull() public view override returns (bool) {... */\n    tag_21:\n      tag_96\n      tag_97\n      jump\t// in\n    tag_96:\n      mload(0x40)\n      tag_98\n      swap2\n      swap1\n      tag_48\n      jump\t// in\n    tag_98:\n      mload(0x40)\n      dup1\n      swap2\n      sub\n      swap1\n      return\n        /* \"src/UserListByCR.sol\":9490:9583  function getSize() external view override returns (uint256) {... */\n    tag_22:\n      tag_99\n      tag_100\n      jump\t// in\n    tag_99:\n      mload(0x40)\n      tag_101\n      swap2\n      swap1\n      tag_67\n      jump\t// in\n    tag_101:\n      mload(0x40)\n      dup1\n      swap2\n      sub\n      swap1\n      return\n        /* \"src/UserListByCR.sol\":3264:3887  function setParams(uint256 _size, address _troveManagerAddress, address _borrowerOperationsAddress) external override onlyOwner {... */\n    tag_23:\n      tag_102\n      0x04\n      dup1\n      calldatasize\n      sub\n      dup2\n      add\n      swap1\n      tag_103\n      swap2\n      swap1\n      tag_45\n      jump\t// in\n    tag_103:\n      tag_104\n      jump\t// in\n    tag_102:\n      stop\n        /* \"src/UserListByCR.sol\":9849:9943  function getFirst() external view override returns (address) {... */\n    tag_28:\n        /* \"src/UserListByCR.sol\":9901:9908  address */\n      0x00\n        /* \"src/UserListByCR.sol\":9927:9931  data */\n      0x03\n        /* \"src/UserListByCR.sol\":9927:9936  data.head */\n      0x00\n      add\n      0x00\n      swap1\n      sload\n      swap1\n      0x0100\n      exp\n      swap1\n      div\n      0xffffffffffffffffffffffffffffffffffffffff\n      and\n        /* \"src/UserListByCR.sol\":9920:9936  return data.head */\n      swap1\n      pop\n        /* \"src/UserListByCR.sol\":9849:9943  function getFirst() external view override returns (address) {... */\n      swap1\n      jump\t// out\n        /* \"src/UserListByCR.sol\":6322:6438  function remove(address _id) external override {... */\n    tag_34:\n        /* \"src/UserListByCR.sol\":6379:6409  _requireCallerIsTroveManager() */\n      tag_107\n        /* \"src/UserListByCR.sol\":6379:6407  _requireCallerIsTroveManager */\n      tag_108\n        /* \"src/UserListByCR.sol\":6379:6409  _requireCallerIsTroveManager() */\n      jump\t// in\n    tag_107:\n        /* \"src/UserListByCR.sol\":6419:6431  _remove(_id) */\n      tag_109\n        /* \"src/UserListByCR.sol\":6427:6430  _id */\n      dup2\n        /* \"src/UserListByCR.sol\":6419:6426  _remove */\n      tag_110\n        /* \"src/UserListByCR.sol\":6419:6431  _remove(_id) */\n      jump\t// in\n    tag_109:\n        /* \"src/UserListByCR.sol\":6322:6438  function remove(address _id) external override {... */\n      pop\n      jump\t// out\n        /* \"src/UserListByCR.sol\":8350:8922  function reInsert(address _id, uint256 _newNICR, address _prevId, address _nextId) external override {... */\n    tag_38:\n        /* \"src/UserListByCR.sol\":8461:8493  ITroveManager troveManagerCached */\n      0x00\n        /* \"src/UserListByCR.sol\":8496:8508  troveManager */\n      0x02\n      0x00\n      swap1\n      sload\n      swap1\n      0x0100\n      exp\n      swap1\n      div\n      0xffffffffffffffffffffffffffffffffffffffff\n      and\n        /* \"src/UserListByCR.sol\":8461:8508  ITroveManager troveManagerCached = troveManager */\n      swap1\n      pop\n        /* \"src/UserListByCR.sol\":8519:8565  _requireCallerIsBOorTroveM(troveManagerCached) */\n      tag_112\n        /* \"src/UserListByCR.sol\":8546:8564  troveManagerCached */\n      dup2\n        /* \"src/UserListByCR.sol\":8519:8545  _requireCallerIsBOorTroveM */\n      tag_113\n        /* \"src/UserListByCR.sol\":8519:8565  _requireCallerIsBOorTroveM(troveManagerCached) */\n      jump\t// in\n    tag_112:\n        /* \"src/UserListByCR.sol\":8621:8634  contains(_id) */\n      tag_114\n        /* \"src/UserListByCR.sol\":8630:8633  _id */\n      dup6\n        /* \"src/UserListByCR.sol\":8621:8629  contains */\n      tag_62\n        /* \"src/UserListByCR.sol\":8621:8634  contains(_id) */\n      jump\t// in\n    tag_114:\n        /* \"src/UserListByCR.sol\":8613:8681  require(contains(_id), \"SortedTroves: List does not contain the id\") */\n      tag_115\n      jumpi\n      mload(0x40)\n      0x08c379a000000000000000000000000000000000000000000000000000000000\n      dup2\n      mstore\n      0x04\n      add\n      tag_116\n      swap1\n      tag_117\n      jump\t// in\n    tag_116:\n      mload(0x40)\n      dup1\n      swap2\n      sub\n      swap1\n      revert\n    tag_115:\n        /* \"src/UserListByCR.sol\":8743:8744  0 */\n      0x00\n        /* \"src/UserListByCR.sol\":8732:8740  _newNICR */\n      dup5\n        /* \"src/UserListByCR.sol\":8732:8744  _newNICR > 0 */\n      gt\n        /* \"src/UserListByCR.sol\":8724:8784  require(_newNICR > 0, \"SortedTroves: NICR must be positive\") */\n      tag_118\n      jumpi\n      mload(0x40)\n      0x08c379a000000000000000000000000000000000000000000000000000000000\n      dup2\n      mstore\n      0x04\n      add\n      tag_119\n      swap1\n      tag_120\n      jump\t// in\n    tag_119:\n      mload(0x40)\n      dup1\n      swap2\n      sub\n      swap1\n      revert\n    tag_118:\n        /* \"src/UserListByCR.sol\":8832:8844  _remove(_id) */\n      tag_121\n        /* \"src/UserListByCR.sol\":8840:8843  _id */\n      dup6\n        /* \"src/UserListByCR.sol\":8832:8839  _remove */\n      tag_110\n        /* \"src/UserListByCR.sol\":8832:8844  _remove(_id) */\n      jump\t// in\n    tag_121:\n        /* \"src/UserListByCR.sol\":8855:8915  _insert(troveManagerCached, _id, _newNICR, _prevId, _nextId) */\n      tag_122\n        /* \"src/UserListByCR.sol\":8863:8881  troveManagerCached */\n      dup2\n        /* \"src/UserListByCR.sol\":8883:8886  _id */\n      dup7\n        /* \"src/UserListByCR.sol\":8888:8896  _newNICR */\n      dup7\n        /* \"src/UserListByCR.sol\":8898:8905  _prevId */\n      dup7\n        /* \"src/UserListByCR.sol\":8907:8914  _nextId */\n      dup7\n        /* \"src/UserListByCR.sol\":8855:8862  _insert */\n      tag_123\n        /* \"src/UserListByCR.sol\":8855:8915  _insert(troveManagerCached, _id, _newNICR, _prevId, _nextId) */\n      jump\t// in\n    tag_122:\n        /* \"src/UserListByCR.sol\":8451:8922  {... */\n      pop\n        /* \"src/UserListByCR.sol\":8350:8922  function reInsert(address _id, uint256 _newNICR, address _prevId, address _nextId) external override {... */\n      pop\n      pop\n      pop\n      pop\n      jump\t// out\n        /* \"src/UserListByCR.sol\":2367:2400  ITroveManager public troveManager */\n    tag_40:\n      0x02\n      0x00\n      swap1\n      sload\n      swap1\n      0x0100\n      exp\n      swap1\n      div\n      0xffffffffffffffffffffffffffffffffffffffff\n      and\n      dup2\n      jump\t// out\n        /* \"src/UserListByCR.sol\":10918:11117  function validInsertPosition(uint256 _NICR, address _prevId, address _nextId) external view override returns (bool) {... */\n    tag_46:\n        /* \"src/UserListByCR.sol\":11028:11032  bool */\n      0x00\n        /* \"src/UserListByCR.sol\":11051:11110  _validInsertPosition(troveManager, _NICR, _prevId, _nextId) */\n      tag_125\n        /* \"src/UserListByCR.sol\":11072:11084  troveManager */\n      0x02\n      0x00\n      swap1\n      sload\n      swap1\n      0x0100\n      exp\n      swap1\n      div\n      0xffffffffffffffffffffffffffffffffffffffff\n      and\n        /* \"src/UserListByCR.sol\":11086:11091  _NICR */\n      dup6\n        /* \"src/UserListByCR.sol\":11093:11100  _prevId */\n      dup6\n        /* \"src/UserListByCR.sol\":11102:11109  _nextId */\n      dup6\n        /* \"src/UserListByCR.sol\":11051:11071  _validInsertPosition */\n      tag_126\n        /* \"src/UserListByCR.sol\":11051:11110  _validInsertPosition(troveManager, _NICR, _prevId, _nextId) */\n      jump\t// in\n    tag_125:\n        /* \"src/UserListByCR.sol\":11044:11110  return _validInsertPosition(troveManager, _NICR, _prevId, _nextId) */\n      swap1\n      pop\n        /* \"src/UserListByCR.sol\":10918:11117  function validInsertPosition(uint256 _NICR, address _prevId, address _nextId) external view override returns (bool) {... */\n      swap4\n      swap3\n      pop\n      pop\n      pop\n      jump\t// out\n        /* \"src/UserListByCR.sol\":14671:14880  function findInsertPosition(uint256 _NICR, address _prevId, address _nextId) external view override returns (address, address) {... */\n    tag_51:\n        /* \"src/UserListByCR.sol\":14780:14787  address */\n      0x00\n        /* \"src/UserListByCR.sol\":14789:14796  address */\n      dup1\n        /* \"src/UserListByCR.sol\":14815:14873  _findInsertPosition(troveManager, _NICR, _prevId, _nextId) */\n      tag_128\n        /* \"src/UserListByCR.sol\":14835:14847  troveManager */\n      0x02\n      0x00\n      swap1\n      sload\n      swap1\n      0x0100\n      exp\n      swap1\n      div\n      0xffffffffffffffffffffffffffffffffffffffff\n      and\n        /* \"src/UserListByCR.sol\":14849:14854  _NICR */\n      dup7\n        /* \"src/UserListByCR.sol\":14856:14863  _prevId */\n      dup7\n        /* \"src/UserListByCR.sol\":14865:14872  _nextId */\n      dup7\n        /* \"src/UserListByCR.sol\":14815:14834  _findInsertPosition */\n      tag_129\n        /* \"src/UserListByCR.sol\":14815:14873  _findInsertPosition(troveManager, _NICR, _prevId, _nextId) */\n      jump\t// in\n    tag_128:\n        /* \"src/UserListByCR.sol\":14808:14873  return _findInsertPosition(troveManager, _NICR, _prevId, _nextId) */\n      swap2\n      pop\n      swap2\n      pop\n        /* \"src/UserListByCR.sol\":14671:14880  function findInsertPosition(uint256 _NICR, address _prevId, address _nextId) external view override returns (address, address) {... */\n      swap4\n      pop\n      swap4\n      swap2\n      pop\n      pop\n      jump\t// out\n        /* \"src/UserListByCR.sol\":4132:4417  function insert (address _id, uint256 _NICR, address _prevId, address _nextId) external override {... */\n    tag_56:\n        /* \"src/UserListByCR.sol\":4239:4271  ITroveManager troveManagerCached */\n      0x00\n        /* \"src/UserListByCR.sol\":4274:4286  troveManager */\n      0x02\n      0x00\n      swap1\n      sload\n      swap1\n      0x0100\n      exp\n      swap1\n      div\n      0xffffffffffffffffffffffffffffffffffffffff\n      and\n        /* \"src/UserListByCR.sol\":4239:4286  ITroveManager troveManagerCached = troveManager */\n      swap1\n      pop\n        /* \"src/UserListByCR.sol\":4297:4343  _requireCallerIsBOorTroveM(troveManagerCached) */\n      tag_131\n        /* \"src/UserListByCR.sol\":4324:4342  troveManagerCached */\n      dup2\n        /* \"src/UserListByCR.sol\":4297:4323  _requireCallerIsBOorTroveM */\n      tag_113\n        /* \"src/UserListByCR.sol\":4297:4343  _requireCallerIsBOorTroveM(troveManagerCached) */\n      jump\t// in\n    tag_131:\n        /* \"src/UserListByCR.sol\":4353:4410  _insert(troveManagerCached, _id, _NICR, _prevId, _nextId) */\n      tag_132\n        /* \"src/UserListByCR.sol\":4361:4379  troveManagerCached */\n      dup2\n        /* \"src/UserListByCR.sol\":4381:4384  _id */\n      dup7\n        /* \"src/UserListByCR.sol\":4386:4391  _NICR */\n      dup7\n        /* \"src/UserListByCR.sol\":4393:4400  _prevId */\n      dup7\n        /* \"src/UserListByCR.sol\":4402:4409  _nextId */\n      dup7\n        /* \"src/UserListByCR.sol\":4353:4360  _insert */\n      tag_123\n        /* \"src/UserListByCR.sol\":4353:4410  _insert(troveManagerCached, _id, _NICR, _prevId, _nextId) */\n      jump\t// in\n    tag_132:\n        /* \"src/UserListByCR.sol\":4229:4417  {... */\n      pop\n        /* \"src/UserListByCR.sol\":4132:4417  function insert (address _id, uint256 _NICR, address _prevId, address _nextId) external override {... */\n      pop\n      pop\n      pop\n      pop\n      jump\t// out\n        /* \"src/UserListByCR.sol\":10040:10133  function getLast() external view override returns (address) {... */\n    tag_58:\n        /* \"src/UserListByCR.sol\":10091:10098  address */\n      0x00\n        /* \"src/UserListByCR.sol\":10117:10121  data */\n      0x03\n        /* \"src/UserListByCR.sol\":10117:10126  data.tail */\n      0x01\n      add\n      0x00\n      swap1\n      sload\n      swap1\n      0x0100\n      exp\n      swap1\n      div\n      0xffffffffffffffffffffffffffffffffffffffff\n      and\n        /* \"src/UserListByCR.sol\":10110:10126  return data.tail */\n      swap1\n      pop\n        /* \"src/UserListByCR.sol\":10040:10133  function getLast() external view override returns (address) {... */\n      swap1\n      jump\t// out\n        /* \"src/UserListByCR.sol\":8990:9103  function contains(address _id) public view override returns (bool) {... */\n    tag_62:\n        /* \"src/UserListByCR.sol\":9051:9055  bool */\n      0x00\n        /* \"src/UserListByCR.sol\":9074:9078  data */\n      0x03\n        /* \"src/UserListByCR.sol\":9074:9084  data.nodes */\n      0x04\n      add\n        /* \"src/UserListByCR.sol\":9074:9089  data.nodes[_id] */\n      0x00\n        /* \"src/UserListByCR.sol\":9085:9088  _id */\n      dup4\n        /* \"src/UserListByCR.sol\":9074:9089  data.nodes[_id] */\n      0xffffffffffffffffffffffffffffffffffffffff\n      and\n      0xffffffffffffffffffffffffffffffffffffffff\n      and\n      dup2\n      mstore\n      0x20\n      add\n      swap1\n      dup2\n      mstore\n      0x20\n      add\n      0x00\n      keccak256\n        /* \"src/UserListByCR.sol\":9074:9096  data.nodes[_id].exists */\n      0x00\n      add\n      0x00\n      swap1\n      sload\n      swap1\n      0x0100\n      exp\n      swap1\n      div\n      0xff\n      and\n        /* \"src/UserListByCR.sol\":9067:9096  return data.nodes[_id].exists */\n      swap1\n      pop\n        /* \"src/UserListByCR.sol\":8990:9103  function contains(address _id) public view override returns (bool) {... */\n      swap2\n      swap1\n      pop\n      jump\t// out\n        /* \"src/UserListByCR.sol\":9653:9752  function getMaxSize() external view override returns (uint256) {... */\n    tag_65:\n        /* \"src/UserListByCR.sol\":9707:9714  uint256 */\n      0x00\n        /* \"src/UserListByCR.sol\":9733:9737  data */\n      0x03\n        /* \"src/UserListByCR.sol\":9733:9745  data.maxSize */\n      0x02\n      add\n      sload\n        /* \"src/UserListByCR.sol\":9726:9745  return data.maxSize */\n      swap1\n      pop\n        /* \"src/UserListByCR.sol\":9653:9752  function getMaxSize() external view override returns (uint256) {... */\n      swap1\n      jump\t// out\n        /* \"src/UserListByCR.sol\":9327:9420  function isEmpty() public view override returns (bool) {... */\n    tag_69:\n        /* \"src/UserListByCR.sol\":9376:9380  bool */\n      0x00\n        /* \"src/UserListByCR.sol\":9412:9413  0 */\n      dup1\n        /* \"src/UserListByCR.sol\":9399:9403  data */\n      0x03\n        /* \"src/UserListByCR.sol\":9399:9408  data.size */\n      dup1\n      add\n      sload\n        /* \"src/UserListByCR.sol\":9399:9413  data.size == 0 */\n      eq\n        /* \"src/UserListByCR.sol\":9392:9413  return data.size == 0 */\n      swap1\n      pop\n        /* \"src/UserListByCR.sol\":9327:9420  function isEmpty() public view override returns (bool) {... */\n      swap1\n      jump\t// out\n        /* \"src/UserListByCR.sol\":3206:3222  Data public data */\n    tag_72:\n      0x03\n      dup1\n      0x00\n      add\n      0x00\n      swap1\n      sload\n      swap1\n      0x0100\n      exp\n      swap1\n      div\n      0xffffffffffffffffffffffffffffffffffffffff\n      and\n      swap1\n      dup1\n      0x01\n      add\n      0x00\n      swap1\n      sload\n      swap1\n      0x0100\n      exp\n      swap1\n      div\n      0xffffffffffffffffffffffffffffffffffffffff\n      and\n      swap1\n      dup1\n      0x02\n      add\n      sload\n      swap1\n      dup1\n      0x03\n      add\n      sload\n      swap1\n      pop\n      dup5\n      jump\t// out\n        /* \"src/UserListByCR.sol\":10267:10384  function getNext(address _id) external view override returns (address) {... */\n    tag_77:\n        /* \"src/UserListByCR.sol\":10329:10336  address */\n      0x00\n        /* \"src/UserListByCR.sol\":10355:10359  data */\n      0x03\n        /* \"src/UserListByCR.sol\":10355:10365  data.nodes */\n      0x04\n      add\n        /* \"src/UserListByCR.sol\":10355:10370  data.nodes[_id] */\n      0x00\n        /* \"src/UserListByCR.sol\":10366:10369  _id */\n      dup4\n        /* \"src/UserListByCR.sol\":10355:10370  data.nodes[_id] */\n      0xffffffffffffffffffffffffffffffffffffffff\n      and\n      0xffffffffffffffffffffffffffffffffffffffff\n      and\n      dup2\n      mstore\n      0x20\n      add\n      swap1\n      dup2\n      mstore\n      0x20\n      add\n      0x00\n      keccak256\n        /* \"src/UserListByCR.sol\":10355:10377  data.nodes[_id].nextId */\n      0x00\n      add\n      0x01\n      swap1\n      sload\n      swap1\n      0x0100\n      exp\n      swap1\n      div\n      0xffffffffffffffffffffffffffffffffffffffff\n      and\n        /* \"src/UserListByCR.sol\":10348:10377  return data.nodes[_id].nextId */\n      swap1\n      pop\n        /* \"src/UserListByCR.sol\":10267:10384  function getNext(address _id) external view override returns (address) {... */\n      swap2\n      swap1\n      pop\n      jump\t// out\n        /* \"src/Dependencies/Ownable.sol\":991:1068  function owner() public view returns (address) {... */\n    tag_80:\n        /* \"src/Dependencies/Ownable.sol\":1029:1036  address */\n      0x00\n        /* \"src/Dependencies/Ownable.sol\":1055:1061  _owner */\n      dup1\n      0x00\n      swap1\n      sload\n      swap1\n      0x0100\n      exp\n      swap1\n      div\n      0xffffffffffffffffffffffffffffffffffffffff\n      and\n        /* \"src/Dependencies/Ownable.sol\":1048:1061  return _owner */\n      swap1\n      pop\n        /* \"src/Dependencies/Ownable.sol\":991:1068  function owner() public view returns (address) {... */\n      swap1\n      jump\t// out\n        /* \"src/Dependencies/Ownable.sol\":1342:1432  function isOwner() public view returns (bool) {... */\n    tag_83:\n        /* \"src/Dependencies/Ownable.sol\":1382:1386  bool */\n      0x00\n        /* \"src/Dependencies/Ownable.sol\":1419:1425  _owner */\n      dup1\n      0x00\n      swap1\n      sload\n      swap1\n      0x0100\n      exp\n      swap1\n      div\n      0xffffffffffffffffffffffffffffffffffffffff\n      and\n        /* \"src/Dependencies/Ownable.sol\":1405:1425  msg.sender == _owner */\n      0xffffffffffffffffffffffffffffffffffffffff\n      and\n        /* \"src/Dependencies/Ownable.sol\":1405:1415  msg.sender */\n      caller\n        /* \"src/Dependencies/Ownable.sol\":1405:1425  msg.sender == _owner */\n      0xffffffffffffffffffffffffffffffffffffffff\n      and\n      eq\n        /* \"src/Dependencies/Ownable.sol\":1398:1425  return msg.sender == _owner */\n      swap1\n      pop\n        /* \"src/Dependencies/Ownable.sol\":1342:1432  function isOwner() public view returns (bool) {... */\n      swap1\n      jump\t// out\n        /* \"src/UserListByCR.sol\":2038:2082  string constant public NAME = \"SortedTroves\" */\n    tag_86:\n      mload(0x40)\n      dup1\n      0x40\n      add\n      0x40\n      mstore\n      dup1\n      0x0c\n      dup2\n      mstore\n      0x20\n      add\n      0x536f7274656454726f7665730000000000000000000000000000000000000000\n      dup2\n      mstore\n      pop\n      dup2\n      jump\t// out\n        /* \"src/UserListByCR.sol\":10521:10638  function getPrev(address _id) external view override returns (address) {... */\n    tag_91:\n        /* \"src/UserListByCR.sol\":10583:10590  address */\n      0x00\n        /* \"src/UserListByCR.sol\":10609:10613  data */\n      0x03\n        /* \"src/UserListByCR.sol\":10609:10619  data.nodes */\n      0x04\n      add\n        /* \"src/UserListByCR.sol\":10609:10624  data.nodes[_id] */\n      0x00\n        /* \"src/UserListByCR.sol\":10620:10623  _id */\n      dup4\n        /* \"src/UserListByCR.sol\":10609:10624  data.nodes[_id] */\n      0xffffffffffffffffffffffffffffffffffffffff\n      and\n      0xffffffffffffffffffffffffffffffffffffffff\n      and\n      dup2\n      mstore\n      0x20\n      add\n      swap1\n      dup2\n      mstore\n      0x20\n      add\n      0x00\n      keccak256\n        /* \"src/UserListByCR.sol\":10609:10631  data.nodes[_id].prevId */\n      0x01\n      add\n      0x00\n      swap1\n      sload\n      swap1\n      0x0100\n      exp\n      swap1\n      div\n      0xffffffffffffffffffffffffffffffffffffffff\n      and\n        /* \"src/UserListByCR.sol\":10602:10631  return data.nodes[_id].prevId */\n      swap1\n      pop\n        /* \"src/UserListByCR.sol\":10521:10638  function getPrev(address _id) external view override returns (address) {... */\n      swap2\n      swap1\n      pop\n      jump\t// out\n        /* \"src/UserListByCR.sol\":2320:2360  address public borrowerOperationsAddress */\n    tag_94:\n      0x01\n      0x00\n      swap1\n      sload\n      swap1\n      0x0100\n      exp\n      swap1\n      div\n      0xffffffffffffffffffffffffffffffffffffffff\n      and\n      dup2\n      jump\t// out\n        /* \"src/UserListByCR.sol\":9163:9266  function isFull() public view override returns (bool) {... */\n    tag_97:\n        /* \"src/UserListByCR.sol\":9211:9215  bool */\n      0x00\n        /* \"src/UserListByCR.sol\":9247:9251  data */\n      0x03\n        /* \"src/UserListByCR.sol\":9247:9259  data.maxSize */\n      0x02\n      add\n      sload\n        /* \"src/UserListByCR.sol\":9234:9238  data */\n      0x03\n        /* \"src/UserListByCR.sol\":9234:9243  data.size */\n      dup1\n      add\n      sload\n        /* \"src/UserListByCR.sol\":9234:9259  data.size == data.maxSize */\n      eq\n        /* \"src/UserListByCR.sol\":9227:9259  return data.size == data.maxSize */\n      swap1\n      pop\n        /* \"src/UserListByCR.sol\":9163:9266  function isFull() public view override returns (bool) {... */\n      swap1\n      jump\t// out\n        /* \"src/UserListByCR.sol\":9490:9583  function getSize() external view override returns (uint256) {... */\n    tag_100:\n        /* \"src/UserListByCR.sol\":9541:9548  uint256 */\n      0x00\n        /* \"src/UserListByCR.sol\":9567:9571  data */\n      0x03\n        /* \"src/UserListByCR.sol\":9567:9576  data.size */\n      dup1\n      add\n      sload\n        /* \"src/UserListByCR.sol\":9560:9576  return data.size */\n      swap1\n      pop\n        /* \"src/UserListByCR.sol\":9490:9583  function getSize() external view override returns (uint256) {... */\n      swap1\n      jump\t// out\n        /* \"src/UserListByCR.sol\":3264:3887  function setParams(uint256 _size, address _troveManagerAddress, address _borrowerOperationsAddress) external override onlyOwner {... */\n    tag_104:\n        /* \"src/Dependencies/Ownable.sol\":1195:1204  isOwner() */\n      tag_144\n        /* \"src/Dependencies/Ownable.sol\":1195:1202  isOwner */\n      tag_83\n        /* \"src/Dependencies/Ownable.sol\":1195:1204  isOwner() */\n      jump\t// in\n    tag_144:\n        /* \"src/Dependencies/Ownable.sol\":1187:1241  require(isOwner(), \"Ownable: caller is not the owner\") */\n      tag_145\n      jumpi\n      mload(0x40)\n      0x08c379a000000000000000000000000000000000000000000000000000000000\n      dup2\n      mstore\n      0x04\n      add\n      tag_146\n      swap1\n      tag_147\n      jump\t// in\n    tag_146:\n      mload(0x40)\n      dup1\n      swap2\n      sub\n      swap1\n      revert\n    tag_145:\n        /* \"src/UserListByCR.sol\":3418:3419  0 */\n      0x00\n        /* \"src/UserListByCR.sol\":3410:3415  _size */\n      dup4\n        /* \"src/UserListByCR.sol\":3410:3419  _size > 0 */\n      gt\n        /* \"src/UserListByCR.sol\":3402:3458  require(_size > 0, \"SortedTroves: Size can not be zero\") */\n      tag_149\n      jumpi\n      mload(0x40)\n      0x08c379a000000000000000000000000000000000000000000000000000000000\n      dup2\n      mstore\n      0x04\n      add\n      tag_150\n      swap1\n      tag_151\n      jump\t// in\n    tag_150:\n      mload(0x40)\n      dup1\n      swap2\n      sub\n      swap1\n      revert\n    tag_149:\n        /* \"src/UserListByCR.sol\":3468:3503  checkContract(_troveManagerAddress) */\n      tag_152\n        /* \"src/UserListByCR.sol\":3482:3502  _troveManagerAddress */\n      dup3\n        /* \"src/UserListByCR.sol\":3468:3481  checkContract */\n      tag_153\n        /* \"src/UserListByCR.sol\":3468:3503  checkContract(_troveManagerAddress) */\n      jump\t// in\n    tag_152:\n        /* \"src/UserListByCR.sol\":3513:3554  checkContract(_borrowerOperationsAddress) */\n      tag_154\n        /* \"src/UserListByCR.sol\":3527:3553  _borrowerOperationsAddress */\n      dup2\n        /* \"src/UserListByCR.sol\":3513:3526  checkContract */\n      tag_153\n        /* \"src/UserListByCR.sol\":3513:3554  checkContract(_borrowerOperationsAddress) */\n      jump\t// in\n    tag_154:\n        /* \"src/UserListByCR.sol\":3580:3585  _size */\n      dup3\n        /* \"src/UserListByCR.sol\":3565:3569  data */\n      0x03\n        /* \"src/UserListByCR.sol\":3565:3577  data.maxSize */\n      0x02\n      add\n        /* \"src/UserListByCR.sol\":3565:3585  data.maxSize = _size */\n      dup2\n      swap1\n      sstore\n      pop\n        /* \"src/UserListByCR.sol\":3625:3645  _troveManagerAddress */\n      dup2\n        /* \"src/UserListByCR.sol\":3596:3608  troveManager */\n      0x02\n      0x00\n        /* \"src/UserListByCR.sol\":3596:3646  troveManager = ITroveManager(_troveManagerAddress) */\n      0x0100\n      exp\n      dup2\n      sload\n      dup2\n      0xffffffffffffffffffffffffffffffffffffffff\n      mul\n      not\n      and\n      swap1\n      dup4\n      0xffffffffffffffffffffffffffffffffffffffff\n      and\n      mul\n      or\n      swap1\n      sstore\n      pop\n        /* \"src/UserListByCR.sol\":3684:3710  _borrowerOperationsAddress */\n      dup1\n        /* \"src/UserListByCR.sol\":3656:3681  borrowerOperationsAddress */\n      0x01\n      0x00\n        /* \"src/UserListByCR.sol\":3656:3710  borrowerOperationsAddress = _borrowerOperationsAddress */\n      0x0100\n      exp\n      dup2\n      sload\n      dup2\n      0xffffffffffffffffffffffffffffffffffffffff\n      mul\n      not\n      and\n      swap1\n      dup4\n      0xffffffffffffffffffffffffffffffffffffffff\n      and\n      mul\n      or\n      swap1\n      sstore\n      pop\n        /* \"src/UserListByCR.sol\":3726:3774  TroveManagerAddressChanged(_troveManagerAddress) */\n      0x143219c9e69b09e07e095fcc889b43d8f46ca892bba65f08dc3a0050869a5678\n        /* \"src/UserListByCR.sol\":3753:3773  _troveManagerAddress */\n      dup3\n        /* \"src/UserListByCR.sol\":3726:3774  TroveManagerAddressChanged(_troveManagerAddress) */\n      mload(0x40)\n      tag_155\n      swap2\n      swap1\n      tag_30\n      jump\t// in\n    tag_155:\n      mload(0x40)\n      dup1\n      swap2\n      sub\n      swap1\n      log1\n        /* \"src/UserListByCR.sol\":3789:3849  BorrowerOperationsAddressChanged(_borrowerOperationsAddress) */\n      0x3ca631ffcd2a9b5d9ae18543fc82f58eb4ca33af9e6ab01b7a8e95331e6ed985\n        /* \"src/UserListByCR.sol\":3822:3848  _borrowerOperationsAddress */\n      dup2\n        /* \"src/UserListByCR.sol\":3789:3849  BorrowerOperationsAddressChanged(_borrowerOperationsAddress) */\n      mload(0x40)\n      tag_156\n      swap2\n      swap1\n      tag_30\n      jump\t// in\n    tag_156:\n      mload(0x40)\n      dup1\n      swap2\n      sub\n      swap1\n      log1\n        /* \"src/UserListByCR.sol\":3860:3880  _renounceOwnership() */\n      tag_157\n        /* \"src/UserListByCR.sol\":3860:3878  _renounceOwnership */\n      tag_158\n        /* \"src/UserListByCR.sol\":3860:3880  _renounceOwnership() */\n      jump\t// in\n    tag_157:\n        /* \"src/UserListByCR.sol\":3264:3887  function setParams(uint256 _size, address _troveManagerAddress, address _borrowerOperationsAddress) external override onlyOwner {... */\n      pop\n      pop\n      pop\n      jump\t// out\n        /* \"src/UserListByCR.sol\":16391:16554  function _requireCallerIsTroveManager() internal view {... */\n    tag_108:\n        /* \"src/UserListByCR.sol\":16485:16497  troveManager */\n      0x02\n      0x00\n      swap1\n      sload\n      swap1\n      0x0100\n      exp\n      swap1\n      div\n      0xffffffffffffffffffffffffffffffffffffffff\n      and\n        /* \"src/UserListByCR.sol\":16463:16498  msg.sender == address(troveManager) */\n      0xffffffffffffffffffffffffffffffffffffffff\n      and\n        /* \"src/UserListByCR.sol\":16463:16473  msg.sender */\n      caller\n        /* \"src/UserListByCR.sol\":16463:16498  msg.sender == address(troveManager) */\n      0xffffffffffffffffffffffffffffffffffffffff\n      and\n      eq\n        /* \"src/UserListByCR.sol\":16455:16547  require(msg.sender == address(troveManager), \"SortedTroves: Caller is not the TroveManager\") */\n      tag_160\n      jumpi\n      mload(0x40)\n      0x08c379a000000000000000000000000000000000000000000000000000000000\n      dup2\n      mstore\n      0x04\n      add\n      tag_161\n      swap1\n      tag_162\n      jump\t// in\n    tag_161:\n      mload(0x40)\n      dup1\n      swap2\n      sub\n      swap1\n      revert\n    tag_160:\n        /* \"src/UserListByCR.sol\":16391:16554  function _requireCallerIsTroveManager() internal view {... */\n      jump\t// out\n        /* \"src/UserListByCR.sol\":6527:8054  function _remove(address _id) internal {... */\n    tag_110:\n        /* \"src/UserListByCR.sol\":6622:6635  contains(_id) */\n      tag_164\n        /* \"src/UserListByCR.sol\":6631:6634  _id */\n      dup2\n        /* \"src/UserListByCR.sol\":6622:6630  contains */\n      tag_62\n        /* \"src/UserListByCR.sol\":6622:6635  contains(_id) */\n      jump\t// in\n    tag_164:\n        /* \"src/UserListByCR.sol\":6614:6682  require(contains(_id), \"SortedTroves: List does not contain the id\") */\n      tag_165\n      jumpi\n      mload(0x40)\n      0x08c379a000000000000000000000000000000000000000000000000000000000\n      dup2\n      mstore\n      0x04\n      add\n      tag_166\n      swap1\n      tag_117\n      jump\t// in\n    tag_166:\n      mload(0x40)\n      dup1\n      swap2\n      sub\n      swap1\n      revert\n    tag_165:\n        /* \"src/UserListByCR.sol\":6709:6710  1 */\n      0x01\n        /* \"src/UserListByCR.sol\":6697:6701  data */\n      0x03\n        /* \"src/UserListByCR.sol\":6697:6706  data.size */\n      dup1\n      add\n      sload\n        /* \"src/UserListByCR.sol\":6697:6710  data.size > 1 */\n      gt\n        /* \"src/UserListByCR.sol\":6693:7960  if (data.size > 1) {... */\n      iszero\n      tag_167\n      jumpi\n        /* \"src/UserListByCR.sol\":6790:6794  data */\n      0x03\n        /* \"src/UserListByCR.sol\":6790:6799  data.head */\n      0x00\n      add\n      0x00\n      swap1\n      sload\n      swap1\n      0x0100\n      exp\n      swap1\n      div\n      0xffffffffffffffffffffffffffffffffffffffff\n      and\n        /* \"src/UserListByCR.sol\":6783:6799  _id == data.head */\n      0xffffffffffffffffffffffffffffffffffffffff\n      and\n        /* \"src/UserListByCR.sol\":6783:6786  _id */\n      dup2\n        /* \"src/UserListByCR.sol\":6783:6799  _id == data.head */\n      0xffffffffffffffffffffffffffffffffffffffff\n      and\n      sub\n        /* \"src/UserListByCR.sol\":6779:7773  if (_id == data.head) {... */\n      tag_168\n      jumpi\n        /* \"src/UserListByCR.sol\":6920:6924  data */\n      0x03\n        /* \"src/UserListByCR.sol\":6920:6930  data.nodes */\n      0x04\n      add\n        /* \"src/UserListByCR.sol\":6920:6935  data.nodes[_id] */\n      0x00\n        /* \"src/UserListByCR.sol\":6931:6934  _id */\n      dup3\n        /* \"src/UserListByCR.sol\":6920:6935  data.nodes[_id] */\n      0xffffffffffffffffffffffffffffffffffffffff\n      and\n      0xffffffffffffffffffffffffffffffffffffffff\n      and\n      dup2\n      mstore\n      0x20\n      add\n      swap1\n      dup2\n      mstore\n      0x20\n      add\n      0x00\n      keccak256\n        /* \"src/UserListByCR.sol\":6920:6942  data.nodes[_id].nextId */\n      0x00\n      add\n      0x01\n      swap1\n      sload\n      swap1\n      0x0100\n      exp\n      swap1\n      div\n      0xffffffffffffffffffffffffffffffffffffffff\n      and\n        /* \"src/UserListByCR.sol\":6908:6912  data */\n      0x03\n        /* \"src/UserListByCR.sol\":6908:6917  data.head */\n      0x00\n      add\n      0x00\n        /* \"src/UserListByCR.sol\":6908:6942  data.head = data.nodes[_id].nextId */\n      0x0100\n      exp\n      dup2\n      sload\n      dup2\n      0xffffffffffffffffffffffffffffffffffffffff\n      mul\n      not\n      and\n      swap1\n      dup4\n      0xffffffffffffffffffffffffffffffffffffffff\n      and\n      mul\n      or\n      swap1\n      sstore\n      pop\n        /* \"src/UserListByCR.sol\":7055:7056  0 */\n      0x00\n        /* \"src/UserListByCR.sol\":7016:7020  data */\n      0x03\n        /* \"src/UserListByCR.sol\":7016:7026  data.nodes */\n      0x04\n      add\n        /* \"src/UserListByCR.sol\":7016:7037  data.nodes[data.head] */\n      0x00\n        /* \"src/UserListByCR.sol\":7027:7031  data */\n      0x03\n        /* \"src/UserListByCR.sol\":7027:7036  data.head */\n      0x00\n      add\n      0x00\n      swap1\n      sload\n      swap1\n      0x0100\n      exp\n      swap1\n      div\n      0xffffffffffffffffffffffffffffffffffffffff\n      and\n        /* \"src/UserListByCR.sol\":7016:7037  data.nodes[data.head] */\n      0xffffffffffffffffffffffffffffffffffffffff\n      and\n      0xffffffffffffffffffffffffffffffffffffffff\n      and\n      dup2\n      mstore\n      0x20\n      add\n      swap1\n      dup2\n      mstore\n      0x20\n      add\n      0x00\n      keccak256\n        /* \"src/UserListByCR.sol\":7016:7044  data.nodes[data.head].prevId */\n      0x01\n      add\n      0x00\n        /* \"src/UserListByCR.sol\":7016:7057  data.nodes[data.head].prevId = address(0) */\n      0x0100\n      exp\n      dup2\n      sload\n      dup2\n      0xffffffffffffffffffffffffffffffffffffffff\n      mul\n      not\n      and\n      swap1\n      dup4\n      0xffffffffffffffffffffffffffffffffffffffff\n      and\n      mul\n      or\n      swap1\n      sstore\n      pop\n        /* \"src/UserListByCR.sol\":6779:7773  if (_id == data.head) {... */\n      jump(tag_169)\n    tag_168:\n        /* \"src/UserListByCR.sol\":7089:7093  data */\n      0x03\n        /* \"src/UserListByCR.sol\":7089:7098  data.tail */\n      0x01\n      add\n      0x00\n      swap1\n      sload\n      swap1\n      0x0100\n      exp\n      swap1\n      div\n      0xffffffffffffffffffffffffffffffffffffffff\n      and\n        /* \"src/UserListByCR.sol\":7082:7098  _id == data.tail */\n      0xffffffffffffffffffffffffffffffffffffffff\n      and\n        /* \"src/UserListByCR.sol\":7082:7085  _id */\n      dup2\n        /* \"src/UserListByCR.sol\":7082:7098  _id == data.tail */\n      0xffffffffffffffffffffffffffffffffffffffff\n      and\n      sub\n        /* \"src/UserListByCR.sol\":7078:7773  if (_id == data.tail) {... */\n      tag_170\n      jumpi\n        /* \"src/UserListByCR.sol\":7223:7227  data */\n      0x03\n        /* \"src/UserListByCR.sol\":7223:7233  data.nodes */\n      0x04\n      add\n        /* \"src/UserListByCR.sol\":7223:7238  data.nodes[_id] */\n      0x00\n        /* \"src/UserListByCR.sol\":7234:7237  _id */\n      dup3\n        /* \"src/UserListByCR.sol\":7223:7238  data.nodes[_id] */\n      0xffffffffffffffffffffffffffffffffffffffff\n      and\n      0xffffffffffffffffffffffffffffffffffffffff\n      and\n      dup2\n      mstore\n      0x20\n      add\n      swap1\n      dup2\n      mstore\n      0x20\n      add\n      0x00\n      keccak256\n        /* \"src/UserListByCR.sol\":7223:7245  data.nodes[_id].prevId */\n      0x01\n      add\n      0x00\n      swap1\n      sload\n      swap1\n      0x0100\n      exp\n      swap1\n      div\n      0xffffffffffffffffffffffffffffffffffffffff\n      and\n        /* \"src/UserListByCR.sol\":7211:7215  data */\n      0x03\n        /* \"src/UserListByCR.sol\":7211:7220  data.tail */\n      0x01\n      add\n      0x00\n        /* \"src/UserListByCR.sol\":7211:7245  data.tail = data.nodes[_id].prevId */\n      0x0100\n      exp\n      dup2\n      sload\n      dup2\n      0xffffffffffffffffffffffffffffffffffffffff\n      mul\n      not\n      and\n      swap1\n      dup4\n      0xffffffffffffffffffffffffffffffffffffffff\n      and\n      mul\n      or\n      swap1\n      sstore\n      pop\n        /* \"src/UserListByCR.sol\":7358:7359  0 */\n      0x00\n        /* \"src/UserListByCR.sol\":7319:7323  data */\n      0x03\n        /* \"src/UserListByCR.sol\":7319:7329  data.nodes */\n      0x04\n      add\n        /* \"src/UserListByCR.sol\":7319:7340  data.nodes[data.tail] */\n      0x00\n        /* \"src/UserListByCR.sol\":7330:7334  data */\n      0x03\n        /* \"src/UserListByCR.sol\":7330:7339  data.tail */\n      0x01\n      add\n      0x00\n      swap1\n      sload\n      swap1\n      0x0100\n      exp\n      swap1\n      div\n      0xffffffffffffffffffffffffffffffffffffffff\n      and\n        /* \"src/UserListByCR.sol\":7319:7340  data.nodes[data.tail] */\n      0xffffffffffffffffffffffffffffffffffffffff\n      and\n      0xffffffffffffffffffffffffffffffffffffffff\n      and\n      dup2\n      mstore\n      0x20\n      add\n      swap1\n      dup2\n      mstore\n      0x20\n      add\n      0x00\n      keccak256\n        /* \"src/UserListByCR.sol\":7319:7347  data.nodes[data.tail].nextId */\n      0x00\n      add\n      0x01\n        /* \"src/UserListByCR.sol\":7319:7360  data.nodes[data.tail].nextId = address(0) */\n      0x0100\n      exp\n      dup2\n      sload\n      dup2\n      0xffffffffffffffffffffffffffffffffffffffff\n      mul\n      not\n      and\n      swap1\n      dup4\n      0xffffffffffffffffffffffffffffffffffffffff\n      and\n      mul\n      or\n      swap1\n      sstore\n      pop\n        /* \"src/UserListByCR.sol\":7078:7773  if (_id == data.tail) {... */\n      jump(tag_171)\n    tag_170:\n        /* \"src/UserListByCR.sol\":7582:7586  data */\n      0x03\n        /* \"src/UserListByCR.sol\":7582:7592  data.nodes */\n      0x04\n      add\n        /* \"src/UserListByCR.sol\":7582:7597  data.nodes[_id] */\n      0x00\n        /* \"src/UserListByCR.sol\":7593:7596  _id */\n      dup3\n        /* \"src/UserListByCR.sol\":7582:7597  data.nodes[_id] */\n      0xffffffffffffffffffffffffffffffffffffffff\n      and\n      0xffffffffffffffffffffffffffffffffffffffff\n      and\n      dup2\n      mstore\n      0x20\n      add\n      swap1\n      dup2\n      mstore\n      0x20\n      add\n      0x00\n      keccak256\n        /* \"src/UserListByCR.sol\":7582:7604  data.nodes[_id].nextId */\n      0x00\n      add\n      0x01\n      swap1\n      sload\n      swap1\n      0x0100\n      exp\n      swap1\n      div\n      0xffffffffffffffffffffffffffffffffffffffff\n      and\n        /* \"src/UserListByCR.sol\":7538:7542  data */\n      0x03\n        /* \"src/UserListByCR.sol\":7538:7548  data.nodes */\n      0x04\n      add\n        /* \"src/UserListByCR.sol\":7538:7572  data.nodes[data.nodes[_id].prevId] */\n      0x00\n        /* \"src/UserListByCR.sol\":7549:7553  data */\n      0x03\n        /* \"src/UserListByCR.sol\":7549:7559  data.nodes */\n      0x04\n      add\n        /* \"src/UserListByCR.sol\":7549:7564  data.nodes[_id] */\n      0x00\n        /* \"src/UserListByCR.sol\":7560:7563  _id */\n      dup6\n        /* \"src/UserListByCR.sol\":7549:7564  data.nodes[_id] */\n      0xffffffffffffffffffffffffffffffffffffffff\n      and\n      0xffffffffffffffffffffffffffffffffffffffff\n      and\n      dup2\n      mstore\n      0x20\n      add\n      swap1\n      dup2\n      mstore\n      0x20\n      add\n      0x00\n      keccak256\n        /* \"src/UserListByCR.sol\":7549:7571  data.nodes[_id].prevId */\n      0x01\n      add\n      0x00\n      swap1\n      sload\n      swap1\n      0x0100\n      exp\n      swap1\n      div\n      0xffffffffffffffffffffffffffffffffffffffff\n      and\n        /* \"src/UserListByCR.sol\":7538:7572  data.nodes[data.nodes[_id].prevId] */\n      0xffffffffffffffffffffffffffffffffffffffff\n      and\n      0xffffffffffffffffffffffffffffffffffffffff\n      and\n      dup2\n      mstore\n      0x20\n      add\n      swap1\n      dup2\n      mstore\n      0x20\n      add\n      0x00\n      keccak256\n        /* \"src/UserListByCR.sol\":7538:7579  data.nodes[data.nodes[_id].prevId].nextId */\n      0x00\n      add\n      0x01\n        /* \"src/UserListByCR.sol\":7538:7604  data.nodes[data.nodes[_id].prevId].nextId = data.nodes[_id].nextId */\n      0x0100\n      exp\n      dup2\n      sload\n      dup2\n      0xffffffffffffffffffffffffffffffffffffffff\n      mul\n      not\n      and\n      swap1\n      dup4\n      0xffffffffffffffffffffffffffffffffffffffff\n      and\n      mul\n      or\n      swap1\n      sstore\n      pop\n        /* \"src/UserListByCR.sol\":7736:7740  data */\n      0x03\n        /* \"src/UserListByCR.sol\":7736:7746  data.nodes */\n      0x04\n      add\n        /* \"src/UserListByCR.sol\":7736:7751  data.nodes[_id] */\n      0x00\n        /* \"src/UserListByCR.sol\":7747:7750  _id */\n      dup3\n        /* \"src/UserListByCR.sol\":7736:7751  data.nodes[_id] */\n      0xffffffffffffffffffffffffffffffffffffffff\n      and\n      0xffffffffffffffffffffffffffffffffffffffff\n      and\n      dup2\n      mstore\n      0x20\n      add\n      swap1\n      dup2\n      mstore\n      0x20\n      add\n      0x00\n      keccak256\n        /* \"src/UserListByCR.sol\":7736:7758  data.nodes[_id].prevId */\n      0x01\n      add\n      0x00\n      swap1\n      sload\n      swap1\n      0x0100\n      exp\n      swap1\n      div\n      0xffffffffffffffffffffffffffffffffffffffff\n      and\n        /* \"src/UserListByCR.sol\":7692:7696  data */\n      0x03\n        /* \"src/UserListByCR.sol\":7692:7702  data.nodes */\n      0x04\n      add\n        /* \"src/UserListByCR.sol\":7692:7726  data.nodes[data.nodes[_id].nextId] */\n      0x00\n        /* \"src/UserListByCR.sol\":7703:7707  data */\n      0x03\n        /* \"src/UserListByCR.sol\":7703:7713  data.nodes */\n      0x04\n      add\n        /* \"src/UserListByCR.sol\":7703:7718  data.nodes[_id] */\n      0x00\n        /* \"src/UserListByCR.sol\":7714:7717  _id */\n      dup6\n        /* \"src/UserListByCR.sol\":7703:7718  data.nodes[_id] */\n      0xffffffffffffffffffffffffffffffffffffffff\n      and\n      0xffffffffffffffffffffffffffffffffffffffff\n      and\n      dup2\n      mstore\n      0x20\n      add\n      swap1\n      dup2\n      mstore\n      0x20\n      add\n      0x00\n      keccak256\n        /* \"src/UserListByCR.sol\":7703:7725  data.nodes[_id].nextId */\n      0x00\n      add\n      0x01\n      swap1\n      sload\n      swap1\n      0x0100\n      exp\n      swap1\n      div\n      0xffffffffffffffffffffffffffffffffffffffff\n      and\n        /* \"src/UserListByCR.sol\":7692:7726  data.nodes[data.nodes[_id].nextId] */\n      0xffffffffffffffffffffffffffffffffffffffff\n      and\n      0xffffffffffffffffffffffffffffffffffffffff\n      and\n      dup2\n      mstore\n      0x20\n      add\n      swap1\n      dup2\n      mstore\n      0x20\n      add\n      0x00\n      keccak256\n        /* \"src/UserListByCR.sol\":7692:7733  data.nodes[data.nodes[_id].nextId].prevId */\n      0x01\n      add\n      0x00\n        /* \"src/UserListByCR.sol\":7692:7758  data.nodes[data.nodes[_id].nextId].prevId = data.nodes[_id].prevId */\n      0x0100\n      exp\n      dup2\n      sload\n      dup2\n      0xffffffffffffffffffffffffffffffffffffffff\n      mul\n      not\n      and\n      swap1\n      dup4\n      0xffffffffffffffffffffffffffffffffffffffff\n      and\n      mul\n      or\n      swap1\n      sstore\n      pop\n        /* \"src/UserListByCR.sol\":7078:7773  if (_id == data.tail) {... */\n    tag_171:\n        /* \"src/UserListByCR.sol\":6779:7773  if (_id == data.head) {... */\n    tag_169:\n        /* \"src/UserListByCR.sol\":6693:7960  if (data.size > 1) {... */\n      jump(tag_172)\n    tag_167:\n        /* \"src/UserListByCR.sol\":7911:7912  0 */\n      0x00\n        /* \"src/UserListByCR.sol\":7891:7895  data */\n      0x03\n        /* \"src/UserListByCR.sol\":7891:7900  data.head */\n      0x00\n      add\n      0x00\n        /* \"src/UserListByCR.sol\":7891:7913  data.head = address(0) */\n      0x0100\n      exp\n      dup2\n      sload\n      dup2\n      0xffffffffffffffffffffffffffffffffffffffff\n      mul\n      not\n      and\n      swap1\n      dup4\n      0xffffffffffffffffffffffffffffffffffffffff\n      and\n      mul\n      or\n      swap1\n      sstore\n      pop\n        /* \"src/UserListByCR.sol\":7947:7948  0 */\n      0x00\n        /* \"src/UserListByCR.sol\":7927:7931  data */\n      0x03\n        /* \"src/UserListByCR.sol\":7927:7936  data.tail */\n      0x01\n      add\n      0x00\n        /* \"src/UserListByCR.sol\":7927:7949  data.tail = address(0) */\n      0x0100\n      exp\n      dup2\n      sload\n      dup2\n      0xffffffffffffffffffffffffffffffffffffffff\n      mul\n      not\n      and\n      swap1\n      dup4\n      0xffffffffffffffffffffffffffffffffffffffff\n      and\n      mul\n      or\n      swap1\n      sstore\n      pop\n        /* \"src/UserListByCR.sol\":6693:7960  if (data.size > 1) {... */\n    tag_172:\n        /* \"src/UserListByCR.sol\":7977:7981  data */\n      0x03\n        /* \"src/UserListByCR.sol\":7977:7987  data.nodes */\n      0x04\n      add\n        /* \"src/UserListByCR.sol\":7977:7992  data.nodes[_id] */\n      0x00\n        /* \"src/UserListByCR.sol\":7988:7991  _id */\n      dup3\n        /* \"src/UserListByCR.sol\":7977:7992  data.nodes[_id] */\n      0xffffffffffffffffffffffffffffffffffffffff\n      and\n      0xffffffffffffffffffffffffffffffffffffffff\n      and\n      dup2\n      mstore\n      0x20\n      add\n      swap1\n      dup2\n      mstore\n      0x20\n      add\n      0x00\n      keccak256\n      0x00\n        /* \"src/UserListByCR.sol\":7970:7992  delete data.nodes[_id] */\n      dup1\n      dup3\n      add\n      exp(0x0100, 0x00)\n      dup2\n      sload\n      swap1\n      0xff\n      mul\n      not\n      and\n      swap1\n      sstore\n      0x00\n      dup3\n      add\n      exp(0x0100, 0x01)\n      dup2\n      sload\n      swap1\n      0xffffffffffffffffffffffffffffffffffffffff\n      mul\n      not\n      and\n      swap1\n      sstore\n      0x01\n      dup3\n      add\n      exp(0x0100, 0x00)\n      dup2\n      sload\n      swap1\n      0xffffffffffffffffffffffffffffffffffffffff\n      mul\n      not\n      and\n      swap1\n      sstore\n      pop\n      pop\n        /* \"src/UserListByCR.sol\":8015:8016  1 */\n      0x01\n        /* \"src/UserListByCR.sol\":8002:8006  data */\n      0x03\n        /* \"src/UserListByCR.sol\":8002:8011  data.size */\n      dup1\n      add\n      0x00\n        /* \"src/UserListByCR.sol\":8002:8016  data.size -= 1 */\n      dup3\n      dup3\n      sload\n      tag_173\n      swap2\n      swap1\n      tag_174\n      jump\t// in\n    tag_173:\n      swap3\n      pop\n      pop\n      dup2\n      swap1\n      sstore\n      pop\n        /* \"src/UserListByCR.sol\":8031:8047  NodeRemoved(_id) */\n      0xcfc24166db4bb677e857cacabd1541fb2b30645021b27c5130419589b84db52b\n        /* \"src/UserListByCR.sol\":8043:8046  _id */\n      dup2\n        /* \"src/UserListByCR.sol\":8031:8047  NodeRemoved(_id) */\n      mload(0x40)\n      tag_175\n      swap2\n      swap1\n      tag_30\n      jump\t// in\n    tag_175:\n      mload(0x40)\n      dup1\n      swap2\n      sub\n      swap1\n      log1\n        /* \"src/UserListByCR.sol\":6527:8054  function _remove(address _id) internal {... */\n      pop\n      jump\t// out\n        /* \"src/UserListByCR.sol\":16560:16809  function _requireCallerIsBOorTroveM(ITroveManager _troveManager) internal view {... */\n    tag_113:\n        /* \"src/UserListByCR.sol\":16671:16696  borrowerOperationsAddress */\n      0x01\n      0x00\n      swap1\n      sload\n      swap1\n      0x0100\n      exp\n      swap1\n      div\n      0xffffffffffffffffffffffffffffffffffffffff\n      and\n        /* \"src/UserListByCR.sol\":16657:16696  msg.sender == borrowerOperationsAddress */\n      0xffffffffffffffffffffffffffffffffffffffff\n      and\n        /* \"src/UserListByCR.sol\":16657:16667  msg.sender */\n      caller\n        /* \"src/UserListByCR.sol\":16657:16696  msg.sender == borrowerOperationsAddress */\n      0xffffffffffffffffffffffffffffffffffffffff\n      and\n      eq\n        /* \"src/UserListByCR.sol\":16657:16736  msg.sender == borrowerOperationsAddress || msg.sender == address(_troveManager) */\n      dup1\n      tag_177\n      jumpi\n      pop\n        /* \"src/UserListByCR.sol\":16722:16735  _troveManager */\n      dup1\n        /* \"src/UserListByCR.sol\":16700:16736  msg.sender == address(_troveManager) */\n      0xffffffffffffffffffffffffffffffffffffffff\n      and\n        /* \"src/UserListByCR.sol\":16700:16710  msg.sender */\n      caller\n        /* \"src/UserListByCR.sol\":16700:16736  msg.sender == address(_troveManager) */\n      0xffffffffffffffffffffffffffffffffffffffff\n      and\n      eq\n        /* \"src/UserListByCR.sol\":16657:16736  msg.sender == borrowerOperationsAddress || msg.sender == address(_troveManager) */\n    tag_177:\n        /* \"src/UserListByCR.sol\":16649:16802  require(msg.sender == borrowerOperationsAddress || msg.sender == address(_troveManager),... */\n      tag_178\n      jumpi\n      mload(0x40)\n      0x08c379a000000000000000000000000000000000000000000000000000000000\n      dup2\n      mstore\n      0x04\n      add\n      tag_179\n      swap1\n      tag_180\n      jump\t// in\n    tag_179:\n      mload(0x40)\n      dup1\n      swap2\n      sub\n      swap1\n      revert\n    tag_178:\n        /* \"src/UserListByCR.sol\":16560:16809  function _requireCallerIsBOorTroveM(ITroveManager _troveManager) internal view {... */\n      pop\n      jump\t// out\n        /* \"src/UserListByCR.sol\":4423:6316  function _insert(ITroveManager _troveManager, address _id, uint256 _NICR, address _prevId, address _nextId) internal {... */\n    tag_123:\n        /* \"src/UserListByCR.sol\":4592:4600  isFull() */\n      tag_182\n        /* \"src/UserListByCR.sol\":4592:4598  isFull */\n      tag_97\n        /* \"src/UserListByCR.sol\":4592:4600  isFull() */\n      jump\t// in\n    tag_182:\n        /* \"src/UserListByCR.sol\":4591:4600  !isFull() */\n      iszero\n        /* \"src/UserListByCR.sol\":4583:4631  require(!isFull(), \"SortedTroves: List is full\") */\n      tag_183\n      jumpi\n      mload(0x40)\n      0x08c379a000000000000000000000000000000000000000000000000000000000\n      dup2\n      mstore\n      0x04\n      add\n      tag_184\n      swap1\n      tag_185\n      jump\t// in\n    tag_184:\n      mload(0x40)\n      dup1\n      swap2\n      sub\n      swap1\n      revert\n    tag_183:\n        /* \"src/UserListByCR.sol\":4696:4709  contains(_id) */\n      tag_186\n        /* \"src/UserListByCR.sol\":4705:4708  _id */\n      dup5\n        /* \"src/UserListByCR.sol\":4696:4704  contains */\n      tag_62\n        /* \"src/UserListByCR.sol\":4696:4709  contains(_id) */\n      jump\t// in\n    tag_186:\n        /* \"src/UserListByCR.sol\":4695:4709  !contains(_id) */\n      iszero\n        /* \"src/UserListByCR.sol\":4687:4758  require(!contains(_id), \"SortedTroves: List already contains the node\") */\n      tag_187\n      jumpi\n      mload(0x40)\n      0x08c379a000000000000000000000000000000000000000000000000000000000\n      dup2\n      mstore\n      0x04\n      add\n      tag_188\n      swap1\n      tag_189\n      jump\t// in\n    tag_188:\n      mload(0x40)\n      dup1\n      swap2\n      sub\n      swap1\n      revert\n    tag_187:\n        /* \"src/UserListByCR.sol\":4827:4828  0 */\n      0x00\n        /* \"src/UserListByCR.sol\":4812:4829  _id != address(0) */\n      0xffffffffffffffffffffffffffffffffffffffff\n      and\n        /* \"src/UserListByCR.sol\":4812:4815  _id */\n      dup5\n        /* \"src/UserListByCR.sol\":4812:4829  _id != address(0) */\n      0xffffffffffffffffffffffffffffffffffffffff\n      and\n      sub\n        /* \"src/UserListByCR.sol\":4804:4865  require(_id != address(0), \"SortedTroves: Id cannot be zero\") */\n      tag_190\n      jumpi\n      mload(0x40)\n      0x08c379a000000000000000000000000000000000000000000000000000000000\n      dup2\n      mstore\n      0x04\n      add\n      tag_191\n      swap1\n      tag_192\n      jump\t// in\n    tag_191:\n      mload(0x40)\n      dup1\n      swap2\n      sub\n      swap1\n      revert\n    tag_190:\n        /* \"src/UserListByCR.sol\":4924:4925  0 */\n      0x00\n        /* \"src/UserListByCR.sol\":4916:4921  _NICR */\n      dup4\n        /* \"src/UserListByCR.sol\":4916:4925  _NICR > 0 */\n      gt\n        /* \"src/UserListByCR.sol\":4908:4965  require(_NICR > 0, \"SortedTroves: NICR must be positive\") */\n      tag_193\n      jumpi\n      mload(0x40)\n      0x08c379a000000000000000000000000000000000000000000000000000000000\n      dup2\n      mstore\n      0x04\n      add\n      tag_194\n      swap1\n      tag_120\n      jump\t// in\n    tag_194:\n      mload(0x40)\n      dup1\n      swap2\n      sub\n      swap1\n      revert\n    tag_193:\n        /* \"src/UserListByCR.sol\":4976:4990  address prevId */\n      0x00\n        /* \"src/UserListByCR.sol\":4993:5000  _prevId */\n      dup3\n        /* \"src/UserListByCR.sol\":4976:5000  address prevId = _prevId */\n      swap1\n      pop\n        /* \"src/UserListByCR.sol\":5010:5024  address nextId */\n      0x00\n        /* \"src/UserListByCR.sol\":5027:5034  _nextId */\n      dup3\n        /* \"src/UserListByCR.sol\":5010:5034  address nextId = _nextId */\n      swap1\n      pop\n        /* \"src/UserListByCR.sol\":5050:5108  _validInsertPosition(_troveManager, _NICR, prevId, nextId) */\n      tag_195\n        /* \"src/UserListByCR.sol\":5071:5084  _troveManager */\n      dup8\n        /* \"src/UserListByCR.sol\":5086:5091  _NICR */\n      dup7\n        /* \"src/UserListByCR.sol\":5093:5099  prevId */\n      dup5\n        /* \"src/UserListByCR.sol\":5101:5107  nextId */\n      dup5\n        /* \"src/UserListByCR.sol\":5050:5070  _validInsertPosition */\n      tag_126\n        /* \"src/UserListByCR.sol\":5050:5108  _validInsertPosition(_troveManager, _NICR, prevId, nextId) */\n      jump\t// in\n    tag_195:\n        /* \"src/UserListByCR.sol\":5045:5337  if (!_validInsertPosition(_troveManager, _NICR, prevId, nextId)) {... */\n      tag_196\n      jumpi\n        /* \"src/UserListByCR.sol\":5269:5326  _findInsertPosition(_troveManager, _NICR, prevId, nextId) */\n      tag_197\n        /* \"src/UserListByCR.sol\":5289:5302  _troveManager */\n      dup8\n        /* \"src/UserListByCR.sol\":5304:5309  _NICR */\n      dup7\n        /* \"src/UserListByCR.sol\":5311:5317  prevId */\n      dup5\n        /* \"src/UserListByCR.sol\":5319:5325  nextId */\n      dup5\n        /* \"src/UserListByCR.sol\":5269:5288  _findInsertPosition */\n      tag_129\n        /* \"src/UserListByCR.sol\":5269:5326  _findInsertPosition(_troveManager, _NICR, prevId, nextId) */\n      jump\t// in\n    tag_197:\n        /* \"src/UserListByCR.sol\":5250:5326  (prevId, nextId) = _findInsertPosition(_troveManager, _NICR, prevId, nextId) */\n      dup1\n      swap3\n      pop\n      dup2\n      swap4\n      pop\n      pop\n      pop\n        /* \"src/UserListByCR.sol\":5045:5337  if (!_validInsertPosition(_troveManager, _NICR, prevId, nextId)) {... */\n    tag_196:\n        /* \"src/UserListByCR.sol\":5373:5377  true */\n      0x01\n        /* \"src/UserListByCR.sol\":5348:5352  data */\n      0x03\n        /* \"src/UserListByCR.sol\":5348:5358  data.nodes */\n      0x04\n      add\n        /* \"src/UserListByCR.sol\":5348:5363  data.nodes[_id] */\n      0x00\n        /* \"src/UserListByCR.sol\":5359:5362  _id */\n      dup9\n        /* \"src/UserListByCR.sol\":5348:5363  data.nodes[_id] */\n      0xffffffffffffffffffffffffffffffffffffffff\n      and\n      0xffffffffffffffffffffffffffffffffffffffff\n      and\n      dup2\n      mstore\n      0x20\n      add\n      swap1\n      dup2\n      mstore\n      0x20\n      add\n      0x00\n      keccak256\n        /* \"src/UserListByCR.sol\":5348:5370  data.nodes[_id].exists */\n      0x00\n      add\n      0x00\n        /* \"src/UserListByCR.sol\":5348:5377  data.nodes[_id].exists = true */\n      0x0100\n      exp\n      dup2\n      sload\n      dup2\n      0xff\n      mul\n      not\n      and\n      swap1\n      dup4\n      iszero\n      iszero\n      mul\n      or\n      swap1\n      sstore\n      pop\n        /* \"src/UserListByCR.sol\":5410:5411  0 */\n      0x00\n        /* \"src/UserListByCR.sol\":5392:5412  prevId == address(0) */\n      0xffffffffffffffffffffffffffffffffffffffff\n      and\n        /* \"src/UserListByCR.sol\":5392:5398  prevId */\n      dup3\n        /* \"src/UserListByCR.sol\":5392:5412  prevId == address(0) */\n      0xffffffffffffffffffffffffffffffffffffffff\n      and\n      eq\n        /* \"src/UserListByCR.sol\":5392:5436  prevId == address(0) && nextId == address(0) */\n      dup1\n      iszero\n      tag_198\n      jumpi\n      pop\n        /* \"src/UserListByCR.sol\":5434:5435  0 */\n      0x00\n        /* \"src/UserListByCR.sol\":5416:5436  nextId == address(0) */\n      0xffffffffffffffffffffffffffffffffffffffff\n      and\n        /* \"src/UserListByCR.sol\":5416:5422  nextId */\n      dup2\n        /* \"src/UserListByCR.sol\":5416:5436  nextId == address(0) */\n      0xffffffffffffffffffffffffffffffffffffffff\n      and\n      eq\n        /* \"src/UserListByCR.sol\":5392:5436  prevId == address(0) && nextId == address(0) */\n    tag_198:\n        /* \"src/UserListByCR.sol\":5388:6249  if (prevId == address(0) && nextId == address(0)) {... */\n      iszero\n      tag_199\n      jumpi\n        /* \"src/UserListByCR.sol\":5503:5506  _id */\n      dup6\n        /* \"src/UserListByCR.sol\":5491:5495  data */\n      0x03\n        /* \"src/UserListByCR.sol\":5491:5500  data.head */\n      0x00\n      add\n      0x00\n        /* \"src/UserListByCR.sol\":5491:5506  data.head = _id */\n      0x0100\n      exp\n      dup2\n      sload\n      dup2\n      0xffffffffffffffffffffffffffffffffffffffff\n      mul\n      not\n      and\n      swap1\n      dup4\n      0xffffffffffffffffffffffffffffffffffffffff\n      and\n      mul\n      or\n      swap1\n      sstore\n      pop\n        /* \"src/UserListByCR.sol\":5532:5535  _id */\n      dup6\n        /* \"src/UserListByCR.sol\":5520:5524  data */\n      0x03\n        /* \"src/UserListByCR.sol\":5520:5529  data.tail */\n      0x01\n      add\n      0x00\n        /* \"src/UserListByCR.sol\":5520:5535  data.tail = _id */\n      0x0100\n      exp\n      dup2\n      sload\n      dup2\n      0xffffffffffffffffffffffffffffffffffffffff\n      mul\n      not\n      and\n      swap1\n      dup4\n      0xffffffffffffffffffffffffffffffffffffffff\n      and\n      mul\n      or\n      swap1\n      sstore\n      pop\n        /* \"src/UserListByCR.sol\":5388:6249  if (prevId == address(0) && nextId == address(0)) {... */\n      jump(tag_200)\n    tag_199:\n        /* \"src/UserListByCR.sol\":5574:5575  0 */\n      0x00\n        /* \"src/UserListByCR.sol\":5556:5576  prevId == address(0) */\n      0xffffffffffffffffffffffffffffffffffffffff\n      and\n        /* \"src/UserListByCR.sol\":5556:5562  prevId */\n      dup3\n        /* \"src/UserListByCR.sol\":5556:5576  prevId == address(0) */\n      0xffffffffffffffffffffffffffffffffffffffff\n      and\n      sub\n        /* \"src/UserListByCR.sol\":5552:6249  if (prevId == address(0)) {... */\n      tag_201\n      jumpi\n        /* \"src/UserListByCR.sol\":5667:5671  data */\n      0x03\n        /* \"src/UserListByCR.sol\":5667:5676  data.head */\n      0x00\n      add\n      0x00\n      swap1\n      sload\n      swap1\n      0x0100\n      exp\n      swap1\n      div\n      0xffffffffffffffffffffffffffffffffffffffff\n      and\n        /* \"src/UserListByCR.sol\":5642:5646  data */\n      0x03\n        /* \"src/UserListByCR.sol\":5642:5652  data.nodes */\n      0x04\n      add\n        /* \"src/UserListByCR.sol\":5642:5657  data.nodes[_id] */\n      0x00\n        /* \"src/UserListByCR.sol\":5653:5656  _id */\n      dup9\n        /* \"src/UserListByCR.sol\":5642:5657  data.nodes[_id] */\n      0xffffffffffffffffffffffffffffffffffffffff\n      and\n      0xffffffffffffffffffffffffffffffffffffffff\n      and\n      dup2\n      mstore\n      0x20\n      add\n      swap1\n      dup2\n      mstore\n      0x20\n      add\n      0x00\n      keccak256\n        /* \"src/UserListByCR.sol\":5642:5664  data.nodes[_id].nextId */\n      0x00\n      add\n      0x01\n        /* \"src/UserListByCR.sol\":5642:5676  data.nodes[_id].nextId = data.head */\n      0x0100\n      exp\n      dup2\n      sload\n      dup2\n      0xffffffffffffffffffffffffffffffffffffffff\n      mul\n      not\n      and\n      swap1\n      dup4\n      0xffffffffffffffffffffffffffffffffffffffff\n      and\n      mul\n      or\n      swap1\n      sstore\n      pop\n        /* \"src/UserListByCR.sol\":5721:5724  _id */\n      dup6\n        /* \"src/UserListByCR.sol\":5690:5694  data */\n      0x03\n        /* \"src/UserListByCR.sol\":5690:5700  data.nodes */\n      0x04\n      add\n        /* \"src/UserListByCR.sol\":5690:5711  data.nodes[data.head] */\n      0x00\n        /* \"src/UserListByCR.sol\":5701:5705  data */\n      0x03\n        /* \"src/UserListByCR.sol\":5701:5710  data.head */\n      0x00\n      add\n      0x00\n      swap1\n      sload\n      swap1\n      0x0100\n      exp\n      swap1\n      div\n      0xffffffffffffffffffffffffffffffffffffffff\n      and\n        /* \"src/UserListByCR.sol\":5690:5711  data.nodes[data.head] */\n      0xffffffffffffffffffffffffffffffffffffffff\n      and\n      0xffffffffffffffffffffffffffffffffffffffff\n      and\n      dup2\n      mstore\n      0x20\n      add\n      swap1\n      dup2\n      mstore\n      0x20\n      add\n      0x00\n      keccak256\n        /* \"src/UserListByCR.sol\":5690:5718  data.nodes[data.head].prevId */\n      0x01\n      add\n      0x00\n        /* \"src/UserListByCR.sol\":5690:5724  data.nodes[data.head].prevId = _id */\n      0x0100\n      exp\n      dup2\n      sload\n      dup2\n      0xffffffffffffffffffffffffffffffffffffffff\n      mul\n      not\n      and\n      swap1\n      dup4\n      0xffffffffffffffffffffffffffffffffffffffff\n      and\n      mul\n      or\n      swap1\n      sstore\n      pop\n        /* \"src/UserListByCR.sol\":5750:5753  _id */\n      dup6\n        /* \"src/UserListByCR.sol\":5738:5742  data */\n      0x03\n        /* \"src/UserListByCR.sol\":5738:5747  data.head */\n      0x00\n      add\n      0x00\n        /* \"src/UserListByCR.sol\":5738:5753  data.head = _id */\n      0x0100\n      exp\n      dup2\n      sload\n      dup2\n      0xffffffffffffffffffffffffffffffffffffffff\n      mul\n      not\n      and\n      swap1\n      dup4\n      0xffffffffffffffffffffffffffffffffffffffff\n      and\n      mul\n      or\n      swap1\n      sstore\n      pop\n        /* \"src/UserListByCR.sol\":5552:6249  if (prevId == address(0)) {... */\n      jump(tag_202)\n    tag_201:\n        /* \"src/UserListByCR.sol\":5792:5793  0 */\n      0x00\n        /* \"src/UserListByCR.sol\":5774:5794  nextId == address(0) */\n      0xffffffffffffffffffffffffffffffffffffffff\n      and\n        /* \"src/UserListByCR.sol\":5774:5780  nextId */\n      dup2\n        /* \"src/UserListByCR.sol\":5774:5794  nextId == address(0) */\n      0xffffffffffffffffffffffffffffffffffffffff\n      and\n      sub\n        /* \"src/UserListByCR.sol\":5770:6249  if (nextId == address(0)) {... */\n      tag_203\n      jumpi\n        /* \"src/UserListByCR.sol\":5884:5888  data */\n      0x03\n        /* \"src/UserListByCR.sol\":5884:5893  data.tail */\n      0x01\n      add\n      0x00\n      swap1\n      sload\n      swap1\n      0x0100\n      exp\n      swap1\n      div\n      0xffffffffffffffffffffffffffffffffffffffff\n      and\n        /* \"src/UserListByCR.sol\":5859:5863  data */\n      0x03\n        /* \"src/UserListByCR.sol\":5859:5869  data.nodes */\n      0x04\n      add\n        /* \"src/UserListByCR.sol\":5859:5874  data.nodes[_id] */\n      0x00\n        /* \"src/UserListByCR.sol\":5870:5873  _id */\n      dup9\n        /* \"src/UserListByCR.sol\":5859:5874  data.nodes[_id] */\n      0xffffffffffffffffffffffffffffffffffffffff\n      and\n      0xffffffffffffffffffffffffffffffffffffffff\n      and\n      dup2\n      mstore\n      0x20\n      add\n      swap1\n      dup2\n      mstore\n      0x20\n      add\n      0x00\n      keccak256\n        /* \"src/UserListByCR.sol\":5859:5881  data.nodes[_id].prevId */\n      0x01\n      add\n      0x00\n        /* \"src/UserListByCR.sol\":5859:5893  data.nodes[_id].prevId = data.tail */\n      0x0100\n      exp\n      dup2\n      sload\n      dup2\n      0xffffffffffffffffffffffffffffffffffffffff\n      mul\n      not\n      and\n      swap1\n      dup4\n      0xffffffffffffffffffffffffffffffffffffffff\n      and\n      mul\n      or\n      swap1\n      sstore\n      pop\n        /* \"src/UserListByCR.sol\":5938:5941  _id */\n      dup6\n        /* \"src/UserListByCR.sol\":5907:5911  data */\n      0x03\n        /* \"src/UserListByCR.sol\":5907:5917  data.nodes */\n      0x04\n      add\n        /* \"src/UserListByCR.sol\":5907:5928  data.nodes[data.tail] */\n      0x00\n        /* \"src/UserListByCR.sol\":5918:5922  data */\n      0x03\n        /* \"src/UserListByCR.sol\":5918:5927  data.tail */\n      0x01\n      add\n      0x00\n      swap1\n      sload\n      swap1\n      0x0100\n      exp\n      swap1\n      div\n      0xffffffffffffffffffffffffffffffffffffffff\n      and\n        /* \"src/UserListByCR.sol\":5907:5928  data.nodes[data.tail] */\n      0xffffffffffffffffffffffffffffffffffffffff\n      and\n      0xffffffffffffffffffffffffffffffffffffffff\n      and\n      dup2\n      mstore\n      0x20\n      add\n      swap1\n      dup2\n      mstore\n      0x20\n      add\n      0x00\n      keccak256\n        /* \"src/UserListByCR.sol\":5907:5935  data.nodes[data.tail].nextId */\n      0x00\n      add\n      0x01\n        /* \"src/UserListByCR.sol\":5907:5941  data.nodes[data.tail].nextId = _id */\n      0x0100\n      exp\n      dup2\n      sload\n      dup2\n      0xffffffffffffffffffffffffffffffffffffffff\n      mul\n      not\n      and\n      swap1\n      dup4\n      0xffffffffffffffffffffffffffffffffffffffff\n      and\n      mul\n      or\n      swap1\n      sstore\n      pop\n        /* \"src/UserListByCR.sol\":5967:5970  _id */\n      dup6\n        /* \"src/UserListByCR.sol\":5955:5959  data */\n      0x03\n        /* \"src/UserListByCR.sol\":5955:5964  data.tail */\n      0x01\n      add\n      0x00\n        /* \"src/UserListByCR.sol\":5955:5970  data.tail = _id */\n      0x0100\n      exp\n      dup2\n      sload\n      dup2\n      0xffffffffffffffffffffffffffffffffffffffff\n      mul\n      not\n      and\n      swap1\n      dup4\n      0xffffffffffffffffffffffffffffffffffffffff\n      and\n      mul\n      or\n      swap1\n      sstore\n      pop\n        /* \"src/UserListByCR.sol\":5770:6249  if (nextId == address(0)) {... */\n      jump(tag_204)\n    tag_203:\n        /* \"src/UserListByCR.sol\":6097:6103  nextId */\n      dup1\n        /* \"src/UserListByCR.sol\":6072:6076  data */\n      0x03\n        /* \"src/UserListByCR.sol\":6072:6082  data.nodes */\n      0x04\n      add\n        /* \"src/UserListByCR.sol\":6072:6087  data.nodes[_id] */\n      0x00\n        /* \"src/UserListByCR.sol\":6083:6086  _id */\n      dup9\n        /* \"src/UserListByCR.sol\":6072:6087  data.nodes[_id] */\n      0xffffffffffffffffffffffffffffffffffffffff\n      and\n      0xffffffffffffffffffffffffffffffffffffffff\n      and\n      dup2\n      mstore\n      0x20\n      add\n      swap1\n      dup2\n      mstore\n      0x20\n      add\n      0x00\n      keccak256\n        /* \"src/UserListByCR.sol\":6072:6094  data.nodes[_id].nextId */\n      0x00\n      add\n      0x01\n        /* \"src/UserListByCR.sol\":6072:6103  data.nodes[_id].nextId = nextId */\n      0x0100\n      exp\n      dup2\n      sload\n      dup2\n      0xffffffffffffffffffffffffffffffffffffffff\n      mul\n      not\n      and\n      swap1\n      dup4\n      0xffffffffffffffffffffffffffffffffffffffff\n      and\n      mul\n      or\n      swap1\n      sstore\n      pop\n        /* \"src/UserListByCR.sol\":6142:6148  prevId */\n      dup2\n        /* \"src/UserListByCR.sol\":6117:6121  data */\n      0x03\n        /* \"src/UserListByCR.sol\":6117:6127  data.nodes */\n      0x04\n      add\n        /* \"src/UserListByCR.sol\":6117:6132  data.nodes[_id] */\n      0x00\n        /* \"src/UserListByCR.sol\":6128:6131  _id */\n      dup9\n        /* \"src/UserListByCR.sol\":6117:6132  data.nodes[_id] */\n      0xffffffffffffffffffffffffffffffffffffffff\n      and\n      0xffffffffffffffffffffffffffffffffffffffff\n      and\n      dup2\n      mstore\n      0x20\n      add\n      swap1\n      dup2\n      mstore\n      0x20\n      add\n      0x00\n      keccak256\n        /* \"src/UserListByCR.sol\":6117:6139  data.nodes[_id].prevId */\n      0x01\n      add\n      0x00\n        /* \"src/UserListByCR.sol\":6117:6148  data.nodes[_id].prevId = prevId */\n      0x0100\n      exp\n      dup2\n      sload\n      dup2\n      0xffffffffffffffffffffffffffffffffffffffff\n      mul\n      not\n      and\n      swap1\n      dup4\n      0xffffffffffffffffffffffffffffffffffffffff\n      and\n      mul\n      or\n      swap1\n      sstore\n      pop\n        /* \"src/UserListByCR.sol\":6190:6193  _id */\n      dup6\n        /* \"src/UserListByCR.sol\":6162:6166  data */\n      0x03\n        /* \"src/UserListByCR.sol\":6162:6172  data.nodes */\n      0x04\n      add\n        /* \"src/UserListByCR.sol\":6162:6180  data.nodes[prevId] */\n      0x00\n        /* \"src/UserListByCR.sol\":6173:6179  prevId */\n      dup5\n        /* \"src/UserListByCR.sol\":6162:6180  data.nodes[prevId] */\n      0xffffffffffffffffffffffffffffffffffffffff\n      and\n      0xffffffffffffffffffffffffffffffffffffffff\n      and\n      dup2\n      mstore\n      0x20\n      add\n      swap1\n      dup2\n      mstore\n      0x20\n      add\n      0x00\n      keccak256\n        /* \"src/UserListByCR.sol\":6162:6187  data.nodes[prevId].nextId */\n      0x00\n      add\n      0x01\n        /* \"src/UserListByCR.sol\":6162:6193  data.nodes[prevId].nextId = _id */\n      0x0100\n      exp\n      dup2\n      sload\n      dup2\n      0xffffffffffffffffffffffffffffffffffffffff\n      mul\n      not\n      and\n      swap1\n      dup4\n      0xffffffffffffffffffffffffffffffffffffffff\n      and\n      mul\n      or\n      swap1\n      sstore\n      pop\n        /* \"src/UserListByCR.sol\":6235:6238  _id */\n      dup6\n        /* \"src/UserListByCR.sol\":6207:6211  data */\n      0x03\n        /* \"src/UserListByCR.sol\":6207:6217  data.nodes */\n      0x04\n      add\n        /* \"src/UserListByCR.sol\":6207:6225  data.nodes[nextId] */\n      0x00\n        /* \"src/UserListByCR.sol\":6218:6224  nextId */\n      dup4\n        /* \"src/UserListByCR.sol\":6207:6225  data.nodes[nextId] */\n      0xffffffffffffffffffffffffffffffffffffffff\n      and\n      0xffffffffffffffffffffffffffffffffffffffff\n      and\n      dup2\n      mstore\n      0x20\n      add\n      swap1\n      dup2\n      mstore\n      0x20\n      add\n      0x00\n      keccak256\n        /* \"src/UserListByCR.sol\":6207:6232  data.nodes[nextId].prevId */\n      0x01\n      add\n      0x00\n        /* \"src/UserListByCR.sol\":6207:6238  data.nodes[nextId].prevId = _id */\n      0x0100\n      exp\n      dup2\n      sload\n      dup2\n      0xffffffffffffffffffffffffffffffffffffffff\n      mul\n      not\n      and\n      swap1\n      dup4\n      0xffffffffffffffffffffffffffffffffffffffff\n      and\n      mul\n      or\n      swap1\n      sstore\n      pop\n        /* \"src/UserListByCR.sol\":5770:6249  if (nextId == address(0)) {... */\n    tag_204:\n        /* \"src/UserListByCR.sol\":5552:6249  if (prevId == address(0)) {... */\n    tag_202:\n        /* \"src/UserListByCR.sol\":5388:6249  if (prevId == address(0) && nextId == address(0)) {... */\n    tag_200:\n        /* \"src/UserListByCR.sol\":6272:6273  1 */\n      0x01\n        /* \"src/UserListByCR.sol\":6259:6263  data */\n      0x03\n        /* \"src/UserListByCR.sol\":6259:6268  data.size */\n      dup1\n      add\n      0x00\n        /* \"src/UserListByCR.sol\":6259:6273  data.size += 1 */\n      dup3\n      dup3\n      sload\n      tag_205\n      swap2\n      swap1\n      tag_206\n      jump\t// in\n    tag_205:\n      swap3\n      pop\n      pop\n      dup2\n      swap1\n      sstore\n      pop\n        /* \"src/UserListByCR.sol\":6288:6309  NodeAdded(_id, _NICR) */\n      0xe02b43adbee0c123de070a04554a71877a0007e2fc161466299cae3c094fe82f\n        /* \"src/UserListByCR.sol\":6298:6301  _id */\n      dup7\n        /* \"src/UserListByCR.sol\":6303:6308  _NICR */\n      dup7\n        /* \"src/UserListByCR.sol\":6288:6309  NodeAdded(_id, _NICR) */\n      mload(0x40)\n      tag_207\n      swap3\n      swap2\n      swap1\n      tag_208\n      jump\t// in\n    tag_207:\n      mload(0x40)\n      dup1\n      swap2\n      sub\n      swap1\n      log1\n        /* \"src/UserListByCR.sol\":4540:6316  {... */\n      pop\n      pop\n        /* \"src/UserListByCR.sol\":4423:6316  function _insert(ITroveManager _troveManager, address _id, uint256 _NICR, address _prevId, address _nextId) internal {... */\n      pop\n      pop\n      pop\n      pop\n      pop\n      jump\t// out\n        /* \"src/UserListByCR.sol\":11123:12257  function _validInsertPosition(ITroveManager _troveManager, uint256 _NICR, address _prevId, address _nextId) internal view returns (bool) {... */\n    tag_126:\n        /* \"src/UserListByCR.sol\":11254:11258  bool */\n      0x00\n        /* \"src/UserListByCR.sol\":11293:11294  0 */\n      dup1\n        /* \"src/UserListByCR.sol\":11274:11295  _prevId == address(0) */\n      0xffffffffffffffffffffffffffffffffffffffff\n      and\n        /* \"src/UserListByCR.sol\":11274:11281  _prevId */\n      dup4\n        /* \"src/UserListByCR.sol\":11274:11295  _prevId == address(0) */\n      0xffffffffffffffffffffffffffffffffffffffff\n      and\n      eq\n        /* \"src/UserListByCR.sol\":11274:11320  _prevId == address(0) && _nextId == address(0) */\n      dup1\n      iszero\n      tag_210\n      jumpi\n      pop\n        /* \"src/UserListByCR.sol\":11318:11319  0 */\n      0x00\n        /* \"src/UserListByCR.sol\":11299:11320  _nextId == address(0) */\n      0xffffffffffffffffffffffffffffffffffffffff\n      and\n        /* \"src/UserListByCR.sol\":11299:11306  _nextId */\n      dup3\n        /* \"src/UserListByCR.sol\":11299:11320  _nextId == address(0) */\n      0xffffffffffffffffffffffffffffffffffffffff\n      and\n      eq\n        /* \"src/UserListByCR.sol\":11274:11320  _prevId == address(0) && _nextId == address(0) */\n    tag_210:\n        /* \"src/UserListByCR.sol\":11270:12251  if (_prevId == address(0) && _nextId == address(0)) {... */\n      iszero\n      tag_211\n      jumpi\n        /* \"src/UserListByCR.sol\":11421:11430  isEmpty() */\n      tag_212\n        /* \"src/UserListByCR.sol\":11421:11428  isEmpty */\n      tag_69\n        /* \"src/UserListByCR.sol\":11421:11430  isEmpty() */\n      jump\t// in\n    tag_212:\n        /* \"src/UserListByCR.sol\":11414:11430  return isEmpty() */\n      swap1\n      pop\n      jump(tag_209)\n        /* \"src/UserListByCR.sol\":11270:12251  if (_prevId == address(0) && _nextId == address(0)) {... */\n    tag_211:\n        /* \"src/UserListByCR.sol\":11470:11471  0 */\n      0x00\n        /* \"src/UserListByCR.sol\":11451:11472  _prevId == address(0) */\n      0xffffffffffffffffffffffffffffffffffffffff\n      and\n        /* \"src/UserListByCR.sol\":11451:11458  _prevId */\n      dup4\n        /* \"src/UserListByCR.sol\":11451:11472  _prevId == address(0) */\n      0xffffffffffffffffffffffffffffffffffffffff\n      and\n      sub\n        /* \"src/UserListByCR.sol\":11447:12251  if (_prevId == address(0)) {... */\n      tag_214\n      jumpi\n        /* \"src/UserListByCR.sol\":11605:11612  _nextId */\n      dup2\n        /* \"src/UserListByCR.sol\":11592:11612  data.head == _nextId */\n      0xffffffffffffffffffffffffffffffffffffffff\n      and\n        /* \"src/UserListByCR.sol\":11592:11596  data */\n      0x03\n        /* \"src/UserListByCR.sol\":11592:11601  data.head */\n      0x00\n      add\n      0x00\n      swap1\n      sload\n      swap1\n      0x0100\n      exp\n      swap1\n      div\n      0xffffffffffffffffffffffffffffffffffffffff\n      and\n        /* \"src/UserListByCR.sol\":11592:11612  data.head == _nextId */\n      0xffffffffffffffffffffffffffffffffffffffff\n      and\n      eq\n        /* \"src/UserListByCR.sol\":11592:11661  data.head == _nextId && _NICR >= _troveManager.getNominalICR(_nextId) */\n      dup1\n      iszero\n      tag_215\n      jumpi\n      pop\n        /* \"src/UserListByCR.sol\":11625:11638  _troveManager */\n      dup5\n        /* \"src/UserListByCR.sol\":11625:11652  _troveManager.getNominalICR */\n      0xffffffffffffffffffffffffffffffffffffffff\n      and\n      0xb0d8e181\n        /* \"src/UserListByCR.sol\":11653:11660  _nextId */\n      dup4\n        /* \"src/UserListByCR.sol\":11625:11661  _troveManager.getNominalICR(_nextId) */\n      mload(0x40)\n      dup3\n      0xffffffff\n      and\n      0xe0\n      shl\n      dup2\n      mstore\n      0x04\n      add\n      tag_216\n      swap2\n      swap1\n      tag_30\n      jump\t// in\n    tag_216:\n      0x20\n      mload(0x40)\n      dup1\n      dup4\n      sub\n      dup2\n      dup7\n      gas\n      staticcall\n      iszero\n      dup1\n      iszero\n      tag_218\n      jumpi\n      returndatasize\n      0x00\n      dup1\n      returndatacopy\n      revert(0x00, returndatasize)\n    tag_218:\n      pop\n      pop\n      pop\n      pop\n      mload(0x40)\n      returndatasize\n      not(0x1f)\n      0x1f\n      dup3\n      add\n      and\n      dup3\n      add\n      dup1\n      0x40\n      mstore\n      pop\n      dup2\n      add\n      swap1\n      tag_219\n      swap2\n      swap1\n      tag_220\n      jump\t// in\n    tag_219:\n        /* \"src/UserListByCR.sol\":11616:11621  _NICR */\n      dup5\n        /* \"src/UserListByCR.sol\":11616:11661  _NICR >= _troveManager.getNominalICR(_nextId) */\n      lt\n      iszero\n        /* \"src/UserListByCR.sol\":11592:11661  data.head == _nextId && _NICR >= _troveManager.getNominalICR(_nextId) */\n    tag_215:\n        /* \"src/UserListByCR.sol\":11585:11661  return data.head == _nextId && _NICR >= _troveManager.getNominalICR(_nextId) */\n      swap1\n      pop\n      jump(tag_209)\n        /* \"src/UserListByCR.sol\":11447:12251  if (_prevId == address(0)) {... */\n    tag_214:\n        /* \"src/UserListByCR.sol\":11701:11702  0 */\n      0x00\n        /* \"src/UserListByCR.sol\":11682:11703  _nextId == address(0) */\n      0xffffffffffffffffffffffffffffffffffffffff\n      and\n        /* \"src/UserListByCR.sol\":11682:11689  _nextId */\n      dup3\n        /* \"src/UserListByCR.sol\":11682:11703  _nextId == address(0) */\n      0xffffffffffffffffffffffffffffffffffffffff\n      and\n      sub\n        /* \"src/UserListByCR.sol\":11678:12251  if (_nextId == address(0)) {... */\n      tag_222\n      jumpi\n        /* \"src/UserListByCR.sol\":11836:11843  _prevId */\n      dup3\n        /* \"src/UserListByCR.sol\":11823:11843  data.tail == _prevId */\n      0xffffffffffffffffffffffffffffffffffffffff\n      and\n        /* \"src/UserListByCR.sol\":11823:11827  data */\n      0x03\n        /* \"src/UserListByCR.sol\":11823:11832  data.tail */\n      0x01\n      add\n      0x00\n      swap1\n      sload\n      swap1\n      0x0100\n      exp\n      swap1\n      div\n      0xffffffffffffffffffffffffffffffffffffffff\n      and\n        /* \"src/UserListByCR.sol\":11823:11843  data.tail == _prevId */\n      0xffffffffffffffffffffffffffffffffffffffff\n      and\n      eq\n        /* \"src/UserListByCR.sol\":11823:11892  data.tail == _prevId && _NICR <= _troveManager.getNominalICR(_prevId) */\n      dup1\n      iszero\n      tag_223\n      jumpi\n      pop\n        /* \"src/UserListByCR.sol\":11856:11869  _troveManager */\n      dup5\n        /* \"src/UserListByCR.sol\":11856:11883  _troveManager.getNominalICR */\n      0xffffffffffffffffffffffffffffffffffffffff\n      and\n      0xb0d8e181\n        /* \"src/UserListByCR.sol\":11884:11891  _prevId */\n      dup5\n        /* \"src/UserListByCR.sol\":11856:11892  _troveManager.getNominalICR(_prevId) */\n      mload(0x40)\n      dup3\n      0xffffffff\n      and\n      0xe0\n      shl\n      dup2\n      mstore\n      0x04\n      add\n      tag_224\n      swap2\n      swap1\n      tag_30\n      jump\t// in\n    tag_224:\n      0x20\n      mload(0x40)\n      dup1\n      dup4\n      sub\n      dup2\n      dup7\n      gas\n      staticcall\n      iszero\n      dup1\n      iszero\n      tag_226\n      jumpi\n      returndatasize\n      0x00\n      dup1\n      returndatacopy\n      revert(0x00, returndatasize)\n    tag_226:\n      pop\n      pop\n      pop\n      pop\n      mload(0x40)\n      returndatasize\n      not(0x1f)\n      0x1f\n      dup3\n      add\n      and\n      dup3\n      add\n      dup1\n      0x40\n      mstore\n      pop\n      dup2\n      add\n      swap1\n      tag_227\n      swap2\n      swap1\n      tag_220\n      jump\t// in\n    tag_227:\n        /* \"src/UserListByCR.sol\":11847:11852  _NICR */\n      dup5\n        /* \"src/UserListByCR.sol\":11847:11892  _NICR <= _troveManager.getNominalICR(_prevId) */\n      gt\n      iszero\n        /* \"src/UserListByCR.sol\":11823:11892  data.tail == _prevId && _NICR <= _troveManager.getNominalICR(_prevId) */\n    tag_223:\n        /* \"src/UserListByCR.sol\":11816:11892  return data.tail == _prevId && _NICR <= _troveManager.getNominalICR(_prevId) */\n      swap1\n      pop\n      jump(tag_209)\n        /* \"src/UserListByCR.sol\":11678:12251  if (_nextId == address(0)) {... */\n    tag_222:\n        /* \"src/UserListByCR.sol\":12097:12104  _nextId */\n      dup2\n        /* \"src/UserListByCR.sol\":12067:12104  data.nodes[_prevId].nextId == _nextId */\n      0xffffffffffffffffffffffffffffffffffffffff\n      and\n        /* \"src/UserListByCR.sol\":12067:12071  data */\n      0x03\n        /* \"src/UserListByCR.sol\":12067:12077  data.nodes */\n      0x04\n      add\n        /* \"src/UserListByCR.sol\":12067:12086  data.nodes[_prevId] */\n      0x00\n        /* \"src/UserListByCR.sol\":12078:12085  _prevId */\n      dup6\n        /* \"src/UserListByCR.sol\":12067:12086  data.nodes[_prevId] */\n      0xffffffffffffffffffffffffffffffffffffffff\n      and\n      0xffffffffffffffffffffffffffffffffffffffff\n      and\n      dup2\n      mstore\n      0x20\n      add\n      swap1\n      dup2\n      mstore\n      0x20\n      add\n      0x00\n      keccak256\n        /* \"src/UserListByCR.sol\":12067:12093  data.nodes[_prevId].nextId */\n      0x00\n      add\n      0x01\n      swap1\n      sload\n      swap1\n      0x0100\n      exp\n      swap1\n      div\n      0xffffffffffffffffffffffffffffffffffffffff\n      and\n        /* \"src/UserListByCR.sol\":12067:12104  data.nodes[_prevId].nextId == _nextId */\n      0xffffffffffffffffffffffffffffffffffffffff\n      and\n      eq\n        /* \"src/UserListByCR.sol\":12067:12172  data.nodes[_prevId].nextId == _nextId &&... */\n      dup1\n      iszero\n      tag_229\n      jumpi\n      pop\n        /* \"src/UserListByCR.sol\":12167:12172  _NICR */\n      dup4\n        /* \"src/UserListByCR.sol\":12127:12140  _troveManager */\n      dup6\n        /* \"src/UserListByCR.sol\":12127:12154  _troveManager.getNominalICR */\n      0xffffffffffffffffffffffffffffffffffffffff\n      and\n      0xb0d8e181\n        /* \"src/UserListByCR.sol\":12155:12162  _prevId */\n      dup6\n        /* \"src/UserListByCR.sol\":12127:12163  _troveManager.getNominalICR(_prevId) */\n      mload(0x40)\n      dup3\n      0xffffffff\n      and\n      0xe0\n      shl\n      dup2\n      mstore\n      0x04\n      add\n      tag_230\n      swap2\n      swap1\n      tag_30\n      jump\t// in\n    tag_230:\n      0x20\n      mload(0x40)\n      dup1\n      dup4\n      sub\n      dup2\n      dup7\n      gas\n      staticcall\n      iszero\n      dup1\n      iszero\n      tag_232\n      jumpi\n      returndatasize\n      0x00\n      dup1\n      returndatacopy\n      revert(0x00, returndatasize)\n    tag_232:\n      pop\n      pop\n      pop\n      pop\n      mload(0x40)\n      returndatasize\n      not(0x1f)\n      0x1f\n      dup3\n      add\n      and\n      dup3\n      add\n      dup1\n      0x40\n      mstore\n      pop\n      dup2\n      add\n      swap1\n      tag_233\n      swap2\n      swap1\n      tag_220\n      jump\t// in\n    tag_233:\n        /* \"src/UserListByCR.sol\":12127:12172  _troveManager.getNominalICR(_prevId) >= _NICR */\n      lt\n      iszero\n        /* \"src/UserListByCR.sol\":12067:12172  data.nodes[_prevId].nextId == _nextId &&... */\n    tag_229:\n        /* \"src/UserListByCR.sol\":12067:12240  data.nodes[_prevId].nextId == _nextId &&... */\n      dup1\n      iszero\n      tag_234\n      jumpi\n      pop\n        /* \"src/UserListByCR.sol\":12204:12217  _troveManager */\n      dup5\n        /* \"src/UserListByCR.sol\":12204:12231  _troveManager.getNominalICR */\n      0xffffffffffffffffffffffffffffffffffffffff\n      and\n      0xb0d8e181\n        /* \"src/UserListByCR.sol\":12232:12239  _nextId */\n      dup4\n        /* \"src/UserListByCR.sol\":12204:12240  _troveManager.getNominalICR(_nextId) */\n      mload(0x40)\n      dup3\n      0xffffffff\n      and\n      0xe0\n      shl\n      dup2\n      mstore\n      0x04\n      add\n      tag_235\n      swap2\n      swap1\n      tag_30\n      jump\t// in\n    tag_235:\n      0x20\n      mload(0x40)\n      dup1\n      dup4\n      sub\n      dup2\n      dup7\n      gas\n      staticcall\n      iszero\n      dup1\n      iszero\n      tag_237\n      jumpi\n      returndatasize\n      0x00\n      dup1\n      returndatacopy\n      revert(0x00, returndatasize)\n    tag_237:\n      pop\n      pop\n      pop\n      pop\n      mload(0x40)\n      returndatasize\n      not(0x1f)\n      0x1f\n      dup3\n      add\n      and\n      dup3\n      add\n      dup1\n      0x40\n      mstore\n      pop\n      dup2\n      add\n      swap1\n      tag_238\n      swap2\n      swap1\n      tag_220\n      jump\t// in\n    tag_238:\n        /* \"src/UserListByCR.sol\":12195:12200  _NICR */\n      dup5\n        /* \"src/UserListByCR.sol\":12195:12240  _NICR >= _troveManager.getNominalICR(_nextId) */\n      lt\n      iszero\n        /* \"src/UserListByCR.sol\":12067:12240  data.nodes[_prevId].nextId == _nextId &&... */\n    tag_234:\n        /* \"src/UserListByCR.sol\":12060:12240  return data.nodes[_prevId].nextId == _nextId &&... */\n      swap1\n      pop\n        /* \"src/UserListByCR.sol\":11123:12257  function _validInsertPosition(ITroveManager _troveManager, uint256 _NICR, address _prevId, address _nextId) internal view returns (bool) {... */\n    tag_209:\n      swap5\n      swap4\n      pop\n      pop\n      pop\n      pop\n      jump\t// out\n        /* \"src/UserListByCR.sol\":14886:16349  function _findInsertPosition(ITroveManager _troveManager, uint256 _NICR, address _prevId, address _nextId) internal view returns (address, address) {... */\n    tag_129:\n        /* \"src/UserListByCR.sol\":15016:15023  address */\n      0x00\n        /* \"src/UserListByCR.sol\":15025:15032  address */\n      dup1\n        /* \"src/UserListByCR.sol\":15044:15058  address prevId */\n      0x00\n        /* \"src/UserListByCR.sol\":15061:15068  _prevId */\n      dup5\n        /* \"src/UserListByCR.sol\":15044:15068  address prevId = _prevId */\n      swap1\n      pop\n        /* \"src/UserListByCR.sol\":15078:15092  address nextId */\n      0x00\n        /* \"src/UserListByCR.sol\":15095:15102  _nextId */\n      dup5\n        /* \"src/UserListByCR.sol\":15078:15102  address nextId = _nextId */\n      swap1\n      pop\n        /* \"src/UserListByCR.sol\":15135:15136  0 */\n      0x00\n        /* \"src/UserListByCR.sol\":15117:15137  prevId != address(0) */\n      0xffffffffffffffffffffffffffffffffffffffff\n      and\n        /* \"src/UserListByCR.sol\":15117:15123  prevId */\n      dup3\n        /* \"src/UserListByCR.sol\":15117:15137  prevId != address(0) */\n      0xffffffffffffffffffffffffffffffffffffffff\n      and\n      eq\n        /* \"src/UserListByCR.sol\":15113:15382  if (prevId != address(0)) {... */\n      tag_240\n      jumpi\n        /* \"src/UserListByCR.sol\":15158:15174  contains(prevId) */\n      tag_241\n        /* \"src/UserListByCR.sol\":15167:15173  prevId */\n      dup3\n        /* \"src/UserListByCR.sol\":15158:15166  contains */\n      tag_62\n        /* \"src/UserListByCR.sol\":15158:15174  contains(prevId) */\n      jump\t// in\n    tag_241:\n        /* \"src/UserListByCR.sol\":15157:15174  !contains(prevId) */\n      iszero\n        /* \"src/UserListByCR.sol\":15157:15221  !contains(prevId) || _NICR > _troveManager.getNominalICR(prevId) */\n      dup1\n      tag_242\n      jumpi\n      pop\n        /* \"src/UserListByCR.sol\":15186:15199  _troveManager */\n      dup8\n        /* \"src/UserListByCR.sol\":15186:15213  _troveManager.getNominalICR */\n      0xffffffffffffffffffffffffffffffffffffffff\n      and\n      0xb0d8e181\n        /* \"src/UserListByCR.sol\":15214:15220  prevId */\n      dup4\n        /* \"src/UserListByCR.sol\":15186:15221  _troveManager.getNominalICR(prevId) */\n      mload(0x40)\n      dup3\n      0xffffffff\n      and\n      0xe0\n      shl\n      dup2\n      mstore\n      0x04\n      add\n      tag_243\n      swap2\n      swap1\n      tag_30\n      jump\t// in\n    tag_243:\n      0x20\n      mload(0x40)\n      dup1\n      dup4\n      sub\n      dup2\n      dup7\n      gas\n      staticcall\n      iszero\n      dup1\n      iszero\n      tag_245\n      jumpi\n      returndatasize\n      0x00\n      dup1\n      returndatacopy\n      revert(0x00, returndatasize)\n    tag_245:\n      pop\n      pop\n      pop\n      pop\n      mload(0x40)\n      returndatasize\n      not(0x1f)\n      0x1f\n      dup3\n      add\n      and\n      dup3\n      add\n      dup1\n      0x40\n      mstore\n      pop\n      dup2\n      add\n      swap1\n      tag_246\n      swap2\n      swap1\n      tag_220\n      jump\t// in\n    tag_246:\n        /* \"src/UserListByCR.sol\":15178:15183  _NICR */\n      dup8\n        /* \"src/UserListByCR.sol\":15178:15221  _NICR > _troveManager.getNominalICR(prevId) */\n      gt\n        /* \"src/UserListByCR.sol\":15157:15221  !contains(prevId) || _NICR > _troveManager.getNominalICR(prevId) */\n    tag_242:\n        /* \"src/UserListByCR.sol\":15153:15372  if (!contains(prevId) || _NICR > _troveManager.getNominalICR(prevId)) {... */\n      iszero\n      tag_247\n      jumpi\n        /* \"src/UserListByCR.sol\":15355:15356  0 */\n      0x00\n        /* \"src/UserListByCR.sol\":15338:15357  prevId = address(0) */\n      swap2\n      pop\n        /* \"src/UserListByCR.sol\":15153:15372  if (!contains(prevId) || _NICR > _troveManager.getNominalICR(prevId)) {... */\n    tag_247:\n        /* \"src/UserListByCR.sol\":15113:15382  if (prevId != address(0)) {... */\n    tag_240:\n        /* \"src/UserListByCR.sol\":15414:15415  0 */\n      0x00\n        /* \"src/UserListByCR.sol\":15396:15416  nextId != address(0) */\n      0xffffffffffffffffffffffffffffffffffffffff\n      and\n        /* \"src/UserListByCR.sol\":15396:15402  nextId */\n      dup2\n        /* \"src/UserListByCR.sol\":15396:15416  nextId != address(0) */\n      0xffffffffffffffffffffffffffffffffffffffff\n      and\n      eq\n        /* \"src/UserListByCR.sol\":15392:15660  if (nextId != address(0)) {... */\n      tag_248\n      jumpi\n        /* \"src/UserListByCR.sol\":15437:15453  contains(nextId) */\n      tag_249\n        /* \"src/UserListByCR.sol\":15446:15452  nextId */\n      dup2\n        /* \"src/UserListByCR.sol\":15437:15445  contains */\n      tag_62\n        /* \"src/UserListByCR.sol\":15437:15453  contains(nextId) */\n      jump\t// in\n    tag_249:\n        /* \"src/UserListByCR.sol\":15436:15453  !contains(nextId) */\n      iszero\n        /* \"src/UserListByCR.sol\":15436:15500  !contains(nextId) || _NICR < _troveManager.getNominalICR(nextId) */\n      dup1\n      tag_250\n      jumpi\n      pop\n        /* \"src/UserListByCR.sol\":15465:15478  _troveManager */\n      dup8\n        /* \"src/UserListByCR.sol\":15465:15492  _troveManager.getNominalICR */\n      0xffffffffffffffffffffffffffffffffffffffff\n      and\n      0xb0d8e181\n        /* \"src/UserListByCR.sol\":15493:15499  nextId */\n      dup3\n        /* \"src/UserListByCR.sol\":15465:15500  _troveManager.getNominalICR(nextId) */\n      mload(0x40)\n      dup3\n      0xffffffff\n      and\n      0xe0\n      shl\n      dup2\n      mstore\n      0x04\n      add\n      tag_251\n      swap2\n      swap1\n      tag_30\n      jump\t// in\n    tag_251:\n      0x20\n      mload(0x40)\n      dup1\n      dup4\n      sub\n      dup2\n      dup7\n      gas\n      staticcall\n      iszero\n      dup1\n      iszero\n      tag_253\n      jumpi\n      returndatasize\n      0x00\n      dup1\n      returndatacopy\n      revert(0x00, returndatasize)\n    tag_253:\n      pop\n      pop\n      pop\n      pop\n      mload(0x40)\n      returndatasize\n      not(0x1f)\n      0x1f\n      dup3\n      add\n      and\n      dup3\n      add\n      dup1\n      0x40\n      mstore\n      pop\n      dup2\n      add\n      swap1\n      tag_254\n      swap2\n      swap1\n      tag_220\n      jump\t// in\n    tag_254:\n        /* \"src/UserListByCR.sol\":15457:15462  _NICR */\n      dup8\n        /* \"src/UserListByCR.sol\":15457:15500  _NICR < _troveManager.getNominalICR(nextId) */\n      lt\n        /* \"src/UserListByCR.sol\":15436:15500  !contains(nextId) || _NICR < _troveManager.getNominalICR(nextId) */\n    tag_250:\n        /* \"src/UserListByCR.sol\":15432:15650  if (!contains(nextId) || _NICR < _troveManager.getNominalICR(nextId)) {... */\n      iszero\n      tag_255\n      jumpi\n        /* \"src/UserListByCR.sol\":15633:15634  0 */\n      0x00\n        /* \"src/UserListByCR.sol\":15616:15635  nextId = address(0) */\n      swap1\n      pop\n        /* \"src/UserListByCR.sol\":15432:15650  if (!contains(nextId) || _NICR < _troveManager.getNominalICR(nextId)) {... */\n    tag_255:\n        /* \"src/UserListByCR.sol\":15392:15660  if (nextId != address(0)) {... */\n    tag_248:\n        /* \"src/UserListByCR.sol\":15692:15693  0 */\n      0x00\n        /* \"src/UserListByCR.sol\":15674:15694  prevId == address(0) */\n      0xffffffffffffffffffffffffffffffffffffffff\n      and\n        /* \"src/UserListByCR.sol\":15674:15680  prevId */\n      dup3\n        /* \"src/UserListByCR.sol\":15674:15694  prevId == address(0) */\n      0xffffffffffffffffffffffffffffffffffffffff\n      and\n      eq\n        /* \"src/UserListByCR.sol\":15674:15718  prevId == address(0) && nextId == address(0) */\n      dup1\n      iszero\n      tag_256\n      jumpi\n      pop\n        /* \"src/UserListByCR.sol\":15716:15717  0 */\n      0x00\n        /* \"src/UserListByCR.sol\":15698:15718  nextId == address(0) */\n      0xffffffffffffffffffffffffffffffffffffffff\n      and\n        /* \"src/UserListByCR.sol\":15698:15704  nextId */\n      dup2\n        /* \"src/UserListByCR.sol\":15698:15718  nextId == address(0) */\n      0xffffffffffffffffffffffffffffffffffffffff\n      and\n      eq\n        /* \"src/UserListByCR.sol\":15674:15718  prevId == address(0) && nextId == address(0) */\n    tag_256:\n        /* \"src/UserListByCR.sol\":15670:16343  if (prevId == address(0) && nextId == address(0)) {... */\n      iszero\n      tag_257\n      jumpi\n        /* \"src/UserListByCR.sol\":15798:15843  _descendList(_troveManager, _NICR, data.head) */\n      tag_258\n        /* \"src/UserListByCR.sol\":15811:15824  _troveManager */\n      dup9\n        /* \"src/UserListByCR.sol\":15826:15831  _NICR */\n      dup9\n        /* \"src/UserListByCR.sol\":15833:15837  data */\n      0x03\n        /* \"src/UserListByCR.sol\":15833:15842  data.head */\n      0x00\n      add\n      0x00\n      swap1\n      sload\n      swap1\n      0x0100\n      exp\n      swap1\n      div\n      0xffffffffffffffffffffffffffffffffffffffff\n      and\n        /* \"src/UserListByCR.sol\":15798:15810  _descendList */\n      tag_259\n        /* \"src/UserListByCR.sol\":15798:15843  _descendList(_troveManager, _NICR, data.head) */\n      jump\t// in\n    tag_258:\n        /* \"src/UserListByCR.sol\":15791:15843  return _descendList(_troveManager, _NICR, data.head) */\n      swap4\n      pop\n      swap4\n      pop\n      pop\n      pop\n      jump(tag_239)\n        /* \"src/UserListByCR.sol\":15670:16343  if (prevId == address(0) && nextId == address(0)) {... */\n    tag_257:\n        /* \"src/UserListByCR.sol\":15882:15883  0 */\n      0x00\n        /* \"src/UserListByCR.sol\":15864:15884  prevId == address(0) */\n      0xffffffffffffffffffffffffffffffffffffffff\n      and\n        /* \"src/UserListByCR.sol\":15864:15870  prevId */\n      dup3\n        /* \"src/UserListByCR.sol\":15864:15884  prevId == address(0) */\n      0xffffffffffffffffffffffffffffffffffffffff\n      and\n      sub\n        /* \"src/UserListByCR.sol\":15860:16343  if (prevId == address(0)) {... */\n      tag_261\n      jumpi\n        /* \"src/UserListByCR.sol\":15980:16021  _ascendList(_troveManager, _NICR, nextId) */\n      tag_262\n        /* \"src/UserListByCR.sol\":15992:16005  _troveManager */\n      dup9\n        /* \"src/UserListByCR.sol\":16007:16012  _NICR */\n      dup9\n        /* \"src/UserListByCR.sol\":16014:16020  nextId */\n      dup4\n        /* \"src/UserListByCR.sol\":15980:15991  _ascendList */\n      tag_263\n        /* \"src/UserListByCR.sol\":15980:16021  _ascendList(_troveManager, _NICR, nextId) */\n      jump\t// in\n    tag_262:\n        /* \"src/UserListByCR.sol\":15973:16021  return _ascendList(_troveManager, _NICR, nextId) */\n      swap4\n      pop\n      swap4\n      pop\n      pop\n      pop\n      jump(tag_239)\n        /* \"src/UserListByCR.sol\":15860:16343  if (prevId == address(0)) {... */\n    tag_261:\n        /* \"src/UserListByCR.sol\":16060:16061  0 */\n      0x00\n        /* \"src/UserListByCR.sol\":16042:16062  nextId == address(0) */\n      0xffffffffffffffffffffffffffffffffffffffff\n      and\n        /* \"src/UserListByCR.sol\":16042:16048  nextId */\n      dup2\n        /* \"src/UserListByCR.sol\":16042:16062  nextId == address(0) */\n      0xffffffffffffffffffffffffffffffffffffffff\n      and\n      sub\n        /* \"src/UserListByCR.sol\":16038:16343  if (nextId == address(0)) {... */\n      tag_265\n      jumpi\n        /* \"src/UserListByCR.sol\":16159:16201  _descendList(_troveManager, _NICR, prevId) */\n      tag_266\n        /* \"src/UserListByCR.sol\":16172:16185  _troveManager */\n      dup9\n        /* \"src/UserListByCR.sol\":16187:16192  _NICR */\n      dup9\n        /* \"src/UserListByCR.sol\":16194:16200  prevId */\n      dup5\n        /* \"src/UserListByCR.sol\":16159:16171  _descendList */\n      tag_259\n        /* \"src/UserListByCR.sol\":16159:16201  _descendList(_troveManager, _NICR, prevId) */\n      jump\t// in\n    tag_266:\n        /* \"src/UserListByCR.sol\":16152:16201  return _descendList(_troveManager, _NICR, prevId) */\n      swap4\n      pop\n      swap4\n      pop\n      pop\n      pop\n      jump(tag_239)\n        /* \"src/UserListByCR.sol\":16038:16343  if (nextId == address(0)) {... */\n    tag_265:\n        /* \"src/UserListByCR.sol\":16290:16332  _descendList(_troveManager, _NICR, prevId) */\n      tag_268\n        /* \"src/UserListByCR.sol\":16303:16316  _troveManager */\n      dup9\n        /* \"src/UserListByCR.sol\":16318:16323  _NICR */\n      dup9\n        /* \"src/UserListByCR.sol\":16325:16331  prevId */\n      dup5\n        /* \"src/UserListByCR.sol\":16290:16302  _descendList */\n      tag_259\n        /* \"src/UserListByCR.sol\":16290:16332  _descendList(_troveManager, _NICR, prevId) */\n      jump\t// in\n    tag_268:\n        /* \"src/UserListByCR.sol\":16283:16332  return _descendList(_troveManager, _NICR, prevId) */\n      swap4\n      pop\n      swap4\n      pop\n      pop\n      pop\n        /* \"src/UserListByCR.sol\":14886:16349  function _findInsertPosition(ITroveManager _troveManager, uint256 _NICR, address _prevId, address _nextId) internal view returns (address, address) {... */\n    tag_239:\n      swap5\n      pop\n      swap5\n      swap3\n      pop\n      pop\n      pop\n      jump\t// out\n        /* \"src/Dependencies/CheckContract.sol\":293:623  function checkContract(address _account) internal view {... */\n    tag_153:\n        /* \"src/Dependencies/CheckContract.sol\":386:387  0 */\n      0x00\n        /* \"src/Dependencies/CheckContract.sol\":366:388  _account != address(0) */\n      0xffffffffffffffffffffffffffffffffffffffff\n      and\n        /* \"src/Dependencies/CheckContract.sol\":366:374  _account */\n      dup2\n        /* \"src/Dependencies/CheckContract.sol\":366:388  _account != address(0) */\n      0xffffffffffffffffffffffffffffffffffffffff\n      and\n      sub\n        /* \"src/Dependencies/CheckContract.sol\":358:423  require(_account != address(0), \"Account cannot be zero address\") */\n      tag_270\n      jumpi\n      mload(0x40)\n      0x08c379a000000000000000000000000000000000000000000000000000000000\n      dup2\n      mstore\n      0x04\n      add\n      tag_271\n      swap1\n      tag_272\n      jump\t// in\n    tag_271:\n      mload(0x40)\n      dup1\n      swap2\n      sub\n      swap1\n      revert\n    tag_270:\n        /* \"src/Dependencies/CheckContract.sol\":434:446  uint256 size */\n      0x00\n        /* \"src/Dependencies/CheckContract.sol\":543:551  _account */\n      dup2\n        /* \"src/Dependencies/CheckContract.sol\":531:552  extcodesize(_account) */\n      extcodesize\n        /* \"src/Dependencies/CheckContract.sol\":523:552  size := extcodesize(_account) */\n      swap1\n      pop\n        /* \"src/Dependencies/CheckContract.sol\":578:579  0 */\n      0x00\n        /* \"src/Dependencies/CheckContract.sol\":571:575  size */\n      dup2\n        /* \"src/Dependencies/CheckContract.sol\":571:579  size > 0 */\n      gt\n        /* \"src/Dependencies/CheckContract.sol\":563:616  require(size > 0, \"Account code size cannot be zero\") */\n      tag_273\n      jumpi\n      mload(0x40)\n      0x08c379a000000000000000000000000000000000000000000000000000000000\n      dup2\n      mstore\n      0x04\n      add\n      tag_274\n      swap1\n      tag_275\n      jump\t// in\n    tag_274:\n      mload(0x40)\n      dup1\n      swap2\n      sub\n      swap1\n      revert\n    tag_273:\n        /* \"src/Dependencies/CheckContract.sol\":348:623  {... */\n      pop\n        /* \"src/Dependencies/CheckContract.sol\":293:623  function checkContract(address _account) internal view {... */\n      pop\n      jump\t// out\n        /* \"src/Dependencies/Ownable.sol\":1872:2002  function _renounceOwnership() internal {... */\n    tag_158:\n        /* \"src/Dependencies/Ownable.sol\":1963:1964  0 */\n      0x00\n        /* \"src/Dependencies/Ownable.sol\":1926:1966  OwnershipTransferred(_owner, address(0)) */\n      0xffffffffffffffffffffffffffffffffffffffff\n      and\n        /* \"src/Dependencies/Ownable.sol\":1947:1953  _owner */\n      0x00\n      dup1\n      sload\n      swap1\n      0x0100\n      exp\n      swap1\n      div\n      0xffffffffffffffffffffffffffffffffffffffff\n      and\n        /* \"src/Dependencies/Ownable.sol\":1926:1966  OwnershipTransferred(_owner, address(0)) */\n      0xffffffffffffffffffffffffffffffffffffffff\n      and\n      0x8be0079c531659141344cd1fd0a4f28419497f9722a3daafe3b4186f6b6457e0\n      mload(0x40)\n      mload(0x40)\n      dup1\n      swap2\n      sub\n      swap1\n      log3\n        /* \"src/Dependencies/Ownable.sol\":1993:1994  0 */\n      0x00\n        /* \"src/Dependencies/Ownable.sol\":1976:1982  _owner */\n      dup1\n      0x00\n        /* \"src/Dependencies/Ownable.sol\":1976:1995  _owner = address(0) */\n      0x0100\n      exp\n      dup2\n      sload\n      dup2\n      0xffffffffffffffffffffffffffffffffffffffff\n      mul\n      not\n      and\n      swap1\n      dup4\n      0xffffffffffffffffffffffffffffffffffffffff\n      and\n      mul\n      or\n      swap1\n      sstore\n      pop\n        /* \"src/Dependencies/Ownable.sol\":1872:2002  function _renounceOwnership() internal {... */\n      jump\t// out\n        /* \"src/UserListByCR.sol\":12559:13340  function _descendList(ITroveManager _troveManager, uint256 _NICR, address _startId) internal view returns (address, address) {... */\n    tag_259:\n        /* \"src/UserListByCR.sol\":12666:12673  address */\n      0x00\n        /* \"src/UserListByCR.sol\":12675:12682  address */\n      dup1\n        /* \"src/UserListByCR.sol\":12797:12805  _startId */\n      dup3\n        /* \"src/UserListByCR.sol\":12784:12805  data.head == _startId */\n      0xffffffffffffffffffffffffffffffffffffffff\n      and\n        /* \"src/UserListByCR.sol\":12784:12788  data */\n      0x03\n        /* \"src/UserListByCR.sol\":12784:12793  data.head */\n      0x00\n      add\n      0x00\n      swap1\n      sload\n      swap1\n      0x0100\n      exp\n      swap1\n      div\n      0xffffffffffffffffffffffffffffffffffffffff\n      and\n        /* \"src/UserListByCR.sol\":12784:12805  data.head == _startId */\n      0xffffffffffffffffffffffffffffffffffffffff\n      and\n      eq\n        /* \"src/UserListByCR.sol\":12784:12855  data.head == _startId && _NICR >= _troveManager.getNominalICR(_startId) */\n      dup1\n      iszero\n      tag_278\n      jumpi\n      pop\n        /* \"src/UserListByCR.sol\":12818:12831  _troveManager */\n      dup5\n        /* \"src/UserListByCR.sol\":12818:12845  _troveManager.getNominalICR */\n      0xffffffffffffffffffffffffffffffffffffffff\n      and\n      0xb0d8e181\n        /* \"src/UserListByCR.sol\":12846:12854  _startId */\n      dup5\n        /* \"src/UserListByCR.sol\":12818:12855  _troveManager.getNominalICR(_startId) */\n      mload(0x40)\n      dup3\n      0xffffffff\n      and\n      0xe0\n      shl\n      dup2\n      mstore\n      0x04\n      add\n      tag_279\n      swap2\n      swap1\n      tag_30\n      jump\t// in\n    tag_279:\n      0x20\n      mload(0x40)\n      dup1\n      dup4\n      sub\n      dup2\n      dup7\n      gas\n      staticcall\n      iszero\n      dup1\n      iszero\n      tag_281\n      jumpi\n      returndatasize\n      0x00\n      dup1\n      returndatacopy\n      revert(0x00, returndatasize)\n    tag_281:\n      pop\n      pop\n      pop\n      pop\n      mload(0x40)\n      returndatasize\n      not(0x1f)\n      0x1f\n      dup3\n      add\n      and\n      dup3\n      add\n      dup1\n      0x40\n      mstore\n      pop\n      dup2\n      add\n      swap1\n      tag_282\n      swap2\n      swap1\n      tag_220\n      jump\t// in\n    tag_282:\n        /* \"src/UserListByCR.sol\":12809:12814  _NICR */\n      dup5\n        /* \"src/UserListByCR.sol\":12809:12855  _NICR >= _troveManager.getNominalICR(_startId) */\n      lt\n      iszero\n        /* \"src/UserListByCR.sol\":12784:12855  data.head == _startId && _NICR >= _troveManager.getNominalICR(_startId) */\n    tag_278:\n        /* \"src/UserListByCR.sol\":12780:12911  if (data.head == _startId && _NICR >= _troveManager.getNominalICR(_startId)) {... */\n      iszero\n      tag_283\n      jumpi\n        /* \"src/UserListByCR.sol\":12887:12888  0 */\n      0x00\n        /* \"src/UserListByCR.sol\":12891:12899  _startId */\n      dup4\n        /* \"src/UserListByCR.sol\":12871:12900  return (address(0), _startId) */\n      swap2\n      pop\n      swap2\n      pop\n      jump(tag_277)\n        /* \"src/UserListByCR.sol\":12780:12911  if (data.head == _startId && _NICR >= _troveManager.getNominalICR(_startId)) {... */\n    tag_283:\n        /* \"src/UserListByCR.sol\":12921:12935  address prevId */\n      0x00\n        /* \"src/UserListByCR.sol\":12938:12946  _startId */\n      dup4\n        /* \"src/UserListByCR.sol\":12921:12946  address prevId = _startId */\n      swap1\n      pop\n        /* \"src/UserListByCR.sol\":12956:12970  address nextId */\n      0x00\n        /* \"src/UserListByCR.sol\":12973:12977  data */\n      0x03\n        /* \"src/UserListByCR.sol\":12973:12983  data.nodes */\n      0x04\n      add\n        /* \"src/UserListByCR.sol\":12973:12991  data.nodes[prevId] */\n      0x00\n        /* \"src/UserListByCR.sol\":12984:12990  prevId */\n      dup4\n        /* \"src/UserListByCR.sol\":12973:12991  data.nodes[prevId] */\n      0xffffffffffffffffffffffffffffffffffffffff\n      and\n      0xffffffffffffffffffffffffffffffffffffffff\n      and\n      dup2\n      mstore\n      0x20\n      add\n      swap1\n      dup2\n      mstore\n      0x20\n      add\n      0x00\n      keccak256\n        /* \"src/UserListByCR.sol\":12973:12998  data.nodes[prevId].nextId */\n      0x00\n      add\n      0x01\n      swap1\n      sload\n      swap1\n      0x0100\n      exp\n      swap1\n      div\n      0xffffffffffffffffffffffffffffffffffffffff\n      and\n        /* \"src/UserListByCR.sol\":12956:12998  address nextId = data.nodes[prevId].nextId */\n      swap1\n      pop\n        /* \"src/UserListByCR.sol\":13101:13300  while (prevId != address(0) && !_validInsertPosition(_troveManager, _NICR, prevId, nextId)) {... */\n    tag_284:\n        /* \"src/UserListByCR.sol\":13126:13127  0 */\n      0x00\n        /* \"src/UserListByCR.sol\":13108:13128  prevId != address(0) */\n      0xffffffffffffffffffffffffffffffffffffffff\n      and\n        /* \"src/UserListByCR.sol\":13108:13114  prevId */\n      dup3\n        /* \"src/UserListByCR.sol\":13108:13128  prevId != address(0) */\n      0xffffffffffffffffffffffffffffffffffffffff\n      and\n      eq\n      iszero\n        /* \"src/UserListByCR.sol\":13108:13191  prevId != address(0) && !_validInsertPosition(_troveManager, _NICR, prevId, nextId) */\n      dup1\n      iszero\n      tag_286\n      jumpi\n      pop\n        /* \"src/UserListByCR.sol\":13133:13191  _validInsertPosition(_troveManager, _NICR, prevId, nextId) */\n      tag_287\n        /* \"src/UserListByCR.sol\":13154:13167  _troveManager */\n      dup8\n        /* \"src/UserListByCR.sol\":13169:13174  _NICR */\n      dup8\n        /* \"src/UserListByCR.sol\":13176:13182  prevId */\n      dup5\n        /* \"src/UserListByCR.sol\":13184:13190  nextId */\n      dup5\n        /* \"src/UserListByCR.sol\":13133:13153  _validInsertPosition */\n      tag_126\n        /* \"src/UserListByCR.sol\":13133:13191  _validInsertPosition(_troveManager, _NICR, prevId, nextId) */\n      jump\t// in\n    tag_287:\n        /* \"src/UserListByCR.sol\":13132:13191  !_validInsertPosition(_troveManager, _NICR, prevId, nextId) */\n      iszero\n        /* \"src/UserListByCR.sol\":13108:13191  prevId != address(0) && !_validInsertPosition(_troveManager, _NICR, prevId, nextId) */\n    tag_286:\n        /* \"src/UserListByCR.sol\":13101:13300  while (prevId != address(0) && !_validInsertPosition(_troveManager, _NICR, prevId, nextId)) {... */\n      iszero\n      tag_285\n      jumpi\n        /* \"src/UserListByCR.sol\":13216:13220  data */\n      0x03\n        /* \"src/UserListByCR.sol\":13216:13226  data.nodes */\n      0x04\n      add\n        /* \"src/UserListByCR.sol\":13216:13234  data.nodes[prevId] */\n      0x00\n        /* \"src/UserListByCR.sol\":13227:13233  prevId */\n      dup4\n        /* \"src/UserListByCR.sol\":13216:13234  data.nodes[prevId] */\n      0xffffffffffffffffffffffffffffffffffffffff\n      and\n      0xffffffffffffffffffffffffffffffffffffffff\n      and\n      dup2\n      mstore\n      0x20\n      add\n      swap1\n      dup2\n      mstore\n      0x20\n      add\n      0x00\n      keccak256\n        /* \"src/UserListByCR.sol\":13216:13241  data.nodes[prevId].nextId */\n      0x00\n      add\n      0x01\n      swap1\n      sload\n      swap1\n      0x0100\n      exp\n      swap1\n      div\n      0xffffffffffffffffffffffffffffffffffffffff\n      and\n        /* \"src/UserListByCR.sol\":13207:13241  prevId = data.nodes[prevId].nextId */\n      swap2\n      pop\n        /* \"src/UserListByCR.sol\":13264:13268  data */\n      0x03\n        /* \"src/UserListByCR.sol\":13264:13274  data.nodes */\n      0x04\n      add\n        /* \"src/UserListByCR.sol\":13264:13282  data.nodes[prevId] */\n      0x00\n        /* \"src/UserListByCR.sol\":13275:13281  prevId */\n      dup4\n        /* \"src/UserListByCR.sol\":13264:13282  data.nodes[prevId] */\n      0xffffffffffffffffffffffffffffffffffffffff\n      and\n      0xffffffffffffffffffffffffffffffffffffffff\n      and\n      dup2\n      mstore\n      0x20\n      add\n      swap1\n      dup2\n      mstore\n      0x20\n      add\n      0x00\n      keccak256\n        /* \"src/UserListByCR.sol\":13264:13289  data.nodes[prevId].nextId */\n      0x00\n      add\n      0x01\n      swap1\n      sload\n      swap1\n      0x0100\n      exp\n      swap1\n      div\n      0xffffffffffffffffffffffffffffffffffffffff\n      and\n        /* \"src/UserListByCR.sol\":13255:13289  nextId = data.nodes[prevId].nextId */\n      swap1\n      pop\n        /* \"src/UserListByCR.sol\":13101:13300  while (prevId != address(0) && !_validInsertPosition(_troveManager, _NICR, prevId, nextId)) {... */\n      jump(tag_284)\n    tag_285:\n        /* \"src/UserListByCR.sol\":13318:13324  prevId */\n      dup2\n        /* \"src/UserListByCR.sol\":13326:13332  nextId */\n      dup2\n        /* \"src/UserListByCR.sol\":13310:13333  return (prevId, nextId) */\n      swap4\n      pop\n      swap4\n      pop\n      pop\n      pop\n        /* \"src/UserListByCR.sol\":12559:13340  function _descendList(ITroveManager _troveManager, uint256 _NICR, address _startId) internal view returns (address, address) {... */\n    tag_277:\n      swap4\n      pop\n      swap4\n      swap2\n      pop\n      pop\n      jump\t// out\n        /* \"src/UserListByCR.sol\":13640:14418  function _ascendList(ITroveManager _troveManager, uint256 _NICR, address _startId) internal view returns (address, address) {... */\n    tag_263:\n        /* \"src/UserListByCR.sol\":13746:13753  address */\n      0x00\n        /* \"src/UserListByCR.sol\":13755:13762  address */\n      dup1\n        /* \"src/UserListByCR.sol\":13876:13884  _startId */\n      dup3\n        /* \"src/UserListByCR.sol\":13863:13884  data.tail == _startId */\n      0xffffffffffffffffffffffffffffffffffffffff\n      and\n        /* \"src/UserListByCR.sol\":13863:13867  data */\n      0x03\n        /* \"src/UserListByCR.sol\":13863:13872  data.tail */\n      0x01\n      add\n      0x00\n      swap1\n      sload\n      swap1\n      0x0100\n      exp\n      swap1\n      div\n      0xffffffffffffffffffffffffffffffffffffffff\n      and\n        /* \"src/UserListByCR.sol\":13863:13884  data.tail == _startId */\n      0xffffffffffffffffffffffffffffffffffffffff\n      and\n      eq\n        /* \"src/UserListByCR.sol\":13863:13934  data.tail == _startId && _NICR <= _troveManager.getNominalICR(_startId) */\n      dup1\n      iszero\n      tag_289\n      jumpi\n      pop\n        /* \"src/UserListByCR.sol\":13897:13910  _troveManager */\n      dup5\n        /* \"src/UserListByCR.sol\":13897:13924  _troveManager.getNominalICR */\n      0xffffffffffffffffffffffffffffffffffffffff\n      and\n      0xb0d8e181\n        /* \"src/UserListByCR.sol\":13925:13933  _startId */\n      dup5\n        /* \"src/UserListByCR.sol\":13897:13934  _troveManager.getNominalICR(_startId) */\n      mload(0x40)\n      dup3\n      0xffffffff\n      and\n      0xe0\n      shl\n      dup2\n      mstore\n      0x04\n      add\n      tag_290\n      swap2\n      swap1\n      tag_30\n      jump\t// in\n    tag_290:\n      0x20\n      mload(0x40)\n      dup1\n      dup4\n      sub\n      dup2\n      dup7\n      gas\n      staticcall\n      iszero\n      dup1\n      iszero\n      tag_292\n      jumpi\n      returndatasize\n      0x00\n      dup1\n      returndatacopy\n      revert(0x00, returndatasize)\n    tag_292:\n      pop\n      pop\n      pop\n      pop\n      mload(0x40)\n      returndatasize\n      not(0x1f)\n      0x1f\n      dup3\n      add\n      and\n      dup3\n      add\n      dup1\n      0x40\n      mstore\n      pop\n      dup2\n      add\n      swap1\n      tag_293\n      swap2\n      swap1\n      tag_220\n      jump\t// in\n    tag_293:\n        /* \"src/UserListByCR.sol\":13888:13893  _NICR */\n      dup5\n        /* \"src/UserListByCR.sol\":13888:13934  _NICR <= _troveManager.getNominalICR(_startId) */\n      gt\n      iszero\n        /* \"src/UserListByCR.sol\":13863:13934  data.tail == _startId && _NICR <= _troveManager.getNominalICR(_startId) */\n    tag_289:\n        /* \"src/UserListByCR.sol\":13859:13990  if (data.tail == _startId && _NICR <= _troveManager.getNominalICR(_startId)) {... */\n      iszero\n      tag_294\n      jumpi\n        /* \"src/UserListByCR.sol\":13958:13966  _startId */\n      dup3\n        /* \"src/UserListByCR.sol\":13976:13977  0 */\n      0x00\n        /* \"src/UserListByCR.sol\":13950:13979  return (_startId, address(0)) */\n      swap2\n      pop\n      swap2\n      pop\n      jump(tag_288)\n        /* \"src/UserListByCR.sol\":13859:13990  if (data.tail == _startId && _NICR <= _troveManager.getNominalICR(_startId)) {... */\n    tag_294:\n        /* \"src/UserListByCR.sol\":14000:14014  address nextId */\n      0x00\n        /* \"src/UserListByCR.sol\":14017:14025  _startId */\n      dup4\n        /* \"src/UserListByCR.sol\":14000:14025  address nextId = _startId */\n      swap1\n      pop\n        /* \"src/UserListByCR.sol\":14035:14049  address prevId */\n      0x00\n        /* \"src/UserListByCR.sol\":14052:14056  data */\n      0x03\n        /* \"src/UserListByCR.sol\":14052:14062  data.nodes */\n      0x04\n      add\n        /* \"src/UserListByCR.sol\":14052:14070  data.nodes[nextId] */\n      0x00\n        /* \"src/UserListByCR.sol\":14063:14069  nextId */\n      dup4\n        /* \"src/UserListByCR.sol\":14052:14070  data.nodes[nextId] */\n      0xffffffffffffffffffffffffffffffffffffffff\n      and\n      0xffffffffffffffffffffffffffffffffffffffff\n      and\n      dup2\n      mstore\n      0x20\n      add\n      swap1\n      dup2\n      mstore\n      0x20\n      add\n      0x00\n      keccak256\n        /* \"src/UserListByCR.sol\":14052:14077  data.nodes[nextId].prevId */\n      0x01\n      add\n      0x00\n      swap1\n      sload\n      swap1\n      0x0100\n      exp\n      swap1\n      div\n      0xffffffffffffffffffffffffffffffffffffffff\n      and\n        /* \"src/UserListByCR.sol\":14035:14077  address prevId = data.nodes[nextId].prevId */\n      swap1\n      pop\n        /* \"src/UserListByCR.sol\":14179:14378  while (nextId != address(0) && !_validInsertPosition(_troveManager, _NICR, prevId, nextId)) {... */\n    tag_295:\n        /* \"src/UserListByCR.sol\":14204:14205  0 */\n      0x00\n        /* \"src/UserListByCR.sol\":14186:14206  nextId != address(0) */\n      0xffffffffffffffffffffffffffffffffffffffff\n      and\n        /* \"src/UserListByCR.sol\":14186:14192  nextId */\n      dup3\n        /* \"src/UserListByCR.sol\":14186:14206  nextId != address(0) */\n      0xffffffffffffffffffffffffffffffffffffffff\n      and\n      eq\n      iszero\n        /* \"src/UserListByCR.sol\":14186:14269  nextId != address(0) && !_validInsertPosition(_troveManager, _NICR, prevId, nextId) */\n      dup1\n      iszero\n      tag_297\n      jumpi\n      pop\n        /* \"src/UserListByCR.sol\":14211:14269  _validInsertPosition(_troveManager, _NICR, prevId, nextId) */\n      tag_298\n        /* \"src/UserListByCR.sol\":14232:14245  _troveManager */\n      dup8\n        /* \"src/UserListByCR.sol\":14247:14252  _NICR */\n      dup8\n        /* \"src/UserListByCR.sol\":14254:14260  prevId */\n      dup4\n        /* \"src/UserListByCR.sol\":14262:14268  nextId */\n      dup6\n        /* \"src/UserListByCR.sol\":14211:14231  _validInsertPosition */\n      tag_126\n        /* \"src/UserListByCR.sol\":14211:14269  _validInsertPosition(_troveManager, _NICR, prevId, nextId) */\n      jump\t// in\n    tag_298:\n        /* \"src/UserListByCR.sol\":14210:14269  !_validInsertPosition(_troveManager, _NICR, prevId, nextId) */\n      iszero\n        /* \"src/UserListByCR.sol\":14186:14269  nextId != address(0) && !_validInsertPosition(_troveManager, _NICR, prevId, nextId) */\n    tag_297:\n        /* \"src/UserListByCR.sol\":14179:14378  while (nextId != address(0) && !_validInsertPosition(_troveManager, _NICR, prevId, nextId)) {... */\n      iszero\n      tag_296\n      jumpi\n        /* \"src/UserListByCR.sol\":14294:14298  data */\n      0x03\n        /* \"src/UserListByCR.sol\":14294:14304  data.nodes */\n      0x04\n      add\n        /* \"src/UserListByCR.sol\":14294:14312  data.nodes[nextId] */\n      0x00\n        /* \"src/UserListByCR.sol\":14305:14311  nextId */\n      dup4\n        /* \"src/UserListByCR.sol\":14294:14312  data.nodes[nextId] */\n      0xffffffffffffffffffffffffffffffffffffffff\n      and\n      0xffffffffffffffffffffffffffffffffffffffff\n      and\n      dup2\n      mstore\n      0x20\n      add\n      swap1\n      dup2\n      mstore\n      0x20\n      add\n      0x00\n      keccak256\n        /* \"src/UserListByCR.sol\":14294:14319  data.nodes[nextId].prevId */\n      0x01\n      add\n      0x00\n      swap1\n      sload\n      swap1\n      0x0100\n      exp\n      swap1\n      div\n      0xffffffffffffffffffffffffffffffffffffffff\n      and\n        /* \"src/UserListByCR.sol\":14285:14319  nextId = data.nodes[nextId].prevId */\n      swap2\n      pop\n        /* \"src/UserListByCR.sol\":14342:14346  data */\n      0x03\n        /* \"src/UserListByCR.sol\":14342:14352  data.nodes */\n      0x04\n      add\n        /* \"src/UserListByCR.sol\":14342:14360  data.nodes[nextId] */\n      0x00\n        /* \"src/UserListByCR.sol\":14353:14359  nextId */\n      dup4\n        /* \"src/UserListByCR.sol\":14342:14360  data.nodes[nextId] */\n      0xffffffffffffffffffffffffffffffffffffffff\n      and\n      0xffffffffffffffffffffffffffffffffffffffff\n      and\n      dup2\n      mstore\n      0x20\n      add\n      swap1\n      dup2\n      mstore\n      0x20\n      add\n      0x00\n      keccak256\n        /* \"src/UserListByCR.sol\":14342:14367  data.nodes[nextId].prevId */\n      0x01\n      add\n      0x00\n      swap1\n      sload\n      swap1\n      0x0100\n      exp\n      swap1\n      div\n      0xffffffffffffffffffffffffffffffffffffffff\n      and\n        /* \"src/UserListByCR.sol\":14333:14367  prevId = data.nodes[nextId].prevId */\n      swap1\n      pop\n        /* \"src/UserListByCR.sol\":14179:14378  while (nextId != address(0) && !_validInsertPosition(_troveManager, _NICR, prevId, nextId)) {... */\n      jump(tag_295)\n    tag_296:\n        /* \"src/UserListByCR.sol\":14396:14402  prevId */\n      dup1\n        /* \"src/UserListByCR.sol\":14404:14410  nextId */\n      dup3\n        /* \"src/UserListByCR.sol\":14388:14411  return (prevId, nextId) */\n      swap4\n      pop\n      swap4\n      pop\n      pop\n      pop\n        /* \"src/UserListByCR.sol\":13640:14418  function _ascendList(ITroveManager _troveManager, uint256 _NICR, address _startId) internal view returns (address, address) {... */\n    tag_288:\n      swap4\n      pop\n      swap4\n      swap2\n      pop\n      pop\n      jump\t// out\n        /* \"#utility.yul\":7:133   */\n    tag_299:\n        /* \"#utility.yul\":44:51   */\n      0x00\n        /* \"#utility.yul\":84:126   */\n      0xffffffffffffffffffffffffffffffffffffffff\n        /* \"#utility.yul\":77:82   */\n      dup3\n        /* \"#utility.yul\":73:127   */\n      and\n        /* \"#utility.yul\":62:127   */\n      swap1\n      pop\n        /* \"#utility.yul\":7:133   */\n      swap2\n      swap1\n      pop\n      jump\t// out\n        /* \"#utility.yul\":139:235   */\n    tag_300:\n        /* \"#utility.yul\":176:183   */\n      0x00\n        /* \"#utility.yul\":205:229   */\n      tag_350\n        /* \"#utility.yul\":223:228   */\n      dup3\n        /* \"#utility.yul\":205:229   */\n      tag_299\n      jump\t// in\n    tag_350:\n        /* \"#utility.yul\":194:229   */\n      swap1\n      pop\n        /* \"#utility.yul\":139:235   */\n      swap2\n      swap1\n      pop\n      jump\t// out\n        /* \"#utility.yul\":241:359   */\n    tag_301:\n        /* \"#utility.yul\":328:352   */\n      tag_352\n        /* \"#utility.yul\":346:351   */\n      dup2\n        /* \"#utility.yul\":328:352   */\n      tag_300\n      jump\t// in\n    tag_352:\n        /* \"#utility.yul\":323:326   */\n      dup3\n        /* \"#utility.yul\":316:353   */\n      mstore\n        /* \"#utility.yul\":241:359   */\n      pop\n      pop\n      jump\t// out\n        /* \"#utility.yul\":365:587   */\n    tag_30:\n        /* \"#utility.yul\":458:462   */\n      0x00\n        /* \"#utility.yul\":496:498   */\n      0x20\n        /* \"#utility.yul\":485:494   */\n      dup3\n        /* \"#utility.yul\":481:499   */\n      add\n        /* \"#utility.yul\":473:499   */\n      swap1\n      pop\n        /* \"#utility.yul\":509:580   */\n      tag_354\n        /* \"#utility.yul\":577:578   */\n      0x00\n        /* \"#utility.yul\":566:575   */\n      dup4\n        /* \"#utility.yul\":562:579   */\n      add\n        /* \"#utility.yul\":553:559   */\n      dup5\n        /* \"#utility.yul\":509:580   */\n      tag_301\n      jump\t// in\n    tag_354:\n        /* \"#utility.yul\":365:587   */\n      swap3\n      swap2\n      pop\n      pop\n      jump\t// out\n        /* \"#utility.yul\":674:791   */\n    tag_303:\n        /* \"#utility.yul\":783:784   */\n      0x00\n        /* \"#utility.yul\":780:781   */\n      dup1\n        /* \"#utility.yul\":773:785   */\n      revert\n        /* \"#utility.yul\":920:1042   */\n    tag_305:\n        /* \"#utility.yul\":993:1017   */\n      tag_359\n        /* \"#utility.yul\":1011:1016   */\n      dup2\n        /* \"#utility.yul\":993:1017   */\n      tag_300\n      jump\t// in\n    tag_359:\n        /* \"#utility.yul\":986:991   */\n      dup2\n        /* \"#utility.yul\":983:1018   */\n      eq\n        /* \"#utility.yul\":973:1036   */\n      tag_360\n      jumpi\n        /* \"#utility.yul\":1032:1033   */\n      0x00\n        /* \"#utility.yul\":1029:1030   */\n      dup1\n        /* \"#utility.yul\":1022:1034   */\n      revert\n        /* \"#utility.yul\":973:1036   */\n    tag_360:\n        /* \"#utility.yul\":920:1042   */\n      pop\n      jump\t// out\n        /* \"#utility.yul\":1048:1187   */\n    tag_306:\n        /* \"#utility.yul\":1094:1099   */\n      0x00\n        /* \"#utility.yul\":1132:1138   */\n      dup2\n        /* \"#utility.yul\":1119:1139   */\n      calldataload\n        /* \"#utility.yul\":1110:1139   */\n      swap1\n      pop\n        /* \"#utility.yul\":1148:1181   */\n      tag_362\n        /* \"#utility.yul\":1175:1180   */\n      dup2\n        /* \"#utility.yul\":1148:1181   */\n      tag_305\n      jump\t// in\n    tag_362:\n        /* \"#utility.yul\":1048:1187   */\n      swap3\n      swap2\n      pop\n      pop\n      jump\t// out\n        /* \"#utility.yul\":1193:1522   */\n    tag_33:\n        /* \"#utility.yul\":1252:1258   */\n      0x00\n        /* \"#utility.yul\":1301:1303   */\n      0x20\n        /* \"#utility.yul\":1289:1298   */\n      dup3\n        /* \"#utility.yul\":1280:1287   */\n      dup5\n        /* \"#utility.yul\":1276:1299   */\n      sub\n        /* \"#utility.yul\":1272:1304   */\n      slt\n        /* \"#utility.yul\":1269:1388   */\n      iszero\n      tag_364\n      jumpi\n        /* \"#utility.yul\":1307:1386   */\n      tag_365\n      tag_303\n      jump\t// in\n    tag_365:\n        /* \"#utility.yul\":1269:1388   */\n    tag_364:\n        /* \"#utility.yul\":1427:1428   */\n      0x00\n        /* \"#utility.yul\":1452:1505   */\n      tag_366\n        /* \"#utility.yul\":1497:1504   */\n      dup5\n        /* \"#utility.yul\":1488:1494   */\n      dup3\n        /* \"#utility.yul\":1477:1486   */\n      dup6\n        /* \"#utility.yul\":1473:1495   */\n      add\n        /* \"#utility.yul\":1452:1505   */\n      tag_306\n      jump\t// in\n    tag_366:\n        /* \"#utility.yul\":1442:1505   */\n      swap2\n      pop\n        /* \"#utility.yul\":1398:1515   */\n      pop\n        /* \"#utility.yul\":1193:1522   */\n      swap3\n      swap2\n      pop\n      pop\n      jump\t// out\n        /* \"#utility.yul\":1528:1605   */\n    tag_307:\n        /* \"#utility.yul\":1565:1572   */\n      0x00\n        /* \"#utility.yul\":1594:1599   */\n      dup2\n        /* \"#utility.yul\":1583:1599   */\n      swap1\n      pop\n        /* \"#utility.yul\":1528:1605   */\n      swap2\n      swap1\n      pop\n      jump\t// out\n        /* \"#utility.yul\":1611:1733   */\n    tag_308:\n        /* \"#utility.yul\":1684:1708   */\n      tag_369\n        /* \"#utility.yul\":1702:1707   */\n      dup2\n        /* \"#utility.yul\":1684:1708   */\n      tag_307\n      jump\t// in\n    tag_369:\n        /* \"#utility.yul\":1677:1682   */\n      dup2\n        /* \"#utility.yul\":1674:1709   */\n      eq\n        /* \"#utility.yul\":1664:1727   */\n      tag_370\n      jumpi\n        /* \"#utility.yul\":1723:1724   */\n      0x00\n        /* \"#utility.yul\":1720:1721   */\n      dup1\n        /* \"#utility.yul\":1713:1725   */\n      revert\n        /* \"#utility.yul\":1664:1727   */\n    tag_370:\n        /* \"#utility.yul\":1611:1733   */\n      pop\n      jump\t// out\n        /* \"#utility.yul\":1739:1878   */\n    tag_309:\n        /* \"#utility.yul\":1785:1790   */\n      0x00\n        /* \"#utility.yul\":1823:1829   */\n      dup2\n        /* \"#utility.yul\":1810:1830   */\n      calldataload\n        /* \"#utility.yul\":1801:1830   */\n      swap1\n      pop\n        /* \"#utility.yul\":1839:1872   */\n      tag_372\n        /* \"#utility.yul\":1866:1871   */\n      dup2\n        /* \"#utility.yul\":1839:1872   */\n      tag_308\n      jump\t// in\n    tag_372:\n        /* \"#utility.yul\":1739:1878   */\n      swap3\n      swap2\n      pop\n      pop\n      jump\t// out\n        /* \"#utility.yul\":1884:2649   */\n    tag_37:\n        /* \"#utility.yul\":1970:1976   */\n      0x00\n        /* \"#utility.yul\":1978:1984   */\n      dup1\n        /* \"#utility.yul\":1986:1992   */\n      0x00\n        /* \"#utility.yul\":1994:2000   */\n      dup1\n        /* \"#utility.yul\":2043:2046   */\n      0x80\n        /* \"#utility.yul\":2031:2040   */\n      dup6\n        /* \"#utility.yul\":2022:2029   */\n      dup8\n        /* \"#utility.yul\":2018:2041   */\n      sub\n        /* \"#utility.yul\":2014:2047   */\n      slt\n        /* \"#utility.yul\":2011:2131   */\n      iszero\n      tag_374\n      jumpi\n        /* \"#utility.yul\":2050:2129   */\n      tag_375\n      tag_303\n      jump\t// in\n    tag_375:\n        /* \"#utility.yul\":2011:2131   */\n    tag_374:\n        /* \"#utility.yul\":2170:2171   */\n      0x00\n        /* \"#utility.yul\":2195:2248   */\n      tag_376\n        /* \"#utility.yul\":2240:2247   */\n      dup8\n        /* \"#utility.yul\":2231:2237   */\n      dup3\n        /* \"#utility.yul\":2220:2229   */\n      dup9\n        /* \"#utility.yul\":2216:2238   */\n      add\n        /* \"#utility.yul\":2195:2248   */\n      tag_306\n      jump\t// in\n    tag_376:\n        /* \"#utility.yul\":2185:2248   */\n      swap5\n      pop\n        /* \"#utility.yul\":2141:2258   */\n      pop\n        /* \"#utility.yul\":2297:2299   */\n      0x20\n        /* \"#utility.yul\":2323:2376   */\n      tag_377\n        /* \"#utility.yul\":2368:2375   */\n      dup8\n        /* \"#utility.yul\":2359:2365   */\n      dup3\n        /* \"#utility.yul\":2348:2357   */\n      dup9\n        /* \"#utility.yul\":2344:2366   */\n      add\n        /* \"#utility.yul\":2323:2376   */\n      tag_309\n      jump\t// in\n    tag_377:\n        /* \"#utility.yul\":2313:2376   */\n      swap4\n      pop\n        /* \"#utility.yul\":2268:2386   */\n      pop\n        /* \"#utility.yul\":2425:2427   */\n      0x40\n        /* \"#utility.yul\":2451:2504   */\n      tag_378\n        /* \"#utility.yul\":2496:2503   */\n      dup8\n        /* \"#utility.yul\":2487:2493   */\n      dup3\n        /* \"#utility.yul\":2476:2485   */\n      dup9\n        /* \"#utility.yul\":2472:2494   */\n      add\n        /* \"#utility.yul\":2451:2504   */\n      tag_306\n      jump\t// in\n    tag_378:\n        /* \"#utility.yul\":2441:2504   */\n      swap3\n      pop\n        /* \"#utility.yul\":2396:2514   */\n      pop\n        /* \"#utility.yul\":2553:2555   */\n      0x60\n        /* \"#utility.yul\":2579:2632   */\n      tag_379\n        /* \"#utility.yul\":2624:2631   */\n      dup8\n        /* \"#utility.yul\":2615:2621   */\n      dup3\n        /* \"#utility.yul\":2604:2613   */\n      dup9\n        /* \"#utility.yul\":2600:2622   */\n      add\n        /* \"#utility.yul\":2579:2632   */\n      tag_306\n      jump\t// in\n    tag_379:\n        /* \"#utility.yul\":2569:2632   */\n      swap2\n      pop\n        /* \"#utility.yul\":2524:2642   */\n      pop\n        /* \"#utility.yul\":1884:2649   */\n      swap3\n      swap6\n      swap2\n      swap5\n      pop\n      swap3\n      pop\n      jump\t// out\n        /* \"#utility.yul\":2655:2715   */\n    tag_310:\n        /* \"#utility.yul\":2683:2686   */\n      0x00\n        /* \"#utility.yul\":2704:2709   */\n      dup2\n        /* \"#utility.yul\":2697:2709   */\n      swap1\n      pop\n        /* \"#utility.yul\":2655:2715   */\n      swap2\n      swap1\n      pop\n      jump\t// out\n        /* \"#utility.yul\":2721:2863   */\n    tag_311:\n        /* \"#utility.yul\":2771:2780   */\n      0x00\n        /* \"#utility.yul\":2804:2857   */\n      tag_382\n        /* \"#utility.yul\":2822:2856   */\n      tag_383\n        /* \"#utility.yul\":2831:2855   */\n      tag_384\n        /* \"#utility.yul\":2849:2854   */\n      dup5\n        /* \"#utility.yul\":2831:2855   */\n      tag_299\n      jump\t// in\n    tag_384:\n        /* \"#utility.yul\":2822:2856   */\n      tag_310\n      jump\t// in\n    tag_383:\n        /* \"#utility.yul\":2804:2857   */\n      tag_299\n      jump\t// in\n    tag_382:\n        /* \"#utility.yul\":2791:2857   */\n      swap1\n      pop\n        /* \"#utility.yul\":2721:2863   */\n      swap2\n      swap1\n      pop\n      jump\t// out\n        /* \"#utility.yul\":2869:2995   */\n    tag_312:\n        /* \"#utility.yul\":2919:2928   */\n      0x00\n        /* \"#utility.yul\":2952:2989   */\n      tag_386\n        /* \"#utility.yul\":2983:2988   */\n      dup3\n        /* \"#utility.yul\":2952:2989   */\n      tag_311\n      jump\t// in\n    tag_386:\n        /* \"#utility.yul\":2939:2989   */\n      swap1\n      pop\n        /* \"#utility.yul\":2869:2995   */\n      swap2\n      swap1\n      pop\n      jump\t// out\n        /* \"#utility.yul\":3001:3149   */\n    tag_313:\n        /* \"#utility.yul\":3073:3082   */\n      0x00\n        /* \"#utility.yul\":3106:3143   */\n      tag_388\n        /* \"#utility.yul\":3137:3142   */\n      dup3\n        /* \"#utility.yul\":3106:3143   */\n      tag_312\n      jump\t// in\n    tag_388:\n        /* \"#utility.yul\":3093:3143   */\n      swap1\n      pop\n        /* \"#utility.yul\":3001:3149   */\n      swap2\n      swap1\n      pop\n      jump\t// out\n        /* \"#utility.yul\":3155:3330   */\n    tag_314:\n        /* \"#utility.yul\":3264:3323   */\n      tag_390\n        /* \"#utility.yul\":3317:3322   */\n      dup2\n        /* \"#utility.yul\":3264:3323   */\n      tag_313\n      jump\t// in\n    tag_390:\n        /* \"#utility.yul\":3259:3262   */\n      dup3\n        /* \"#utility.yul\":3252:3324   */\n      mstore\n        /* \"#utility.yul\":3155:3330   */\n      pop\n      pop\n      jump\t// out\n        /* \"#utility.yul\":3336:3602   */\n    tag_42:\n        /* \"#utility.yul\":3451:3455   */\n      0x00\n        /* \"#utility.yul\":3489:3491   */\n      0x20\n        /* \"#utility.yul\":3478:3487   */\n      dup3\n        /* \"#utility.yul\":3474:3492   */\n      add\n        /* \"#utility.yul\":3466:3492   */\n      swap1\n      pop\n        /* \"#utility.yul\":3502:3595   */\n      tag_392\n        /* \"#utility.yul\":3592:3593   */\n      0x00\n        /* \"#utility.yul\":3581:3590   */\n      dup4\n        /* \"#utility.yul\":3577:3594   */\n      add\n        /* \"#utility.yul\":3568:3574   */\n      dup5\n        /* \"#utility.yul\":3502:3595   */\n      tag_314\n      jump\t// in\n    tag_392:\n        /* \"#utility.yul\":3336:3602   */\n      swap3\n      swap2\n      pop\n      pop\n      jump\t// out\n        /* \"#utility.yul\":3608:4227   */\n    tag_45:\n        /* \"#utility.yul\":3685:3691   */\n      0x00\n        /* \"#utility.yul\":3693:3699   */\n      dup1\n        /* \"#utility.yul\":3701:3707   */\n      0x00\n        /* \"#utility.yul\":3750:3752   */\n      0x60\n        /* \"#utility.yul\":3738:3747   */\n      dup5\n        /* \"#utility.yul\":3729:3736   */\n      dup7\n        /* \"#utility.yul\":3725:3748   */\n      sub\n        /* \"#utility.yul\":3721:3753   */\n      slt\n        /* \"#utility.yul\":3718:3837   */\n      iszero\n      tag_394\n      jumpi\n        /* \"#utility.yul\":3756:3835   */\n      tag_395\n      tag_303\n      jump\t// in\n    tag_395:\n        /* \"#utility.yul\":3718:3837   */\n    tag_394:\n        /* \"#utility.yul\":3876:3877   */\n      0x00\n        /* \"#utility.yul\":3901:3954   */\n      tag_396\n        /* \"#utility.yul\":3946:3953   */\n      dup7\n        /* \"#utility.yul\":3937:3943   */\n      dup3\n        /* \"#utility.yul\":3926:3935   */\n      dup8\n        /* \"#utility.yul\":3922:3944   */\n      add\n        /* \"#utility.yul\":3901:3954   */\n      tag_309\n      jump\t// in\n    tag_396:\n        /* \"#utility.yul\":3891:3954   */\n      swap4\n      pop\n        /* \"#utility.yul\":3847:3964   */\n      pop\n        /* \"#utility.yul\":4003:4005   */\n      0x20\n        /* \"#utility.yul\":4029:4082   */\n      tag_397\n        /* \"#utility.yul\":4074:4081   */\n      dup7\n        /* \"#utility.yul\":4065:4071   */\n      dup3\n        /* \"#utility.yul\":4054:4063   */\n      dup8\n        /* \"#utility.yul\":4050:4072   */\n      add\n        /* \"#utility.yul\":4029:4082   */\n      tag_306\n      jump\t// in\n    tag_397:\n        /* \"#utility.yul\":4019:4082   */\n      swap3\n      pop\n        /* \"#utility.yul\":3974:4092   */\n      pop\n        /* \"#utility.yul\":4131:4133   */\n      0x40\n        /* \"#utility.yul\":4157:4210   */\n      tag_398\n        /* \"#utility.yul\":4202:4209   */\n      dup7\n        /* \"#utility.yul\":4193:4199   */\n      dup3\n        /* \"#utility.yul\":4182:4191   */\n      dup8\n        /* \"#utility.yul\":4178:4200   */\n      add\n        /* \"#utility.yul\":4157:4210   */\n      tag_306\n      jump\t// in\n    tag_398:\n        /* \"#utility.yul\":4147:4210   */\n      swap2\n      pop\n        /* \"#utility.yul\":4102:4220   */\n      pop\n        /* \"#utility.yul\":3608:4227   */\n      swap3\n      pop\n      swap3\n      pop\n      swap3\n      jump\t// out\n        /* \"#utility.yul\":4233:4323   */\n    tag_315:\n        /* \"#utility.yul\":4267:4274   */\n      0x00\n        /* \"#utility.yul\":4310:4315   */\n      dup2\n        /* \"#utility.yul\":4303:4316   */\n      iszero\n        /* \"#utility.yul\":4296:4317   */\n      iszero\n        /* \"#utility.yul\":4285:4317   */\n      swap1\n      pop\n        /* \"#utility.yul\":4233:4323   */\n      swap2\n      swap1\n      pop\n      jump\t// out\n        /* \"#utility.yul\":4329:4438   */\n    tag_316:\n        /* \"#utility.yul\":4410:4431   */\n      tag_401\n        /* \"#utility.yul\":4425:4430   */\n      dup2\n        /* \"#utility.yul\":4410:4431   */\n      tag_315\n      jump\t// in\n    tag_401:\n        /* \"#utility.yul\":4405:4408   */\n      dup3\n        /* \"#utility.yul\":4398:4432   */\n      mstore\n        /* \"#utility.yul\":4329:4438   */\n      pop\n      pop\n      jump\t// out\n        /* \"#utility.yul\":4444:4654   */\n    tag_48:\n        /* \"#utility.yul\":4531:4535   */\n      0x00\n        /* \"#utility.yul\":4569:4571   */\n      0x20\n        /* \"#utility.yul\":4558:4567   */\n      dup3\n        /* \"#utility.yul\":4554:4572   */\n      add\n        /* \"#utility.yul\":4546:4572   */\n      swap1\n      pop\n        /* \"#utility.yul\":4582:4647   */\n      tag_403\n        /* \"#utility.yul\":4644:4645   */\n      0x00\n        /* \"#utility.yul\":4633:4642   */\n      dup4\n        /* \"#utility.yul\":4629:4646   */\n      add\n        /* \"#utility.yul\":4620:4626   */\n      dup5\n        /* \"#utility.yul\":4582:4647   */\n      tag_316\n      jump\t// in\n    tag_403:\n        /* \"#utility.yul\":4444:4654   */\n      swap3\n      swap2\n      pop\n      pop\n      jump\t// out\n        /* \"#utility.yul\":4660:4992   */\n    tag_53:\n        /* \"#utility.yul\":4781:4785   */\n      0x00\n        /* \"#utility.yul\":4819:4821   */\n      0x40\n        /* \"#utility.yul\":4808:4817   */\n      dup3\n        /* \"#utility.yul\":4804:4822   */\n      add\n        /* \"#utility.yul\":4796:4822   */\n      swap1\n      pop\n        /* \"#utility.yul\":4832:4903   */\n      tag_405\n        /* \"#utility.yul\":4900:4901   */\n      0x00\n        /* \"#utility.yul\":4889:4898   */\n      dup4\n        /* \"#utility.yul\":4885:4902   */\n      add\n        /* \"#utility.yul\":4876:4882   */\n      dup6\n        /* \"#utility.yul\":4832:4903   */\n      tag_301\n      jump\t// in\n    tag_405:\n        /* \"#utility.yul\":4913:4985   */\n      tag_406\n        /* \"#utility.yul\":4981:4983   */\n      0x20\n        /* \"#utility.yul\":4970:4979   */\n      dup4\n        /* \"#utility.yul\":4966:4984   */\n      add\n        /* \"#utility.yul\":4957:4963   */\n      dup5\n        /* \"#utility.yul\":4913:4985   */\n      tag_301\n      jump\t// in\n    tag_406:\n        /* \"#utility.yul\":4660:4992   */\n      swap4\n      swap3\n      pop\n      pop\n      pop\n      jump\t// out\n        /* \"#utility.yul\":4998:5116   */\n    tag_317:\n        /* \"#utility.yul\":5085:5109   */\n      tag_408\n        /* \"#utility.yul\":5103:5108   */\n      dup2\n        /* \"#utility.yul\":5085:5109   */\n      tag_307\n      jump\t// in\n    tag_408:\n        /* \"#utility.yul\":5080:5083   */\n      dup3\n        /* \"#utility.yul\":5073:5110   */\n      mstore\n        /* \"#utility.yul\":4998:5116   */\n      pop\n      pop\n      jump\t// out\n        /* \"#utility.yul\":5122:5344   */\n    tag_67:\n        /* \"#utility.yul\":5215:5219   */\n      0x00\n        /* \"#utility.yul\":5253:5255   */\n      0x20\n        /* \"#utility.yul\":5242:5251   */\n      dup3\n        /* \"#utility.yul\":5238:5256   */\n      add\n        /* \"#utility.yul\":5230:5256   */\n      swap1\n      pop\n        /* \"#utility.yul\":5266:5337   */\n      tag_410\n        /* \"#utility.yul\":5334:5335   */\n      0x00\n        /* \"#utility.yul\":5323:5332   */\n      dup4\n        /* \"#utility.yul\":5319:5336   */\n      add\n        /* \"#utility.yul\":5310:5316   */\n      dup5\n        /* \"#utility.yul\":5266:5337   */\n      tag_317\n      jump\t// in\n    tag_410:\n        /* \"#utility.yul\":5122:5344   */\n      swap3\n      swap2\n      pop\n      pop\n      jump\t// out\n        /* \"#utility.yul\":5350:5903   */\n    tag_74:\n        /* \"#utility.yul\":5527:5531   */\n      0x00\n        /* \"#utility.yul\":5565:5568   */\n      0x80\n        /* \"#utility.yul\":5554:5563   */\n      dup3\n        /* \"#utility.yul\":5550:5569   */\n      add\n        /* \"#utility.yul\":5542:5569   */\n      swap1\n      pop\n        /* \"#utility.yul\":5579:5650   */\n      tag_412\n        /* \"#utility.yul\":5647:5648   */\n      0x00\n        /* \"#utility.yul\":5636:5645   */\n      dup4\n        /* \"#utility.yul\":5632:5649   */\n      add\n        /* \"#utility.yul\":5623:5629   */\n      dup8\n        /* \"#utility.yul\":5579:5650   */\n      tag_301\n      jump\t// in\n    tag_412:\n        /* \"#utility.yul\":5660:5732   */\n      tag_413\n        /* \"#utility.yul\":5728:5730   */\n      0x20\n        /* \"#utility.yul\":5717:5726   */\n      dup4\n        /* \"#utility.yul\":5713:5731   */\n      add\n        /* \"#utility.yul\":5704:5710   */\n      dup7\n        /* \"#utility.yul\":5660:5732   */\n      tag_301\n      jump\t// in\n    tag_413:\n        /* \"#utility.yul\":5742:5814   */\n      tag_414\n        /* \"#utility.yul\":5810:5812   */\n      0x40\n        /* \"#utility.yul\":5799:5808   */\n      dup4\n        /* \"#utility.yul\":5795:5813   */\n      add\n        /* \"#utility.yul\":5786:5792   */\n      dup6\n        /* \"#utility.yul\":5742:5814   */\n      tag_317\n      jump\t// in\n    tag_414:\n        /* \"#utility.yul\":5824:5896   */\n      tag_415\n        /* \"#utility.yul\":5892:5894   */\n      0x60\n        /* \"#utility.yul\":5881:5890   */\n      dup4\n        /* \"#utility.yul\":5877:5895   */\n      add\n        /* \"#utility.yul\":5868:5874   */\n      dup5\n        /* \"#utility.yul\":5824:5896   */\n      tag_317\n      jump\t// in\n    tag_415:\n        /* \"#utility.yul\":5350:5903   */\n      swap6\n      swap5\n      pop\n      pop\n      pop\n      pop\n      pop\n      jump\t// out\n        /* \"#utility.yul\":5909:6008   */\n    tag_318:\n        /* \"#utility.yul\":5961:5967   */\n      0x00\n        /* \"#utility.yul\":5995:6000   */\n      dup2\n        /* \"#utility.yul\":5989:6001   */\n      mload\n        /* \"#utility.yul\":5979:6001   */\n      swap1\n      pop\n        /* \"#utility.yul\":5909:6008   */\n      swap2\n      swap1\n      pop\n      jump\t// out\n        /* \"#utility.yul\":6014:6183   */\n    tag_319:\n        /* \"#utility.yul\":6098:6109   */\n      0x00\n        /* \"#utility.yul\":6132:6138   */\n      dup3\n        /* \"#utility.yul\":6127:6130   */\n      dup3\n        /* \"#utility.yul\":6120:6139   */\n      mstore\n        /* \"#utility.yul\":6172:6176   */\n      0x20\n        /* \"#utility.yul\":6167:6170   */\n      dup3\n        /* \"#utility.yul\":6163:6177   */\n      add\n        /* \"#utility.yul\":6148:6177   */\n      swap1\n      pop\n        /* \"#utility.yul\":6014:6183   */\n      swap3\n      swap2\n      pop\n      pop\n      jump\t// out\n        /* \"#utility.yul\":6189:6496   */\n    tag_320:\n        /* \"#utility.yul\":6257:6258   */\n      0x00\n        /* \"#utility.yul\":6267:6380   */\n    tag_419:\n        /* \"#utility.yul\":6281:6287   */\n      dup4\n        /* \"#utility.yul\":6278:6279   */\n      dup2\n        /* \"#utility.yul\":6275:6288   */\n      lt\n        /* \"#utility.yul\":6267:6380   */\n      iszero\n      tag_421\n      jumpi\n        /* \"#utility.yul\":6366:6367   */\n      dup1\n        /* \"#utility.yul\":6361:6364   */\n      dup3\n        /* \"#utility.yul\":6357:6368   */\n      add\n        /* \"#utility.yul\":6351:6369   */\n      mload\n        /* \"#utility.yul\":6347:6348   */\n      dup2\n        /* \"#utility.yul\":6342:6345   */\n      dup5\n        /* \"#utility.yul\":6338:6349   */\n      add\n        /* \"#utility.yul\":6331:6370   */\n      mstore\n        /* \"#utility.yul\":6303:6305   */\n      0x20\n        /* \"#utility.yul\":6300:6301   */\n      dup2\n        /* \"#utility.yul\":6296:6306   */\n      add\n        /* \"#utility.yul\":6291:6306   */\n      swap1\n      pop\n        /* \"#utility.yul\":6267:6380   */\n      jump(tag_419)\n    tag_421:\n        /* \"#utility.yul\":6398:6404   */\n      dup4\n        /* \"#utility.yul\":6395:6396   */\n      dup2\n        /* \"#utility.yul\":6392:6405   */\n      gt\n        /* \"#utility.yul\":6389:6490   */\n      iszero\n      tag_422\n      jumpi\n        /* \"#utility.yul\":6478:6479   */\n      0x00\n        /* \"#utility.yul\":6469:6475   */\n      dup5\n        /* \"#utility.yul\":6464:6467   */\n      dup5\n        /* \"#utility.yul\":6460:6476   */\n      add\n        /* \"#utility.yul\":6453:6480   */\n      mstore\n        /* \"#utility.yul\":6389:6490   */\n    tag_422:\n        /* \"#utility.yul\":6238:6496   */\n      pop\n        /* \"#utility.yul\":6189:6496   */\n      pop\n      pop\n      pop\n      jump\t// out\n        /* \"#utility.yul\":6502:6604   */\n    tag_321:\n        /* \"#utility.yul\":6543:6549   */\n      0x00\n        /* \"#utility.yul\":6594:6596   */\n      0x1f\n        /* \"#utility.yul\":6590:6597   */\n      not\n        /* \"#utility.yul\":6585:6587   */\n      0x1f\n        /* \"#utility.yul\":6578:6583   */\n      dup4\n        /* \"#utility.yul\":6574:6588   */\n      add\n        /* \"#utility.yul\":6570:6598   */\n      and\n        /* \"#utility.yul\":6560:6598   */\n      swap1\n      pop\n        /* \"#utility.yul\":6502:6604   */\n      swap2\n      swap1\n      pop\n      jump\t// out\n        /* \"#utility.yul\":6610:6974   */\n    tag_322:\n        /* \"#utility.yul\":6698:6701   */\n      0x00\n        /* \"#utility.yul\":6726:6765   */\n      tag_425\n        /* \"#utility.yul\":6759:6764   */\n      dup3\n        /* \"#utility.yul\":6726:6765   */\n      tag_318\n      jump\t// in\n    tag_425:\n        /* \"#utility.yul\":6781:6852   */\n      tag_426\n        /* \"#utility.yul\":6845:6851   */\n      dup2\n        /* \"#utility.yul\":6840:6843   */\n      dup6\n        /* \"#utility.yul\":6781:6852   */\n      tag_319\n      jump\t// in\n    tag_426:\n        /* \"#utility.yul\":6774:6852   */\n      swap4\n      pop\n        /* \"#utility.yul\":6861:6913   */\n      tag_427\n        /* \"#utility.yul\":6906:6912   */\n      dup2\n        /* \"#utility.yul\":6901:6904   */\n      dup6\n        /* \"#utility.yul\":6894:6898   */\n      0x20\n        /* \"#utility.yul\":6887:6892   */\n      dup7\n        /* \"#utility.yul\":6883:6899   */\n      add\n        /* \"#utility.yul\":6861:6913   */\n      tag_320\n      jump\t// in\n    tag_427:\n        /* \"#utility.yul\":6938:6967   */\n      tag_428\n        /* \"#utility.yul\":6960:6966   */\n      dup2\n        /* \"#utility.yul\":6938:6967   */\n      tag_321\n      jump\t// in\n    tag_428:\n        /* \"#utility.yul\":6933:6936   */\n      dup5\n        /* \"#utility.yul\":6929:6968   */\n      add\n        /* \"#utility.yul\":6922:6968   */\n      swap2\n      pop\n        /* \"#utility.yul\":6702:6974   */\n      pop\n        /* \"#utility.yul\":6610:6974   */\n      swap3\n      swap2\n      pop\n      pop\n      jump\t// out\n        /* \"#utility.yul\":6980:7293   */\n    tag_88:\n        /* \"#utility.yul\":7093:7097   */\n      0x00\n        /* \"#utility.yul\":7131:7133   */\n      0x20\n        /* \"#utility.yul\":7120:7129   */\n      dup3\n        /* \"#utility.yul\":7116:7134   */\n      add\n        /* \"#utility.yul\":7108:7134   */\n      swap1\n      pop\n        /* \"#utility.yul\":7180:7189   */\n      dup2\n        /* \"#utility.yul\":7174:7178   */\n      dup2\n        /* \"#utility.yul\":7170:7190   */\n      sub\n        /* \"#utility.yul\":7166:7167   */\n      0x00\n        /* \"#utility.yul\":7155:7164   */\n      dup4\n        /* \"#utility.yul\":7151:7168   */\n      add\n        /* \"#utility.yul\":7144:7191   */\n      mstore\n        /* \"#utility.yul\":7208:7286   */\n      tag_430\n        /* \"#utility.yul\":7281:7285   */\n      dup2\n        /* \"#utility.yul\":7272:7278   */\n      dup5\n        /* \"#utility.yul\":7208:7286   */\n      tag_322\n      jump\t// in\n    tag_430:\n        /* \"#utility.yul\":7200:7286   */\n      swap1\n      pop\n        /* \"#utility.yul\":6980:7293   */\n      swap3\n      swap2\n      pop\n      pop\n      jump\t// out\n        /* \"#utility.yul\":7299:7528   */\n    tag_323:\n        /* \"#utility.yul\":7439:7473   */\n      0x536f7274656454726f7665733a204c69737420646f6573206e6f7420636f6e74\n        /* \"#utility.yul\":7435:7436   */\n      0x00\n        /* \"#utility.yul\":7427:7433   */\n      dup3\n        /* \"#utility.yul\":7423:7437   */\n      add\n        /* \"#utility.yul\":7416:7474   */\n      mstore\n        /* \"#utility.yul\":7508:7520   */\n      0x61696e2074686520696400000000000000000000000000000000000000000000\n        /* \"#utility.yul\":7503:7505   */\n      0x20\n        /* \"#utility.yul\":7495:7501   */\n      dup3\n        /* \"#utility.yul\":7491:7506   */\n      add\n        /* \"#utility.yul\":7484:7521   */\n      mstore\n        /* \"#utility.yul\":7299:7528   */\n      pop\n      jump\t// out\n        /* \"#utility.yul\":7534:7900   */\n    tag_324:\n        /* \"#utility.yul\":7676:7679   */\n      0x00\n        /* \"#utility.yul\":7697:7764   */\n      tag_433\n        /* \"#utility.yul\":7761:7763   */\n      0x2a\n        /* \"#utility.yul\":7756:7759   */\n      dup4\n        /* \"#utility.yul\":7697:7764   */\n      tag_319\n      jump\t// in\n    tag_433:\n        /* \"#utility.yul\":7690:7764   */\n      swap2\n      pop\n        /* \"#utility.yul\":7773:7866   */\n      tag_434\n        /* \"#utility.yul\":7862:7865   */\n      dup3\n        /* \"#utility.yul\":7773:7866   */\n      tag_323\n      jump\t// in\n    tag_434:\n        /* \"#utility.yul\":7891:7893   */\n      0x40\n        /* \"#utility.yul\":7886:7889   */\n      dup3\n        /* \"#utility.yul\":7882:7894   */\n      add\n        /* \"#utility.yul\":7875:7894   */\n      swap1\n      pop\n        /* \"#utility.yul\":7534:7900   */\n      swap2\n      swap1\n      pop\n      jump\t// out\n        /* \"#utility.yul\":7906:8325   */\n    tag_117:\n        /* \"#utility.yul\":8072:8076   */\n      0x00\n        /* \"#utility.yul\":8110:8112   */\n      0x20\n        /* \"#utility.yul\":8099:8108   */\n      dup3\n        /* \"#utility.yul\":8095:8113   */\n      add\n        /* \"#utility.yul\":8087:8113   */\n      swap1\n      pop\n        /* \"#utility.yul\":8159:8168   */\n      dup2\n        /* \"#utility.yul\":8153:8157   */\n      dup2\n        /* \"#utility.yul\":8149:8169   */\n      sub\n        /* \"#utility.yul\":8145:8146   */\n      0x00\n        /* \"#utility.yul\":8134:8143   */\n      dup4\n        /* \"#utility.yul\":8130:8147   */\n      add\n        /* \"#utility.yul\":8123:8170   */\n      mstore\n        /* \"#utility.yul\":8187:8318   */\n      tag_436\n        /* \"#utility.yul\":8313:8317   */\n      dup2\n        /* \"#utility.yul\":8187:8318   */\n      tag_324\n      jump\t// in\n    tag_436:\n        /* \"#utility.yul\":8179:8318   */\n      swap1\n      pop\n        /* \"#utility.yul\":7906:8325   */\n      swap2\n      swap1\n      pop\n      jump\t// out\n        /* \"#utility.yul\":8331:8553   */\n    tag_325:\n        /* \"#utility.yul\":8471:8505   */\n      0x536f7274656454726f7665733a204e494352206d75737420626520706f736974\n        /* \"#utility.yul\":8467:8468   */\n      0x00\n        /* \"#utility.yul\":8459:8465   */\n      dup3\n        /* \"#utility.yul\":8455:8469   */\n      add\n        /* \"#utility.yul\":8448:8506   */\n      mstore\n        /* \"#utility.yul\":8540:8545   */\n      0x6976650000000000000000000000000000000000000000000000000000000000\n        /* \"#utility.yul\":8535:8537   */\n      0x20\n        /* \"#utility.yul\":8527:8533   */\n      dup3\n        /* \"#utility.yul\":8523:8538   */\n      add\n        /* \"#utility.yul\":8516:8546   */\n      mstore\n        /* \"#utility.yul\":8331:8553   */\n      pop\n      jump\t// out\n        /* \"#utility.yul\":8559:8925   */\n    tag_326:\n        /* \"#utility.yul\":8701:8704   */\n      0x00\n        /* \"#utility.yul\":8722:8789   */\n      tag_439\n        /* \"#utility.yul\":8786:8788   */\n      0x23\n        /* \"#utility.yul\":8781:8784   */\n      dup4\n        /* \"#utility.yul\":8722:8789   */\n      tag_319\n      jump\t// in\n    tag_439:\n        /* \"#utility.yul\":8715:8789   */\n      swap2\n      pop\n        /* \"#utility.yul\":8798:8891   */\n      tag_440\n        /* \"#utility.yul\":8887:8890   */\n      dup3\n        /* \"#utility.yul\":8798:8891   */\n      tag_325\n      jump\t// in\n    tag_440:\n        /* \"#utility.yul\":8916:8918   */\n      0x40\n        /* \"#utility.yul\":8911:8914   */\n      dup3\n        /* \"#utility.yul\":8907:8919   */\n      add\n        /* \"#utility.yul\":8900:8919   */\n      swap1\n      pop\n        /* \"#utility.yul\":8559:8925   */\n      swap2\n      swap1\n      pop\n      jump\t// out\n        /* \"#utility.yul\":8931:9350   */\n    tag_120:\n        /* \"#utility.yul\":9097:9101   */\n      0x00\n        /* \"#utility.yul\":9135:9137   */\n      0x20\n        /* \"#utility.yul\":9124:9133   */\n      dup3\n        /* \"#utility.yul\":9120:9138   */\n      add\n        /* \"#utility.yul\":9112:9138   */\n      swap1\n      pop\n        /* \"#utility.yul\":9184:9193   */\n      dup2\n        /* \"#utility.yul\":9178:9182   */\n      dup2\n        /* \"#utility.yul\":9174:9194   */\n      sub\n        /* \"#utility.yul\":9170:9171   */\n      0x00\n        /* \"#utility.yul\":9159:9168   */\n      dup4\n        /* \"#utility.yul\":9155:9172   */\n      add\n        /* \"#utility.yul\":9148:9195   */\n      mstore\n        /* \"#utility.yul\":9212:9343   */\n      tag_442\n        /* \"#utility.yul\":9338:9342   */\n      dup2\n        /* \"#utility.yul\":9212:9343   */\n      tag_326\n      jump\t// in\n    tag_442:\n        /* \"#utility.yul\":9204:9343   */\n      swap1\n      pop\n        /* \"#utility.yul\":8931:9350   */\n      swap2\n      swap1\n      pop\n      jump\t// out\n        /* \"#utility.yul\":9356:9538   */\n    tag_327:\n        /* \"#utility.yul\":9496:9530   */\n      0x4f776e61626c653a2063616c6c6572206973206e6f7420746865206f776e6572\n        /* \"#utility.yul\":9492:9493   */\n      0x00\n        /* \"#utility.yul\":9484:9490   */\n      dup3\n        /* \"#utility.yul\":9480:9494   */\n      add\n        /* \"#utility.yul\":9473:9531   */\n      mstore\n        /* \"#utility.yul\":9356:9538   */\n      pop\n      jump\t// out\n        /* \"#utility.yul\":9544:9910   */\n    tag_328:\n        /* \"#utility.yul\":9686:9689   */\n      0x00\n        /* \"#utility.yul\":9707:9774   */\n      tag_445\n        /* \"#utility.yul\":9771:9773   */\n      0x20\n        /* \"#utility.yul\":9766:9769   */\n      dup4\n        /* \"#utility.yul\":9707:9774   */\n      tag_319\n      jump\t// in\n    tag_445:\n        /* \"#utility.yul\":9700:9774   */\n      swap2\n      pop\n        /* \"#utility.yul\":9783:9876   */\n      tag_446\n        /* \"#utility.yul\":9872:9875   */\n      dup3\n        /* \"#utility.yul\":9783:9876   */\n      tag_327\n      jump\t// in\n    tag_446:\n        /* \"#utility.yul\":9901:9903   */\n      0x20\n        /* \"#utility.yul\":9896:9899   */\n      dup3\n        /* \"#utility.yul\":9892:9904   */\n      add\n        /* \"#utility.yul\":9885:9904   */\n      swap1\n      pop\n        /* \"#utility.yul\":9544:9910   */\n      swap2\n      swap1\n      pop\n      jump\t// out\n        /* \"#utility.yul\":9916:10335   */\n    tag_147:\n        /* \"#utility.yul\":10082:10086   */\n      0x00\n        /* \"#utility.yul\":10120:10122   */\n      0x20\n        /* \"#utility.yul\":10109:10118   */\n      dup3\n        /* \"#utility.yul\":10105:10123   */\n      add\n        /* \"#utility.yul\":10097:10123   */\n      swap1\n      pop\n        /* \"#utility.yul\":10169:10178   */\n      dup2\n        /* \"#utility.yul\":10163:10167   */\n      dup2\n        /* \"#utility.yul\":10159:10179   */\n      sub\n        /* \"#utility.yul\":10155:10156   */\n      0x00\n        /* \"#utility.yul\":10144:10153   */\n      dup4\n        /* \"#utility.yul\":10140:10157   */\n      add\n        /* \"#utility.yul\":10133:10180   */\n      mstore\n        /* \"#utility.yul\":10197:10328   */\n      tag_448\n        /* \"#utility.yul\":10323:10327   */\n      dup2\n        /* \"#utility.yul\":10197:10328   */\n      tag_328\n      jump\t// in\n    tag_448:\n        /* \"#utility.yul\":10189:10328   */\n      swap1\n      pop\n        /* \"#utility.yul\":9916:10335   */\n      swap2\n      swap1\n      pop\n      jump\t// out\n        /* \"#utility.yul\":10341:10562   */\n    tag_329:\n        /* \"#utility.yul\":10481:10515   */\n      0x536f7274656454726f7665733a2053697a652063616e206e6f74206265207a65\n        /* \"#utility.yul\":10477:10478   */\n      0x00\n        /* \"#utility.yul\":10469:10475   */\n      dup3\n        /* \"#utility.yul\":10465:10479   */\n      add\n        /* \"#utility.yul\":10458:10516   */\n      mstore\n        /* \"#utility.yul\":10550:10554   */\n      0x726f000000000000000000000000000000000000000000000000000000000000\n        /* \"#utility.yul\":10545:10547   */\n      0x20\n        /* \"#utility.yul\":10537:10543   */\n      dup3\n        /* \"#utility.yul\":10533:10548   */\n      add\n        /* \"#utility.yul\":10526:10555   */\n      mstore\n        /* \"#utility.yul\":10341:10562   */\n      pop\n      jump\t// out\n        /* \"#utility.yul\":10568:10934   */\n    tag_330:\n        /* \"#utility.yul\":10710:10713   */\n      0x00\n        /* \"#utility.yul\":10731:10798   */\n      tag_451\n        /* \"#utility.yul\":10795:10797   */\n      0x22\n        /* \"#utility.yul\":10790:10793   */\n      dup4\n        /* \"#utility.yul\":10731:10798   */\n      tag_319\n      jump\t// in\n    tag_451:\n        /* \"#utility.yul\":10724:10798   */\n      swap2\n      pop\n        /* \"#utility.yul\":10807:10900   */\n      tag_452\n        /* \"#utility.yul\":10896:10899   */\n      dup3\n        /* \"#utility.yul\":10807:10900   */\n      tag_329\n      jump\t// in\n    tag_452:\n        /* \"#utility.yul\":10925:10927   */\n      0x40\n        /* \"#utility.yul\":10920:10923   */\n      dup3\n        /* \"#utility.yul\":10916:10928   */\n      add\n        /* \"#utility.yul\":10909:10928   */\n      swap1\n      pop\n        /* \"#utility.yul\":10568:10934   */\n      swap2\n      swap1\n      pop\n      jump\t// out\n        /* \"#utility.yul\":10940:11359   */\n    tag_151:\n        /* \"#utility.yul\":11106:11110   */\n      0x00\n        /* \"#utility.yul\":11144:11146   */\n      0x20\n        /* \"#utility.yul\":11133:11142   */\n      dup3\n        /* \"#utility.yul\":11129:11147   */\n      add\n        /* \"#utility.yul\":11121:11147   */\n      swap1\n      pop\n        /* \"#utility.yul\":11193:11202   */\n      dup2\n        /* \"#utility.yul\":11187:11191   */\n      dup2\n        /* \"#utility.yul\":11183:11203   */\n      sub\n        /* \"#utility.yul\":11179:11180   */\n      0x00\n        /* \"#utility.yul\":11168:11177   */\n      dup4\n        /* \"#utility.yul\":11164:11181   */\n      add\n        /* \"#utility.yul\":11157:11204   */\n      mstore\n        /* \"#utility.yul\":11221:11352   */\n      tag_454\n        /* \"#utility.yul\":11347:11351   */\n      dup2\n        /* \"#utility.yul\":11221:11352   */\n      tag_330\n      jump\t// in\n    tag_454:\n        /* \"#utility.yul\":11213:11352   */\n      swap1\n      pop\n        /* \"#utility.yul\":10940:11359   */\n      swap2\n      swap1\n      pop\n      jump\t// out\n        /* \"#utility.yul\":11365:11596   */\n    tag_331:\n        /* \"#utility.yul\":11505:11539   */\n      0x536f7274656454726f7665733a2043616c6c6572206973206e6f742074686520\n        /* \"#utility.yul\":11501:11502   */\n      0x00\n        /* \"#utility.yul\":11493:11499   */\n      dup3\n        /* \"#utility.yul\":11489:11503   */\n      add\n        /* \"#utility.yul\":11482:11540   */\n      mstore\n        /* \"#utility.yul\":11574:11588   */\n      0x54726f76654d616e616765720000000000000000000000000000000000000000\n        /* \"#utility.yul\":11569:11571   */\n      0x20\n        /* \"#utility.yul\":11561:11567   */\n      dup3\n        /* \"#utility.yul\":11557:11572   */\n      add\n        /* \"#utility.yul\":11550:11589   */\n      mstore\n        /* \"#utility.yul\":11365:11596   */\n      pop\n      jump\t// out\n        /* \"#utility.yul\":11602:11968   */\n    tag_332:\n        /* \"#utility.yul\":11744:11747   */\n      0x00\n        /* \"#utility.yul\":11765:11832   */\n      tag_457\n        /* \"#utility.yul\":11829:11831   */\n      0x2c\n        /* \"#utility.yul\":11824:11827   */\n      dup4\n        /* \"#utility.yul\":11765:11832   */\n      tag_319\n      jump\t// in\n    tag_457:\n        /* \"#utility.yul\":11758:11832   */\n      swap2\n      pop\n        /* \"#utility.yul\":11841:11934   */\n      tag_458\n        /* \"#utility.yul\":11930:11933   */\n      dup3\n        /* \"#utility.yul\":11841:11934   */\n      tag_331\n      jump\t// in\n    tag_458:\n        /* \"#utility.yul\":11959:11961   */\n      0x40\n        /* \"#utility.yul\":11954:11957   */\n      dup3\n        /* \"#utility.yul\":11950:11962   */\n      add\n        /* \"#utility.yul\":11943:11962   */\n      swap1\n      pop\n        /* \"#utility.yul\":11602:11968   */\n      swap2\n      swap1\n      pop\n      jump\t// out\n        /* \"#utility.yul\":11974:12393   */\n    tag_162:\n        /* \"#utility.yul\":12140:12144   */\n      0x00\n        /* \"#utility.yul\":12178:12180   */\n      0x20\n        /* \"#utility.yul\":12167:12176   */\n      dup3\n        /* \"#utility.yul\":12163:12181   */\n      add\n        /* \"#utility.yul\":12155:12181   */\n      swap1\n      pop\n        /* \"#utility.yul\":12227:12236   */\n      dup2\n        /* \"#utility.yul\":12221:12225   */\n      dup2\n        /* \"#utility.yul\":12217:12237   */\n      sub\n        /* \"#utility.yul\":12213:12214   */\n      0x00\n        /* \"#utility.yul\":12202:12211   */\n      dup4\n        /* \"#utility.yul\":12198:12215   */\n      add\n        /* \"#utility.yul\":12191:12238   */\n      mstore\n        /* \"#utility.yul\":12255:12386   */\n      tag_460\n        /* \"#utility.yul\":12381:12385   */\n      dup2\n        /* \"#utility.yul\":12255:12386   */\n      tag_332\n      jump\t// in\n    tag_460:\n        /* \"#utility.yul\":12247:12386   */\n      swap1\n      pop\n        /* \"#utility.yul\":11974:12393   */\n      swap2\n      swap1\n      pop\n      jump\t// out\n        /* \"#utility.yul\":12399:12579   */\n    tag_333:\n        /* \"#utility.yul\":12447:12524   */\n      0x4e487b7100000000000000000000000000000000000000000000000000000000\n        /* \"#utility.yul\":12444:12445   */\n      0x00\n        /* \"#utility.yul\":12437:12525   */\n      mstore\n        /* \"#utility.yul\":12544:12548   */\n      0x11\n        /* \"#utility.yul\":12541:12542   */\n      0x04\n        /* \"#utility.yul\":12534:12549   */\n      mstore\n        /* \"#utility.yul\":12568:12572   */\n      0x24\n        /* \"#utility.yul\":12565:12566   */\n      0x00\n        /* \"#utility.yul\":12558:12573   */\n      revert\n        /* \"#utility.yul\":12585:12776   */\n    tag_174:\n        /* \"#utility.yul\":12625:12629   */\n      0x00\n        /* \"#utility.yul\":12645:12665   */\n      tag_463\n        /* \"#utility.yul\":12663:12664   */\n      dup3\n        /* \"#utility.yul\":12645:12665   */\n      tag_307\n      jump\t// in\n    tag_463:\n        /* \"#utility.yul\":12640:12665   */\n      swap2\n      pop\n        /* \"#utility.yul\":12679:12699   */\n      tag_464\n        /* \"#utility.yul\":12697:12698   */\n      dup4\n        /* \"#utility.yul\":12679:12699   */\n      tag_307\n      jump\t// in\n    tag_464:\n        /* \"#utility.yul\":12674:12699   */\n      swap3\n      pop\n        /* \"#utility.yul\":12718:12719   */\n      dup3\n        /* \"#utility.yul\":12715:12716   */\n      dup3\n        /* \"#utility.yul\":12712:12720   */\n      lt\n        /* \"#utility.yul\":12709:12743   */\n      iszero\n      tag_465\n      jumpi\n        /* \"#utility.yul\":12723:12741   */\n      tag_466\n      tag_333\n      jump\t// in\n    tag_466:\n        /* \"#utility.yul\":12709:12743   */\n    tag_465:\n        /* \"#utility.yul\":12768:12769   */\n      dup3\n        /* \"#utility.yul\":12765:12766   */\n      dup3\n        /* \"#utility.yul\":12761:12770   */\n      sub\n        /* \"#utility.yul\":12753:12770   */\n      swap1\n      pop\n        /* \"#utility.yul\":12585:12776   */\n      swap3\n      swap2\n      pop\n      pop\n      jump\t// out\n        /* \"#utility.yul\":12782:13014   */\n    tag_334:\n        /* \"#utility.yul\":12922:12956   */\n      0x536f7274656454726f7665733a2043616c6c6572206973206e65697468657220\n        /* \"#utility.yul\":12918:12919   */\n      0x00\n        /* \"#utility.yul\":12910:12916   */\n      dup3\n        /* \"#utility.yul\":12906:12920   */\n      add\n        /* \"#utility.yul\":12899:12957   */\n      mstore\n        /* \"#utility.yul\":12991:13006   */\n      0x424f206e6f722054726f76654d00000000000000000000000000000000000000\n        /* \"#utility.yul\":12986:12988   */\n      0x20\n        /* \"#utility.yul\":12978:12984   */\n      dup3\n        /* \"#utility.yul\":12974:12989   */\n      add\n        /* \"#utility.yul\":12967:13007   */\n      mstore\n        /* \"#utility.yul\":12782:13014   */\n      pop\n      jump\t// out\n        /* \"#utility.yul\":13020:13386   */\n    tag_335:\n        /* \"#utility.yul\":13162:13165   */\n      0x00\n        /* \"#utility.yul\":13183:13250   */\n      tag_469\n        /* \"#utility.yul\":13247:13249   */\n      0x2d\n        /* \"#utility.yul\":13242:13245   */\n      dup4\n        /* \"#utility.yul\":13183:13250   */\n      tag_319\n      jump\t// in\n    tag_469:\n        /* \"#utility.yul\":13176:13250   */\n      swap2\n      pop\n        /* \"#utility.yul\":13259:13352   */\n      tag_470\n        /* \"#utility.yul\":13348:13351   */\n      dup3\n        /* \"#utility.yul\":13259:13352   */\n      tag_334\n      jump\t// in\n    tag_470:\n        /* \"#utility.yul\":13377:13379   */\n      0x40\n        /* \"#utility.yul\":13372:13375   */\n      dup3\n        /* \"#utility.yul\":13368:13380   */\n      add\n        /* \"#utility.yul\":13361:13380   */\n      swap1\n      pop\n        /* \"#utility.yul\":13020:13386   */\n      swap2\n      swap1\n      pop\n      jump\t// out\n        /* \"#utility.yul\":13392:13811   */\n    tag_180:\n        /* \"#utility.yul\":13558:13562   */\n      0x00\n        /* \"#utility.yul\":13596:13598   */\n      0x20\n        /* \"#utility.yul\":13585:13594   */\n      dup3\n        /* \"#utility.yul\":13581:13599   */\n      add\n        /* \"#utility.yul\":13573:13599   */\n      swap1\n      pop\n        /* \"#utility.yul\":13645:13654   */\n      dup2\n        /* \"#utility.yul\":13639:13643   */\n      dup2\n        /* \"#utility.yul\":13635:13655   */\n      sub\n        /* \"#utility.yul\":13631:13632   */\n      0x00\n        /* \"#utility.yul\":13620:13629   */\n      dup4\n        /* \"#utility.yul\":13616:13633   */\n      add\n        /* \"#utility.yul\":13609:13656   */\n      mstore\n        /* \"#utility.yul\":13673:13804   */\n      tag_472\n        /* \"#utility.yul\":13799:13803   */\n      dup2\n        /* \"#utility.yul\":13673:13804   */\n      tag_335\n      jump\t// in\n    tag_472:\n        /* \"#utility.yul\":13665:13804   */\n      swap1\n      pop\n        /* \"#utility.yul\":13392:13811   */\n      swap2\n      swap1\n      pop\n      jump\t// out\n        /* \"#utility.yul\":13817:13993   */\n    tag_336:\n        /* \"#utility.yul\":13957:13985   */\n      0x536f7274656454726f7665733a204c6973742069732066756c6c000000000000\n        /* \"#utility.yul\":13953:13954   */\n      0x00\n        /* \"#utility.yul\":13945:13951   */\n      dup3\n        /* \"#utility.yul\":13941:13955   */\n      add\n        /* \"#utility.yul\":13934:13986   */\n      mstore\n        /* \"#utility.yul\":13817:13993   */\n      pop\n      jump\t// out\n        /* \"#utility.yul\":13999:14365   */\n    tag_337:\n        /* \"#utility.yul\":14141:14144   */\n      0x00\n        /* \"#utility.yul\":14162:14229   */\n      tag_475\n        /* \"#utility.yul\":14226:14228   */\n      0x1a\n        /* \"#utility.yul\":14221:14224   */\n      dup4\n        /* \"#utility.yul\":14162:14229   */\n      tag_319\n      jump\t// in\n    tag_475:\n        /* \"#utility.yul\":14155:14229   */\n      swap2\n      pop\n        /* \"#utility.yul\":14238:14331   */\n      tag_476\n        /* \"#utility.yul\":14327:14330   */\n      dup3\n        /* \"#utility.yul\":14238:14331   */\n      tag_336\n      jump\t// in\n    tag_476:\n        /* \"#utility.yul\":14356:14358   */\n      0x20\n        /* \"#utility.yul\":14351:14354   */\n      dup3\n        /* \"#utility.yul\":14347:14359   */\n      add\n        /* \"#utility.yul\":14340:14359   */\n      swap1\n      pop\n        /* \"#utility.yul\":13999:14365   */\n      swap2\n      swap1\n      pop\n      jump\t// out\n        /* \"#utility.yul\":14371:14790   */\n    tag_185:\n        /* \"#utility.yul\":14537:14541   */\n      0x00\n        /* \"#utility.yul\":14575:14577   */\n      0x20\n        /* \"#utility.yul\":14564:14573   */\n      dup3\n        /* \"#utility.yul\":14560:14578   */\n      add\n        /* \"#utility.yul\":14552:14578   */\n      swap1\n      pop\n        /* \"#utility.yul\":14624:14633   */\n      dup2\n        /* \"#utility.yul\":14618:14622   */\n      dup2\n        /* \"#utility.yul\":14614:14634   */\n      sub\n        /* \"#utility.yul\":14610:14611   */\n      0x00\n        /* \"#utility.yul\":14599:14608   */\n      dup4\n        /* \"#utility.yul\":14595:14612   */\n      add\n        /* \"#utility.yul\":14588:14635   */\n      mstore\n        /* \"#utility.yul\":14652:14783   */\n      tag_478\n        /* \"#utility.yul\":14778:14782   */\n      dup2\n        /* \"#utility.yul\":14652:14783   */\n      tag_337\n      jump\t// in\n    tag_478:\n        /* \"#utility.yul\":14644:14783   */\n      swap1\n      pop\n        /* \"#utility.yul\":14371:14790   */\n      swap2\n      swap1\n      pop\n      jump\t// out\n        /* \"#utility.yul\":14796:15027   */\n    tag_338:\n        /* \"#utility.yul\":14936:14970   */\n      0x536f7274656454726f7665733a204c69737420616c726561647920636f6e7461\n        /* \"#utility.yul\":14932:14933   */\n      0x00\n        /* \"#utility.yul\":14924:14930   */\n      dup3\n        /* \"#utility.yul\":14920:14934   */\n      add\n        /* \"#utility.yul\":14913:14971   */\n      mstore\n        /* \"#utility.yul\":15005:15019   */\n      0x696e7320746865206e6f64650000000000000000000000000000000000000000\n        /* \"#utility.yul\":15000:15002   */\n      0x20\n        /* \"#utility.yul\":14992:14998   */\n      dup3\n        /* \"#utility.yul\":14988:15003   */\n      add\n        /* \"#utility.yul\":14981:15020   */\n      mstore\n        /* \"#utility.yul\":14796:15027   */\n      pop\n      jump\t// out\n        /* \"#utility.yul\":15033:15399   */\n    tag_339:\n        /* \"#utility.yul\":15175:15178   */\n      0x00\n        /* \"#utility.yul\":15196:15263   */\n      tag_481\n        /* \"#utility.yul\":15260:15262   */\n      0x2c\n        /* \"#utility.yul\":15255:15258   */\n      dup4\n        /* \"#utility.yul\":15196:15263   */\n      tag_319\n      jump\t// in\n    tag_481:\n        /* \"#utility.yul\":15189:15263   */\n      swap2\n      pop\n        /* \"#utility.yul\":15272:15365   */\n      tag_482\n        /* \"#utility.yul\":15361:15364   */\n      dup3\n        /* \"#utility.yul\":15272:15365   */\n      tag_338\n      jump\t// in\n    tag_482:\n        /* \"#utility.yul\":15390:15392   */\n      0x40\n        /* \"#utility.yul\":15385:15388   */\n      dup3\n        /* \"#utility.yul\":15381:15393   */\n      add\n        /* \"#utility.yul\":15374:15393   */\n      swap1\n      pop\n        /* \"#utility.yul\":15033:15399   */\n      swap2\n      swap1\n      pop\n      jump\t// out\n        /* \"#utility.yul\":15405:15824   */\n    tag_189:\n        /* \"#utility.yul\":15571:15575   */\n      0x00\n        /* \"#utility.yul\":15609:15611   */\n      0x20\n        /* \"#utility.yul\":15598:15607   */\n      dup3\n        /* \"#utility.yul\":15594:15612   */\n      add\n        /* \"#utility.yul\":15586:15612   */\n      swap1\n      pop\n        /* \"#utility.yul\":15658:15667   */\n      dup2\n        /* \"#utility.yul\":15652:15656   */\n      dup2\n        /* \"#utility.yul\":15648:15668   */\n      sub\n        /* \"#utility.yul\":15644:15645   */\n      0x00\n        /* \"#utility.yul\":15633:15642   */\n      dup4\n        /* \"#utility.yul\":15629:15646   */\n      add\n        /* \"#utility.yul\":15622:15669   */\n      mstore\n        /* \"#utility.yul\":15686:15817   */\n      tag_484\n        /* \"#utility.yul\":15812:15816   */\n      dup2\n        /* \"#utility.yul\":15686:15817   */\n      tag_339\n      jump\t// in\n    tag_484:\n        /* \"#utility.yul\":15678:15817   */\n      swap1\n      pop\n        /* \"#utility.yul\":15405:15824   */\n      swap2\n      swap1\n      pop\n      jump\t// out\n        /* \"#utility.yul\":15830:16011   */\n    tag_340:\n        /* \"#utility.yul\":15970:16003   */\n      0x536f7274656454726f7665733a2049642063616e6e6f74206265207a65726f00\n        /* \"#utility.yul\":15966:15967   */\n      0x00\n        /* \"#utility.yul\":15958:15964   */\n      dup3\n        /* \"#utility.yul\":15954:15968   */\n      add\n        /* \"#utility.yul\":15947:16004   */\n      mstore\n        /* \"#utility.yul\":15830:16011   */\n      pop\n      jump\t// out\n        /* \"#utility.yul\":16017:16383   */\n    tag_341:\n        /* \"#utility.yul\":16159:16162   */\n      0x00\n        /* \"#utility.yul\":16180:16247   */\n      tag_487\n        /* \"#utility.yul\":16244:16246   */\n      0x1f\n        /* \"#utility.yul\":16239:16242   */\n      dup4\n        /* \"#utility.yul\":16180:16247   */\n      tag_319\n      jump\t// in\n    tag_487:\n        /* \"#utility.yul\":16173:16247   */\n      swap2\n      pop\n        /* \"#utility.yul\":16256:16349   */\n      tag_488\n        /* \"#utility.yul\":16345:16348   */\n      dup3\n        /* \"#utility.yul\":16256:16349   */\n      tag_340\n      jump\t// in\n    tag_488:\n        /* \"#utility.yul\":16374:16376   */\n      0x20\n        /* \"#utility.yul\":16369:16372   */\n      dup3\n        /* \"#utility.yul\":16365:16377   */\n      add\n        /* \"#utility.yul\":16358:16377   */\n      swap1\n      pop\n        /* \"#utility.yul\":16017:16383   */\n      swap2\n      swap1\n      pop\n      jump\t// out\n        /* \"#utility.yul\":16389:16808   */\n    tag_192:\n        /* \"#utility.yul\":16555:16559   */\n      0x00\n        /* \"#utility.yul\":16593:16595   */\n      0x20\n        /* \"#utility.yul\":16582:16591   */\n      dup3\n        /* \"#utility.yul\":16578:16596   */\n      add\n        /* \"#utility.yul\":16570:16596   */\n      swap1\n      pop\n        /* \"#utility.yul\":16642:16651   */\n      dup2\n        /* \"#utility.yul\":16636:16640   */\n      dup2\n        /* \"#utility.yul\":16632:16652   */\n      sub\n        /* \"#utility.yul\":16628:16629   */\n      0x00\n        /* \"#utility.yul\":16617:16626   */\n      dup4\n        /* \"#utility.yul\":16613:16630   */\n      add\n        /* \"#utility.yul\":16606:16653   */\n      mstore\n        /* \"#utility.yul\":16670:16801   */\n      tag_490\n        /* \"#utility.yul\":16796:16800   */\n      dup2\n        /* \"#utility.yul\":16670:16801   */\n      tag_341\n      jump\t// in\n    tag_490:\n        /* \"#utility.yul\":16662:16801   */\n      swap1\n      pop\n        /* \"#utility.yul\":16389:16808   */\n      swap2\n      swap1\n      pop\n      jump\t// out\n        /* \"#utility.yul\":16814:17119   */\n    tag_206:\n        /* \"#utility.yul\":16854:16857   */\n      0x00\n        /* \"#utility.yul\":16873:16893   */\n      tag_492\n        /* \"#utility.yul\":16891:16892   */\n      dup3\n        /* \"#utility.yul\":16873:16893   */\n      tag_307\n      jump\t// in\n    tag_492:\n        /* \"#utility.yul\":16868:16893   */\n      swap2\n      pop\n        /* \"#utility.yul\":16907:16927   */\n      tag_493\n        /* \"#utility.yul\":16925:16926   */\n      dup4\n        /* \"#utility.yul\":16907:16927   */\n      tag_307\n      jump\t// in\n    tag_493:\n        /* \"#utility.yul\":16902:16927   */\n      swap3\n      pop\n        /* \"#utility.yul\":17061:17062   */\n      dup3\n        /* \"#utility.yul\":16993:17059   */\n      0xffffffffffffffffffffffffffffffffffffffffffffffffffffffffffffffff\n        /* \"#utility.yul\":16989:17063   */\n      sub\n        /* \"#utility.yul\":16986:16987   */\n      dup3\n        /* \"#utility.yul\":16983:17064   */\n      gt\n        /* \"#utility.yul\":16980:17087   */\n      iszero\n      tag_494\n      jumpi\n        /* \"#utility.yul\":17067:17085   */\n      tag_495\n      tag_333\n      jump\t// in\n    tag_495:\n        /* \"#utility.yul\":16980:17087   */\n    tag_494:\n        /* \"#utility.yul\":17111:17112   */\n      dup3\n        /* \"#utility.yul\":17108:17109   */\n      dup3\n        /* \"#utility.yul\":17104:17113   */\n      add\n        /* \"#utility.yul\":17097:17113   */\n      swap1\n      pop\n        /* \"#utility.yul\":16814:17119   */\n      swap3\n      swap2\n      pop\n      pop\n      jump\t// out\n        /* \"#utility.yul\":17125:17457   */\n    tag_208:\n        /* \"#utility.yul\":17246:17250   */\n      0x00\n        /* \"#utility.yul\":17284:17286   */\n      0x40\n        /* \"#utility.yul\":17273:17282   */\n      dup3\n        /* \"#utility.yul\":17269:17287   */\n      add\n        /* \"#utility.yul\":17261:17287   */\n      swap1\n      pop\n        /* \"#utility.yul\":17297:17368   */\n      tag_497\n        /* \"#utility.yul\":17365:17366   */\n      0x00\n        /* \"#utility.yul\":17354:17363   */\n      dup4\n        /* \"#utility.yul\":17350:17367   */\n      add\n        /* \"#utility.yul\":17341:17347   */\n      dup6\n        /* \"#utility.yul\":17297:17368   */\n      tag_301\n      jump\t// in\n    tag_497:\n        /* \"#utility.yul\":17378:17450   */\n      tag_498\n        /* \"#utility.yul\":17446:17448   */\n      0x20\n        /* \"#utility.yul\":17435:17444   */\n      dup4\n        /* \"#utility.yul\":17431:17449   */\n      add\n        /* \"#utility.yul\":17422:17428   */\n      dup5\n        /* \"#utility.yul\":17378:17450   */\n      tag_317\n      jump\t// in\n    tag_498:\n        /* \"#utility.yul\":17125:17457   */\n      swap4\n      swap3\n      pop\n      pop\n      pop\n      jump\t// out\n        /* \"#utility.yul\":17463:17606   */\n    tag_342:\n        /* \"#utility.yul\":17520:17525   */\n      0x00\n        /* \"#utility.yul\":17551:17557   */\n      dup2\n        /* \"#utility.yul\":17545:17558   */\n      mload\n        /* \"#utility.yul\":17536:17558   */\n      swap1\n      pop\n        /* \"#utility.yul\":17567:17600   */\n      tag_500\n        /* \"#utility.yul\":17594:17599   */\n      dup2\n        /* \"#utility.yul\":17567:17600   */\n      tag_308\n      jump\t// in\n    tag_500:\n        /* \"#utility.yul\":17463:17606   */\n      swap3\n      swap2\n      pop\n      pop\n      jump\t// out\n        /* \"#utility.yul\":17612:17963   */\n    tag_220:\n        /* \"#utility.yul\":17682:17688   */\n      0x00\n        /* \"#utility.yul\":17731:17733   */\n      0x20\n        /* \"#utility.yul\":17719:17728   */\n      dup3\n        /* \"#utility.yul\":17710:17717   */\n      dup5\n        /* \"#utility.yul\":17706:17729   */\n      sub\n        /* \"#utility.yul\":17702:17734   */\n      slt\n        /* \"#utility.yul\":17699:17818   */\n      iszero\n      tag_502\n      jumpi\n        /* \"#utility.yul\":17737:17816   */\n      tag_503\n      tag_303\n      jump\t// in\n    tag_503:\n        /* \"#utility.yul\":17699:17818   */\n    tag_502:\n        /* \"#utility.yul\":17857:17858   */\n      0x00\n        /* \"#utility.yul\":17882:17946   */\n      tag_504\n        /* \"#utility.yul\":17938:17945   */\n      dup5\n        /* \"#utility.yul\":17929:17935   */\n      dup3\n        /* \"#utility.yul\":17918:17927   */\n      dup6\n        /* \"#utility.yul\":17914:17936   */\n      add\n        /* \"#utility.yul\":17882:17946   */\n      tag_342\n      jump\t// in\n    tag_504:\n        /* \"#utility.yul\":17872:17946   */\n      swap2\n      pop\n        /* \"#utility.yul\":17828:17956   */\n      pop\n        /* \"#utility.yul\":17612:17963   */\n      swap3\n      swap2\n      pop\n      pop\n      jump\t// out\n        /* \"#utility.yul\":17969:18149   */\n    tag_343:\n        /* \"#utility.yul\":18109:18141   */\n      0x4163636f756e742063616e6e6f74206265207a65726f20616464726573730000\n        /* \"#utility.yul\":18105:18106   */\n      0x00\n        /* \"#utility.yul\":18097:18103   */\n      dup3\n        /* \"#utility.yul\":18093:18107   */\n      add\n        /* \"#utility.yul\":18086:18142   */\n      mstore\n        /* \"#utility.yul\":17969:18149   */\n      pop\n      jump\t// out\n        /* \"#utility.yul\":18155:18521   */\n    tag_344:\n        /* \"#utility.yul\":18297:18300   */\n      0x00\n        /* \"#utility.yul\":18318:18385   */\n      tag_507\n        /* \"#utility.yul\":18382:18384   */\n      0x1e\n        /* \"#utility.yul\":18377:18380   */\n      dup4\n        /* \"#utility.yul\":18318:18385   */\n      tag_319\n      jump\t// in\n    tag_507:\n        /* \"#utility.yul\":18311:18385   */\n      swap2\n      pop\n        /* \"#utility.yul\":18394:18487   */\n      tag_508\n        /* \"#utility.yul\":18483:18486   */\n      dup3\n        /* \"#utility.yul\":18394:18487   */\n      tag_343\n      jump\t// in\n    tag_508:\n        /* \"#utility.yul\":18512:18514   */\n      0x20\n        /* \"#utility.yul\":18507:18510   */\n      dup3\n        /* \"#utility.yul\":18503:18515   */\n      add\n        /* \"#utility.yul\":18496:18515   */\n      swap1\n      pop\n        /* \"#utility.yul\":18155:18521   */\n      swap2\n      swap1\n      pop\n      jump\t// out\n        /* \"#utility.yul\":18527:18946   */\n    tag_272:\n        /* \"#utility.yul\":18693:18697   */\n      0x00\n        /* \"#utility.yul\":18731:18733   */\n      0x20\n        /* \"#utility.yul\":18720:18729   */\n      dup3\n        /* \"#utility.yul\":18716:18734   */\n      add\n        /* \"#utility.yul\":18708:18734   */\n      swap1\n      pop\n        /* \"#utility.yul\":18780:18789   */\n      dup2\n        /* \"#utility.yul\":18774:18778   */\n      dup2\n        /* \"#utility.yul\":18770:18790   */\n      sub\n        /* \"#utility.yul\":18766:18767   */\n      0x00\n        /* \"#utility.yul\":18755:18764   */\n      dup4\n        /* \"#utility.yul\":18751:18768   */\n      add\n        /* \"#utility.yul\":18744:18791   */\n      mstore\n        /* \"#utility.yul\":18808:18939   */\n      tag_510\n        /* \"#utility.yul\":18934:18938   */\n      dup2\n        /* \"#utility.yul\":18808:18939   */\n      tag_344\n      jump\t// in\n    tag_510:\n        /* \"#utility.yul\":18800:18939   */\n      swap1\n      pop\n        /* \"#utility.yul\":18527:18946   */\n      swap2\n      swap1\n      pop\n      jump\t// out\n        /* \"#utility.yul\":18952:19134   */\n    tag_345:\n        /* \"#utility.yul\":19092:19126   */\n      0x4163636f756e7420636f64652073697a652063616e6e6f74206265207a65726f\n        /* \"#utility.yul\":19088:19089   */\n      0x00\n        /* \"#utility.yul\":19080:19086   */\n      dup3\n        /* \"#utility.yul\":19076:19090   */\n      add\n        /* \"#utility.yul\":19069:19127   */\n      mstore\n        /* \"#utility.yul\":18952:19134   */\n      pop\n      jump\t// out\n        /* \"#utility.yul\":19140:19506   */\n    tag_346:\n        /* \"#utility.yul\":19282:19285   */\n      0x00\n        /* \"#utility.yul\":19303:19370   */\n      tag_513\n        /* \"#utility.yul\":19367:19369   */\n      0x20\n        /* \"#utility.yul\":19362:19365   */\n      dup4\n        /* \"#utility.yul\":19303:19370   */\n      tag_319\n      jump\t// in\n    tag_513:\n        /* \"#utility.yul\":19296:19370   */\n      swap2\n      pop\n        /* \"#utility.yul\":19379:19472   */\n      tag_514\n        /* \"#utility.yul\":19468:19471   */\n      dup3\n        /* \"#utility.yul\":19379:19472   */\n      tag_345\n      jump\t// in\n    tag_514:\n        /* \"#utility.yul\":19497:19499   */\n      0x20\n        /* \"#utility.yul\":19492:19495   */\n      dup3\n        /* \"#utility.yul\":19488:19500   */\n      add\n        /* \"#utility.yul\":19481:19500   */\n      swap1\n      pop\n        /* \"#utility.yul\":19140:19506   */\n      swap2\n      swap1\n      pop\n      jump\t// out\n        /* \"#utility.yul\":19512:19931   */\n    tag_275:\n        /* \"#utility.yul\":19678:19682   */\n      0x00\n        /* \"#utility.yul\":19716:19718   */\n      0x20\n        /* \"#utility.yul\":19705:19714   */\n      dup3\n        /* \"#utility.yul\":19701:19719   */\n      add\n        /* \"#utility.yul\":19693:19719   */\n      swap1\n      pop\n        /* \"#utility.yul\":19765:19774   */\n      dup2\n        /* \"#utility.yul\":19759:19763   */\n      dup2\n        /* \"#utility.yul\":19755:19775   */\n      sub\n        /* \"#utility.yul\":19751:19752   */\n      0x00\n        /* \"#utility.yul\":19740:19749   */\n      dup4\n        /* \"#utility.yul\":19736:19753   */\n      add\n        /* \"#utility.yul\":19729:19776   */\n      mstore\n        /* \"#utility.yul\":19793:19924   */\n      tag_516\n        /* \"#utility.yul\":19919:19923   */\n      dup2\n        /* \"#utility.yul\":19793:19924   */\n      tag_346\n      jump\t// in\n    tag_516:\n        /* \"#utility.yul\":19785:19924   */\n      swap1\n      pop\n        /* \"#utility.yul\":19512:19931   */\n      swap2\n      swap1\n      pop\n      jump\t// out\n\n    auxdata: 0xa264697066735822122032bbb2be613d99babb38e2e2fa01ddad172762fac1a9c31ff5c421c120e1199164736f6c634300080f0033\n}\n",
				"bytecode": {
					"linkReferences": {},
					"object": "608060405234801561001057600080fd5b50336000806101000a81548173ffffffffffffffffffffffffffffffffffffffff021916908373ffffffffffffffffffffffffffffffffffffffff1602179055503373ffffffffffffffffffffffffffffffffffffffff16600073ffffffffffffffffffffffffffffffffffffffff167f8be0079c531659141344cd1fd0a4f28419497f9722a3daafe3b4186f6b6457e060405160405180910390a3613505806100bb6000396000f3fe608060405234801561001057600080fd5b50600436106101375760003560e01c8063681fe70c116100b8578063a3f4df7e1161007c578063a3f4df7e14610344578063b72703ac14610362578063b7f8cf9b14610392578063babd3d9a146103b0578063de8fa431146103ce578063f376d798146103ec57610137565b8063681fe70c1461029957806373d4a13a146102b7578063765e0159146102d85780638da5cb5b146103085780638f32d59b1461032657610137565b8063416980dc116100ff578063416980dc146101e057806346f7cf87146102115780634d6228311461022d5780635dbe47e81461024b57806363e1d57c1461027b57610137565b80631e2231431461013c57806329092d0e1461015a5780632be21260146101765780633d83908a146101925780633fce12d5146101b0575b600080fd5b610144610408565b6040516101519190612ab7565b60405180910390f35b610174600480360381019061016f9190612b03565b610435565b005b610190600480360381019061018b9190612b66565b610449565b005b61019a610521565b6040516101a79190612c2c565b60405180910390f35b6101ca60048036038101906101c59190612c47565b610547565b6040516101d79190612cb5565b60405180910390f35b6101fa60048036038101906101f59190612c47565b610580565b604051610208929190612cd0565b60405180910390f35b61022b60048036038101906102269190612b66565b6105bd565b005b610235610601565b6040516102429190612ab7565b60405180910390f35b61026560048036038101906102609190612b03565b61062e565b6040516102729190612cb5565b60405180910390f35b61028361068a565b6040516102909190612d08565b60405180910390f35b6102a1610697565b6040516102ae9190612cb5565b60405180910390f35b6102bf6106a5565b6040516102cf9493929190612d23565b60405180910390f35b6102f260048036038101906102ed9190612b03565b610703565b6040516102ff9190612ab7565b60405180910390f35b610310610772565b60405161031d9190612ab7565b60405180910390f35b61032e61079b565b60405161033b9190612cb5565b60405180910390f35b61034c6107f2565b6040516103599190612e01565b60405180910390f35b61037c60048036038101906103779190612b03565b61082b565b6040516103899190612ab7565b60405180910390f35b61039a61089a565b6040516103a79190612ab7565b60405180910390f35b6103b86108c0565b6040516103c59190612cb5565b60405180910390f35b6103d66108d3565b6040516103e39190612d08565b60405180910390f35b61040660048036038101906104019190612c47565b6108df565b005b6000600360000160009054906101000a900473ffffffffffffffffffffffffffffffffffffffff16905090565b61043d610a82565b61044681610b14565b50565b6000600260009054906101000a900473ffffffffffffffffffffffffffffffffffffffff169050610479816112f4565b6104828561062e565b6104c1576040517f08c379a00000000000000000000000000000000000000000000000000000000081526004016104b890612e95565b60405180910390fd5b60008411610504576040517f08c379a00000000000000000000000000000000000000000000000000000000081526004016104fb90612f27565b60405180910390fd5b61050d85610b14565b61051a81868686866113bd565b5050505050565b600260009054906101000a900473ffffffffffffffffffffffffffffffffffffffff1681565b6000610577600260009054906101000a900473ffffffffffffffffffffffffffffffffffffffff16858585611c96565b90509392505050565b6000806105b1600260009054906101000a900473ffffffffffffffffffffffffffffffffffffffff168686866120e4565b91509150935093915050565b6000600260009054906101000a900473ffffffffffffffffffffffffffffffffffffffff1690506105ed816112f4565b6105fa81868686866113bd565b5050505050565b6000600360010160009054906101000a900473ffffffffffffffffffffffffffffffffffffffff16905090565b6000600360040160008373ffffffffffffffffffffffffffffffffffffffff1673ffffffffffffffffffffffffffffffffffffffff16815260200190815260200160002060000160009054906101000a900460ff169050919050565b6000600360020154905090565b600080600380015414905090565b60038060000160009054906101000a900473ffffffffffffffffffffffffffffffffffffffff16908060010160009054906101000a900473ffffffffffffffffffffffffffffffffffffffff16908060020154908060030154905084565b6000600360040160008373ffffffffffffffffffffffffffffffffffffffff1673ffffffffffffffffffffffffffffffffffffffff16815260200190815260200160002060000160019054906101000a900473ffffffffffffffffffffffffffffffffffffffff169050919050565b60008060009054906101000a900473ffffffffffffffffffffffffffffffffffffffff16905090565b60008060009054906101000a900473ffffffffffffffffffffffffffffffffffffffff1673ffffffffffffffffffffffffffffffffffffffff163373ffffffffffffffffffffffffffffffffffffffff1614905090565b6040518060400160405280600c81526020017f536f7274656454726f766573000000000000000000000000000000000000000081525081565b6000600360040160008373ffffffffffffffffffffffffffffffffffffffff1673ffffffffffffffffffffffffffffffffffffffff16815260200190815260200160002060010160009054906101000a900473ffffffffffffffffffffffffffffffffffffffff169050919050565b600160009054906101000a900473ffffffffffffffffffffffffffffffffffffffff1681565b6000600360020154600380015414905090565b60006003800154905090565b6108e761079b565b610926576040517f08c379a000000000000000000000000000000000000000000000000000000000815260040161091d90612f93565b60405180910390fd5b60008311610969576040517f08c379a000000000000000000000000000000000000000000000000000000000815260040161096090613025565b60405180910390fd5b610972826123e0565b61097b816123e0565b8260036002018190555081600260006101000a81548173ffffffffffffffffffffffffffffffffffffffff021916908373ffffffffffffffffffffffffffffffffffffffff16021790555080600160006101000a81548173ffffffffffffffffffffffffffffffffffffffff021916908373ffffffffffffffffffffffffffffffffffffffff1602179055507f143219c9e69b09e07e095fcc889b43d8f46ca892bba65f08dc3a0050869a567882604051610a369190612ab7565b60405180910390a17f3ca631ffcd2a9b5d9ae18543fc82f58eb4ca33af9e6ab01b7a8e95331e6ed98581604051610a6d9190612ab7565b60405180910390a1610a7d61249c565b505050565b600260009054906101000a900473ffffffffffffffffffffffffffffffffffffffff1673ffffffffffffffffffffffffffffffffffffffff163373ffffffffffffffffffffffffffffffffffffffff1614610b12576040517f08c379a0000000000000000000000000000000000000000000000000000000008152600401610b09906130b7565b60405180910390fd5b565b610b1d8161062e565b610b5c576040517f08c379a0000000000000000000000000000000000000000000000000000000008152600401610b5390612e95565b60405180910390fd5b60016003800154111561116c57600360000160009054906101000a900473ffffffffffffffffffffffffffffffffffffffff1673ffffffffffffffffffffffffffffffffffffffff168173ffffffffffffffffffffffffffffffffffffffff1603610d1957600360040160008273ffffffffffffffffffffffffffffffffffffffff1673ffffffffffffffffffffffffffffffffffffffff16815260200190815260200160002060000160019054906101000a900473ffffffffffffffffffffffffffffffffffffffff16600360000160006101000a81548173ffffffffffffffffffffffffffffffffffffffff021916908373ffffffffffffffffffffffffffffffffffffffff160217905550600060036004016000600360000160009054906101000a900473ffffffffffffffffffffffffffffffffffffffff1673ffffffffffffffffffffffffffffffffffffffff1673ffffffffffffffffffffffffffffffffffffffff16815260200190815260200160002060010160006101000a81548173ffffffffffffffffffffffffffffffffffffffff021916908373ffffffffffffffffffffffffffffffffffffffff160217905550611167565b600360010160009054906101000a900473ffffffffffffffffffffffffffffffffffffffff1673ffffffffffffffffffffffffffffffffffffffff168173ffffffffffffffffffffffffffffffffffffffff1603610ec957600360040160008273ffffffffffffffffffffffffffffffffffffffff1673ffffffffffffffffffffffffffffffffffffffff16815260200190815260200160002060010160009054906101000a900473ffffffffffffffffffffffffffffffffffffffff16600360010160006101000a81548173ffffffffffffffffffffffffffffffffffffffff021916908373ffffffffffffffffffffffffffffffffffffffff160217905550600060036004016000600360010160009054906101000a900473ffffffffffffffffffffffffffffffffffffffff1673ffffffffffffffffffffffffffffffffffffffff1673ffffffffffffffffffffffffffffffffffffffff16815260200190815260200160002060000160016101000a81548173ffffffffffffffffffffffffffffffffffffffff021916908373ffffffffffffffffffffffffffffffffffffffff160217905550611166565b600360040160008273ffffffffffffffffffffffffffffffffffffffff1673ffffffffffffffffffffffffffffffffffffffff16815260200190815260200160002060000160019054906101000a900473ffffffffffffffffffffffffffffffffffffffff1660036004016000600360040160008573ffffffffffffffffffffffffffffffffffffffff1673ffffffffffffffffffffffffffffffffffffffff16815260200190815260200160002060010160009054906101000a900473ffffffffffffffffffffffffffffffffffffffff1673ffffffffffffffffffffffffffffffffffffffff1673ffffffffffffffffffffffffffffffffffffffff16815260200190815260200160002060000160016101000a81548173ffffffffffffffffffffffffffffffffffffffff021916908373ffffffffffffffffffffffffffffffffffffffff160217905550600360040160008273ffffffffffffffffffffffffffffffffffffffff1673ffffffffffffffffffffffffffffffffffffffff16815260200190815260200160002060010160009054906101000a900473ffffffffffffffffffffffffffffffffffffffff1660036004016000600360040160008573ffffffffffffffffffffffffffffffffffffffff1673ffffffffffffffffffffffffffffffffffffffff16815260200190815260200160002060000160019054906101000a900473ffffffffffffffffffffffffffffffffffffffff1673ffffffffffffffffffffffffffffffffffffffff1673ffffffffffffffffffffffffffffffffffffffff16815260200190815260200160002060010160006101000a81548173ffffffffffffffffffffffffffffffffffffffff021916908373ffffffffffffffffffffffffffffffffffffffff1602179055505b5b6111f7565b6000600360000160006101000a81548173ffffffffffffffffffffffffffffffffffffffff021916908373ffffffffffffffffffffffffffffffffffffffff1602179055506000600360010160006101000a81548173ffffffffffffffffffffffffffffffffffffffff021916908373ffffffffffffffffffffffffffffffffffffffff1602179055505b600360040160008273ffffffffffffffffffffffffffffffffffffffff1673ffffffffffffffffffffffffffffffffffffffff168152602001908152602001600020600080820160006101000a81549060ff02191690556000820160016101000a81549073ffffffffffffffffffffffffffffffffffffffff02191690556001820160006101000a81549073ffffffffffffffffffffffffffffffffffffffff0219169055505060016003800160008282546112b39190613106565b925050819055507fcfc24166db4bb677e857cacabd1541fb2b30645021b27c5130419589b84db52b816040516112e99190612ab7565b60405180910390a150565b600160009054906101000a900473ffffffffffffffffffffffffffffffffffffffff1673ffffffffffffffffffffffffffffffffffffffff163373ffffffffffffffffffffffffffffffffffffffff16148061137b57508073ffffffffffffffffffffffffffffffffffffffff163373ffffffffffffffffffffffffffffffffffffffff16145b6113ba576040517f08c379a00000000000000000000000000000000000000000000000000000000081526004016113b1906131ac565b60405180910390fd5b50565b6113c56108c0565b15611405576040517f08c379a00000000000000000000000000000000000000000000000000000000081526004016113fc90613218565b60405180910390fd5b61140e8461062e565b1561144e576040517f08c379a0000000000000000000000000000000000000000000000000000000008152600401611445906132aa565b60405180910390fd5b600073ffffffffffffffffffffffffffffffffffffffff168473ffffffffffffffffffffffffffffffffffffffff16036114bd576040517f08c379a00000000000000000000000000000000000000000000000000000000081526004016114b490613316565b60405180910390fd5b60008311611500576040517f08c379a00000000000000000000000000000000000000000000000000000000081526004016114f790612f27565b60405180910390fd5b6000829050600082905061151687868484611c96565b61152f57611526878684846120e4565b80925081935050505b6001600360040160008873ffffffffffffffffffffffffffffffffffffffff1673ffffffffffffffffffffffffffffffffffffffff16815260200190815260200160002060000160006101000a81548160ff021916908315150217905550600073ffffffffffffffffffffffffffffffffffffffff168273ffffffffffffffffffffffffffffffffffffffff161480156115f55750600073ffffffffffffffffffffffffffffffffffffffff168173ffffffffffffffffffffffffffffffffffffffff16145b156116875785600360000160006101000a81548173ffffffffffffffffffffffffffffffffffffffff021916908373ffffffffffffffffffffffffffffffffffffffff16021790555085600360010160006101000a81548173ffffffffffffffffffffffffffffffffffffffff021916908373ffffffffffffffffffffffffffffffffffffffff160217905550611c38565b600073ffffffffffffffffffffffffffffffffffffffff168273ffffffffffffffffffffffffffffffffffffffff160361185657600360000160009054906101000a900473ffffffffffffffffffffffffffffffffffffffff16600360040160008873ffffffffffffffffffffffffffffffffffffffff1673ffffffffffffffffffffffffffffffffffffffff16815260200190815260200160002060000160016101000a81548173ffffffffffffffffffffffffffffffffffffffff021916908373ffffffffffffffffffffffffffffffffffffffff1602179055508560036004016000600360000160009054906101000a900473ffffffffffffffffffffffffffffffffffffffff1673ffffffffffffffffffffffffffffffffffffffff1673ffffffffffffffffffffffffffffffffffffffff16815260200190815260200160002060010160006101000a81548173ffffffffffffffffffffffffffffffffffffffff021916908373ffffffffffffffffffffffffffffffffffffffff16021790555085600360000160006101000a81548173ffffffffffffffffffffffffffffffffffffffff021916908373ffffffffffffffffffffffffffffffffffffffff160217905550611c37565b600073ffffffffffffffffffffffffffffffffffffffff168173ffffffffffffffffffffffffffffffffffffffff1603611a2557600360010160009054906101000a900473ffffffffffffffffffffffffffffffffffffffff16600360040160008873ffffffffffffffffffffffffffffffffffffffff1673ffffffffffffffffffffffffffffffffffffffff16815260200190815260200160002060010160006101000a81548173ffffffffffffffffffffffffffffffffffffffff021916908373ffffffffffffffffffffffffffffffffffffffff1602179055508560036004016000600360010160009054906101000a900473ffffffffffffffffffffffffffffffffffffffff1673ffffffffffffffffffffffffffffffffffffffff1673ffffffffffffffffffffffffffffffffffffffff16815260200190815260200160002060000160016101000a81548173ffffffffffffffffffffffffffffffffffffffff021916908373ffffffffffffffffffffffffffffffffffffffff16021790555085600360010160006101000a81548173ffffffffffffffffffffffffffffffffffffffff021916908373ffffffffffffffffffffffffffffffffffffffff160217905550611c36565b80600360040160008873ffffffffffffffffffffffffffffffffffffffff1673ffffffffffffffffffffffffffffffffffffffff16815260200190815260200160002060000160016101000a81548173ffffffffffffffffffffffffffffffffffffffff021916908373ffffffffffffffffffffffffffffffffffffffff16021790555081600360040160008873ffffffffffffffffffffffffffffffffffffffff1673ffffffffffffffffffffffffffffffffffffffff16815260200190815260200160002060010160006101000a81548173ffffffffffffffffffffffffffffffffffffffff021916908373ffffffffffffffffffffffffffffffffffffffff16021790555085600360040160008473ffffffffffffffffffffffffffffffffffffffff1673ffffffffffffffffffffffffffffffffffffffff16815260200190815260200160002060000160016101000a81548173ffffffffffffffffffffffffffffffffffffffff021916908373ffffffffffffffffffffffffffffffffffffffff16021790555085600360040160008373ffffffffffffffffffffffffffffffffffffffff1673ffffffffffffffffffffffffffffffffffffffff16815260200190815260200160002060010160006101000a81548173ffffffffffffffffffffffffffffffffffffffff021916908373ffffffffffffffffffffffffffffffffffffffff1602179055505b5b5b6001600380016000828254611c4d9190613336565b925050819055507fe02b43adbee0c123de070a04554a71877a0007e2fc161466299cae3c094fe82f8686604051611c8592919061338c565b60405180910390a150505050505050565b60008073ffffffffffffffffffffffffffffffffffffffff168373ffffffffffffffffffffffffffffffffffffffff16148015611cff5750600073ffffffffffffffffffffffffffffffffffffffff168273ffffffffffffffffffffffffffffffffffffffff16145b15611d1357611d0c610697565b90506120dc565b600073ffffffffffffffffffffffffffffffffffffffff168373ffffffffffffffffffffffffffffffffffffffff1603611e27578173ffffffffffffffffffffffffffffffffffffffff16600360000160009054906101000a900473ffffffffffffffffffffffffffffffffffffffff1673ffffffffffffffffffffffffffffffffffffffff16148015611e2057508473ffffffffffffffffffffffffffffffffffffffff1663b0d8e181836040518263ffffffff1660e01b8152600401611ddb9190612ab7565b602060405180830381865afa158015611df8573d6000803e3d6000fd5b505050506040513d601f19601f82011682018060405250810190611e1c91906133ca565b8410155b90506120dc565b600073ffffffffffffffffffffffffffffffffffffffff168273ffffffffffffffffffffffffffffffffffffffff1603611f3b578273ffffffffffffffffffffffffffffffffffffffff16600360010160009054906101000a900473ffffffffffffffffffffffffffffffffffffffff1673ffffffffffffffffffffffffffffffffffffffff16148015611f3457508473ffffffffffffffffffffffffffffffffffffffff1663b0d8e181846040518263ffffffff1660e01b8152600401611eef9190612ab7565b602060405180830381865afa158015611f0c573d6000803e3d6000fd5b505050506040513d601f19601f82011682018060405250810190611f3091906133ca565b8411155b90506120dc565b8173ffffffffffffffffffffffffffffffffffffffff16600360040160008573ffffffffffffffffffffffffffffffffffffffff1673ffffffffffffffffffffffffffffffffffffffff16815260200190815260200160002060000160019054906101000a900473ffffffffffffffffffffffffffffffffffffffff1673ffffffffffffffffffffffffffffffffffffffff161480156120545750838573ffffffffffffffffffffffffffffffffffffffff1663b0d8e181856040518263ffffffff1660e01b81526004016120109190612ab7565b602060405180830381865afa15801561202d573d6000803e3d6000fd5b505050506040513d601f19601f8201168201806040525081019061205191906133ca565b10155b80156120d957508473ffffffffffffffffffffffffffffffffffffffff1663b0d8e181836040518263ffffffff1660e01b81526004016120949190612ab7565b602060405180830381865afa1580156120b1573d6000803e3d6000fd5b505050506040513d601f19601f820116820180604052508101906120d591906133ca565b8410155b90505b949350505050565b60008060008490506000849050600073ffffffffffffffffffffffffffffffffffffffff168273ffffffffffffffffffffffffffffffffffffffff16146121bd5761212e8261062e565b15806121b257508773ffffffffffffffffffffffffffffffffffffffff1663b0d8e181836040518263ffffffff1660e01b815260040161216e9190612ab7565b602060405180830381865afa15801561218b573d6000803e3d6000fd5b505050506040513d601f19601f820116820180604052508101906121af91906133ca565b87115b156121bc57600091505b5b600073ffffffffffffffffffffffffffffffffffffffff168173ffffffffffffffffffffffffffffffffffffffff1614612289576121fa8161062e565b158061227e57508773ffffffffffffffffffffffffffffffffffffffff1663b0d8e181826040518263ffffffff1660e01b815260040161223a9190612ab7565b602060405180830381865afa158015612257573d6000803e3d6000fd5b505050506040513d601f19601f8201168201806040525081019061227b91906133ca565b87105b1561228857600090505b5b600073ffffffffffffffffffffffffffffffffffffffff168273ffffffffffffffffffffffffffffffffffffffff161480156122f15750600073ffffffffffffffffffffffffffffffffffffffff168173ffffffffffffffffffffffffffffffffffffffff16145b15612331576123268888600360000160009054906101000a900473ffffffffffffffffffffffffffffffffffffffff1661255a565b9350935050506123d7565b600073ffffffffffffffffffffffffffffffffffffffff168273ffffffffffffffffffffffffffffffffffffffff160361237b576123708888836127e8565b9350935050506123d7565b600073ffffffffffffffffffffffffffffffffffffffff168173ffffffffffffffffffffffffffffffffffffffff16036123c5576123ba88888461255a565b9350935050506123d7565b6123d088888461255a565b9350935050505b94509492505050565b600073ffffffffffffffffffffffffffffffffffffffff168173ffffffffffffffffffffffffffffffffffffffff160361244f576040517f08c379a000000000000000000000000000000000000000000000000000000000815260040161244690613443565b60405180910390fd5b6000813b905060008111612498576040517f08c379a000000000000000000000000000000000000000000000000000000000815260040161248f906134af565b60405180910390fd5b5050565b600073ffffffffffffffffffffffffffffffffffffffff1660008054906101000a900473ffffffffffffffffffffffffffffffffffffffff1673ffffffffffffffffffffffffffffffffffffffff167f8be0079c531659141344cd1fd0a4f28419497f9722a3daafe3b4186f6b6457e060405160405180910390a360008060006101000a81548173ffffffffffffffffffffffffffffffffffffffff021916908373ffffffffffffffffffffffffffffffffffffffff160217905550565b6000808273ffffffffffffffffffffffffffffffffffffffff16600360000160009054906101000a900473ffffffffffffffffffffffffffffffffffffffff1673ffffffffffffffffffffffffffffffffffffffff1614801561263657508473ffffffffffffffffffffffffffffffffffffffff1663b0d8e181846040518263ffffffff1660e01b81526004016125f19190612ab7565b602060405180830381865afa15801561260e573d6000803e3d6000fd5b505050506040513d601f19601f8201168201806040525081019061263291906133ca565b8410155b1561264757600083915091506127e0565b60008390506000600360040160008373ffffffffffffffffffffffffffffffffffffffff1673ffffffffffffffffffffffffffffffffffffffff16815260200190815260200160002060000160019054906101000a900473ffffffffffffffffffffffffffffffffffffffff1690505b600073ffffffffffffffffffffffffffffffffffffffff168273ffffffffffffffffffffffffffffffffffffffff16141580156126fd57506126fb87878484611c96565b155b156127d757600360040160008373ffffffffffffffffffffffffffffffffffffffff1673ffffffffffffffffffffffffffffffffffffffff16815260200190815260200160002060000160019054906101000a900473ffffffffffffffffffffffffffffffffffffffff169150600360040160008373ffffffffffffffffffffffffffffffffffffffff1673ffffffffffffffffffffffffffffffffffffffff16815260200190815260200160002060000160019054906101000a900473ffffffffffffffffffffffffffffffffffffffff1690506126b7565b81819350935050505b935093915050565b6000808273ffffffffffffffffffffffffffffffffffffffff16600360010160009054906101000a900473ffffffffffffffffffffffffffffffffffffffff1673ffffffffffffffffffffffffffffffffffffffff161480156128c457508473ffffffffffffffffffffffffffffffffffffffff1663b0d8e181846040518263ffffffff1660e01b815260040161287f9190612ab7565b602060405180830381865afa15801561289c573d6000803e3d6000fd5b505050506040513d601f19601f820116820180604052508101906128c091906133ca565b8411155b156128d55782600091509150612a6e565b60008390506000600360040160008373ffffffffffffffffffffffffffffffffffffffff1673ffffffffffffffffffffffffffffffffffffffff16815260200190815260200160002060010160009054906101000a900473ffffffffffffffffffffffffffffffffffffffff1690505b600073ffffffffffffffffffffffffffffffffffffffff168273ffffffffffffffffffffffffffffffffffffffff161415801561298b575061298987878385611c96565b155b15612a6557600360040160008373ffffffffffffffffffffffffffffffffffffffff1673ffffffffffffffffffffffffffffffffffffffff16815260200190815260200160002060010160009054906101000a900473ffffffffffffffffffffffffffffffffffffffff169150600360040160008373ffffffffffffffffffffffffffffffffffffffff1673ffffffffffffffffffffffffffffffffffffffff16815260200190815260200160002060010160009054906101000a900473ffffffffffffffffffffffffffffffffffffffff169050612945565b80829350935050505b935093915050565b600073ffffffffffffffffffffffffffffffffffffffff82169050919050565b6000612aa182612a76565b9050919050565b612ab181612a96565b82525050565b6000602082019050612acc6000830184612aa8565b92915050565b600080fd5b612ae081612a96565b8114612aeb57600080fd5b50565b600081359050612afd81612ad7565b92915050565b600060208284031215612b1957612b18612ad2565b5b6000612b2784828501612aee565b91505092915050565b6000819050919050565b612b4381612b30565b8114612b4e57600080fd5b50565b600081359050612b6081612b3a565b92915050565b60008060008060808587031215612b8057612b7f612ad2565b5b6000612b8e87828801612aee565b9450506020612b9f87828801612b51565b9350506040612bb087828801612aee565b9250506060612bc187828801612aee565b91505092959194509250565b6000819050919050565b6000612bf2612bed612be884612a76565b612bcd565b612a76565b9050919050565b6000612c0482612bd7565b9050919050565b6000612c1682612bf9565b9050919050565b612c2681612c0b565b82525050565b6000602082019050612c416000830184612c1d565b92915050565b600080600060608486031215612c6057612c5f612ad2565b5b6000612c6e86828701612b51565b9350506020612c7f86828701612aee565b9250506040612c9086828701612aee565b9150509250925092565b60008115159050919050565b612caf81612c9a565b82525050565b6000602082019050612cca6000830184612ca6565b92915050565b6000604082019050612ce56000830185612aa8565b612cf26020830184612aa8565b9392505050565b612d0281612b30565b82525050565b6000602082019050612d1d6000830184612cf9565b92915050565b6000608082019050612d386000830187612aa8565b612d456020830186612aa8565b612d526040830185612cf9565b612d5f6060830184612cf9565b95945050505050565b600081519050919050565b600082825260208201905092915050565b60005b83811015612da2578082015181840152602081019050612d87565b83811115612db1576000848401525b50505050565b6000601f19601f8301169050919050565b6000612dd382612d68565b612ddd8185612d73565b9350612ded818560208601612d84565b612df681612db7565b840191505092915050565b60006020820190508181036000830152612e1b8184612dc8565b905092915050565b7f536f7274656454726f7665733a204c69737420646f6573206e6f7420636f6e7460008201527f61696e2074686520696400000000000000000000000000000000000000000000602082015250565b6000612e7f602a83612d73565b9150612e8a82612e23565b604082019050919050565b60006020820190508181036000830152612eae81612e72565b9050919050565b7f536f7274656454726f7665733a204e494352206d75737420626520706f73697460008201527f6976650000000000000000000000000000000000000000000000000000000000602082015250565b6000612f11602383612d73565b9150612f1c82612eb5565b604082019050919050565b60006020820190508181036000830152612f4081612f04565b9050919050565b7f4f776e61626c653a2063616c6c6572206973206e6f7420746865206f776e6572600082015250565b6000612f7d602083612d73565b9150612f8882612f47565b602082019050919050565b60006020820190508181036000830152612fac81612f70565b9050919050565b7f536f7274656454726f7665733a2053697a652063616e206e6f74206265207a6560008201527f726f000000000000000000000000000000000000000000000000000000000000602082015250565b600061300f602283612d73565b915061301a82612fb3565b604082019050919050565b6000602082019050818103600083015261303e81613002565b9050919050565b7f536f7274656454726f7665733a2043616c6c6572206973206e6f74207468652060008201527f54726f76654d616e616765720000000000000000000000000000000000000000602082015250565b60006130a1602c83612d73565b91506130ac82613045565b604082019050919050565b600060208201905081810360008301526130d081613094565b9050919050565b7f4e487b7100000000000000000000000000000000000000000000000000000000600052601160045260246000fd5b600061311182612b30565b915061311c83612b30565b92508282101561312f5761312e6130d7565b5b828203905092915050565b7f536f7274656454726f7665733a2043616c6c6572206973206e6569746865722060008201527f424f206e6f722054726f76654d00000000000000000000000000000000000000602082015250565b6000613196602d83612d73565b91506131a18261313a565b604082019050919050565b600060208201905081810360008301526131c581613189565b9050919050565b7f536f7274656454726f7665733a204c6973742069732066756c6c000000000000600082015250565b6000613202601a83612d73565b915061320d826131cc565b602082019050919050565b60006020820190508181036000830152613231816131f5565b9050919050565b7f536f7274656454726f7665733a204c69737420616c726561647920636f6e746160008201527f696e7320746865206e6f64650000000000000000000000000000000000000000602082015250565b6000613294602c83612d73565b915061329f82613238565b604082019050919050565b600060208201905081810360008301526132c381613287565b9050919050565b7f536f7274656454726f7665733a2049642063616e6e6f74206265207a65726f00600082015250565b6000613300601f83612d73565b915061330b826132ca565b602082019050919050565b6000602082019050818103600083015261332f816132f3565b9050919050565b600061334182612b30565b915061334c83612b30565b9250827fffffffffffffffffffffffffffffffffffffffffffffffffffffffffffffffff03821115613381576133806130d7565b5b828201905092915050565b60006040820190506133a16000830185612aa8565b6133ae6020830184612cf9565b9392505050565b6000815190506133c481612b3a565b92915050565b6000602082840312156133e0576133df612ad2565b5b60006133ee848285016133b5565b91505092915050565b7f4163636f756e742063616e6e6f74206265207a65726f20616464726573730000600082015250565b600061342d601e83612d73565b9150613438826133f7565b602082019050919050565b6000602082019050818103600083015261345c81613420565b9050919050565b7f4163636f756e7420636f64652073697a652063616e6e6f74206265207a65726f600082015250565b6000613499602083612d73565b91506134a482613463565b602082019050919050565b600060208201905081810360008301526134c88161348c565b905091905056fea264697066735822122032bbb2be613d99babb38e2e2fa01ddad172762fac1a9c31ff5c421c120e1199164736f6c634300080f0033",
					"opcodes": "PUSH1 0x80 PUSH1 0x40 MSTORE CALLVALUE DUP1 ISZERO PUSH2 0x10 JUMPI PUSH1 0x0 DUP1 REVERT JUMPDEST POP CALLER PUSH1 0x0 DUP1 PUSH2 0x100 EXP DUP2 SLOAD DUP2 PUSH20 0xFFFFFFFFFFFFFFFFFFFFFFFFFFFFFFFFFFFFFFFF MUL NOT AND SWAP1 DUP4 PUSH20 0xFFFFFFFFFFFFFFFFFFFFFFFFFFFFFFFFFFFFFFFF AND MUL OR SWAP1 SSTORE POP CALLER PUSH20 0xFFFFFFFFFFFFFFFFFFFFFFFFFFFFFFFFFFFFFFFF AND PUSH1 0x0 PUSH20 0xFFFFFFFFFFFFFFFFFFFFFFFFFFFFFFFFFFFFFFFF AND PUSH32 0x8BE0079C531659141344CD1FD0A4F28419497F9722A3DAAFE3B4186F6B6457E0 PUSH1 0x40 MLOAD PUSH1 0x40 MLOAD DUP1 SWAP2 SUB SWAP1 LOG3 PUSH2 0x3505 DUP1 PUSH2 0xBB PUSH1 0x0 CODECOPY PUSH1 0x0 RETURN INVALID PUSH1 0x80 PUSH1 0x40 MSTORE CALLVALUE DUP1 ISZERO PUSH2 0x10 JUMPI PUSH1 0x0 DUP1 REVERT JUMPDEST POP PUSH1 0x4 CALLDATASIZE LT PUSH2 0x137 JUMPI PUSH1 0x0 CALLDATALOAD PUSH1 0xE0 SHR DUP1 PUSH4 0x681FE70C GT PUSH2 0xB8 JUMPI DUP1 PUSH4 0xA3F4DF7E GT PUSH2 0x7C JUMPI DUP1 PUSH4 0xA3F4DF7E EQ PUSH2 0x344 JUMPI DUP1 PUSH4 0xB72703AC EQ PUSH2 0x362 JUMPI DUP1 PUSH4 0xB7F8CF9B EQ PUSH2 0x392 JUMPI DUP1 PUSH4 0xBABD3D9A EQ PUSH2 0x3B0 JUMPI DUP1 PUSH4 0xDE8FA431 EQ PUSH2 0x3CE JUMPI DUP1 PUSH4 0xF376D798 EQ PUSH2 0x3EC JUMPI PUSH2 0x137 JUMP JUMPDEST DUP1 PUSH4 0x681FE70C EQ PUSH2 0x299 JUMPI DUP1 PUSH4 0x73D4A13A EQ PUSH2 0x2B7 JUMPI DUP1 PUSH4 0x765E0159 EQ PUSH2 0x2D8 JUMPI DUP1 PUSH4 0x8DA5CB5B EQ PUSH2 0x308 JUMPI DUP1 PUSH4 0x8F32D59B EQ PUSH2 0x326 JUMPI PUSH2 0x137 JUMP JUMPDEST DUP1 PUSH4 0x416980DC GT PUSH2 0xFF JUMPI DUP1 PUSH4 0x416980DC EQ PUSH2 0x1E0 JUMPI DUP1 PUSH4 0x46F7CF87 EQ PUSH2 0x211 JUMPI DUP1 PUSH4 0x4D622831 EQ PUSH2 0x22D JUMPI DUP1 PUSH4 0x5DBE47E8 EQ PUSH2 0x24B JUMPI DUP1 PUSH4 0x63E1D57C EQ PUSH2 0x27B JUMPI PUSH2 0x137 JUMP JUMPDEST DUP1 PUSH4 0x1E223143 EQ PUSH2 0x13C JUMPI DUP1 PUSH4 0x29092D0E EQ PUSH2 0x15A JUMPI DUP1 PUSH4 0x2BE21260 EQ PUSH2 0x176 JUMPI DUP1 PUSH4 0x3D83908A EQ PUSH2 0x192 JUMPI DUP1 PUSH4 0x3FCE12D5 EQ PUSH2 0x1B0 JUMPI JUMPDEST PUSH1 0x0 DUP1 REVERT JUMPDEST PUSH2 0x144 PUSH2 0x408 JUMP JUMPDEST PUSH1 0x40 MLOAD PUSH2 0x151 SWAP2 SWAP1 PUSH2 0x2AB7 JUMP JUMPDEST PUSH1 0x40 MLOAD DUP1 SWAP2 SUB SWAP1 RETURN JUMPDEST PUSH2 0x174 PUSH1 0x4 DUP1 CALLDATASIZE SUB DUP2 ADD SWAP1 PUSH2 0x16F SWAP2 SWAP1 PUSH2 0x2B03 JUMP JUMPDEST PUSH2 0x435 JUMP JUMPDEST STOP JUMPDEST PUSH2 0x190 PUSH1 0x4 DUP1 CALLDATASIZE SUB DUP2 ADD SWAP1 PUSH2 0x18B SWAP2 SWAP1 PUSH2 0x2B66 JUMP JUMPDEST PUSH2 0x449 JUMP JUMPDEST STOP JUMPDEST PUSH2 0x19A PUSH2 0x521 JUMP JUMPDEST PUSH1 0x40 MLOAD PUSH2 0x1A7 SWAP2 SWAP1 PUSH2 0x2C2C JUMP JUMPDEST PUSH1 0x40 MLOAD DUP1 SWAP2 SUB SWAP1 RETURN JUMPDEST PUSH2 0x1CA PUSH1 0x4 DUP1 CALLDATASIZE SUB DUP2 ADD SWAP1 PUSH2 0x1C5 SWAP2 SWAP1 PUSH2 0x2C47 JUMP JUMPDEST PUSH2 0x547 JUMP JUMPDEST PUSH1 0x40 MLOAD PUSH2 0x1D7 SWAP2 SWAP1 PUSH2 0x2CB5 JUMP JUMPDEST PUSH1 0x40 MLOAD DUP1 SWAP2 SUB SWAP1 RETURN JUMPDEST PUSH2 0x1FA PUSH1 0x4 DUP1 CALLDATASIZE SUB DUP2 ADD SWAP1 PUSH2 0x1F5 SWAP2 SWAP1 PUSH2 0x2C47 JUMP JUMPDEST PUSH2 0x580 JUMP JUMPDEST PUSH1 0x40 MLOAD PUSH2 0x208 SWAP3 SWAP2 SWAP1 PUSH2 0x2CD0 JUMP JUMPDEST PUSH1 0x40 MLOAD DUP1 SWAP2 SUB SWAP1 RETURN JUMPDEST PUSH2 0x22B PUSH1 0x4 DUP1 CALLDATASIZE SUB DUP2 ADD SWAP1 PUSH2 0x226 SWAP2 SWAP1 PUSH2 0x2B66 JUMP JUMPDEST PUSH2 0x5BD JUMP JUMPDEST STOP JUMPDEST PUSH2 0x235 PUSH2 0x601 JUMP JUMPDEST PUSH1 0x40 MLOAD PUSH2 0x242 SWAP2 SWAP1 PUSH2 0x2AB7 JUMP JUMPDEST PUSH1 0x40 MLOAD DUP1 SWAP2 SUB SWAP1 RETURN JUMPDEST PUSH2 0x265 PUSH1 0x4 DUP1 CALLDATASIZE SUB DUP2 ADD SWAP1 PUSH2 0x260 SWAP2 SWAP1 PUSH2 0x2B03 JUMP JUMPDEST PUSH2 0x62E JUMP JUMPDEST PUSH1 0x40 MLOAD PUSH2 0x272 SWAP2 SWAP1 PUSH2 0x2CB5 JUMP JUMPDEST PUSH1 0x40 MLOAD DUP1 SWAP2 SUB SWAP1 RETURN JUMPDEST PUSH2 0x283 PUSH2 0x68A JUMP JUMPDEST PUSH1 0x40 MLOAD PUSH2 0x290 SWAP2 SWAP1 PUSH2 0x2D08 JUMP JUMPDEST PUSH1 0x40 MLOAD DUP1 SWAP2 SUB SWAP1 RETURN JUMPDEST PUSH2 0x2A1 PUSH2 0x697 JUMP JUMPDEST PUSH1 0x40 MLOAD PUSH2 0x2AE SWAP2 SWAP1 PUSH2 0x2CB5 JUMP JUMPDEST PUSH1 0x40 MLOAD DUP1 SWAP2 SUB SWAP1 RETURN JUMPDEST PUSH2 0x2BF PUSH2 0x6A5 JUMP JUMPDEST PUSH1 0x40 MLOAD PUSH2 0x2CF SWAP5 SWAP4 SWAP3 SWAP2 SWAP1 PUSH2 0x2D23 JUMP JUMPDEST PUSH1 0x40 MLOAD DUP1 SWAP2 SUB SWAP1 RETURN JUMPDEST PUSH2 0x2F2 PUSH1 0x4 DUP1 CALLDATASIZE SUB DUP2 ADD SWAP1 PUSH2 0x2ED SWAP2 SWAP1 PUSH2 0x2B03 JUMP JUMPDEST PUSH2 0x703 JUMP JUMPDEST PUSH1 0x40 MLOAD PUSH2 0x2FF SWAP2 SWAP1 PUSH2 0x2AB7 JUMP JUMPDEST PUSH1 0x40 MLOAD DUP1 SWAP2 SUB SWAP1 RETURN JUMPDEST PUSH2 0x310 PUSH2 0x772 JUMP JUMPDEST PUSH1 0x40 MLOAD PUSH2 0x31D SWAP2 SWAP1 PUSH2 0x2AB7 JUMP JUMPDEST PUSH1 0x40 MLOAD DUP1 SWAP2 SUB SWAP1 RETURN JUMPDEST PUSH2 0x32E PUSH2 0x79B JUMP JUMPDEST PUSH1 0x40 MLOAD PUSH2 0x33B SWAP2 SWAP1 PUSH2 0x2CB5 JUMP JUMPDEST PUSH1 0x40 MLOAD DUP1 SWAP2 SUB SWAP1 RETURN JUMPDEST PUSH2 0x34C PUSH2 0x7F2 JUMP JUMPDEST PUSH1 0x40 MLOAD PUSH2 0x359 SWAP2 SWAP1 PUSH2 0x2E01 JUMP JUMPDEST PUSH1 0x40 MLOAD DUP1 SWAP2 SUB SWAP1 RETURN JUMPDEST PUSH2 0x37C PUSH1 0x4 DUP1 CALLDATASIZE SUB DUP2 ADD SWAP1 PUSH2 0x377 SWAP2 SWAP1 PUSH2 0x2B03 JUMP JUMPDEST PUSH2 0x82B JUMP JUMPDEST PUSH1 0x40 MLOAD PUSH2 0x389 SWAP2 SWAP1 PUSH2 0x2AB7 JUMP JUMPDEST PUSH1 0x40 MLOAD DUP1 SWAP2 SUB SWAP1 RETURN JUMPDEST PUSH2 0x39A PUSH2 0x89A JUMP JUMPDEST PUSH1 0x40 MLOAD PUSH2 0x3A7 SWAP2 SWAP1 PUSH2 0x2AB7 JUMP JUMPDEST PUSH1 0x40 MLOAD DUP1 SWAP2 SUB SWAP1 RETURN JUMPDEST PUSH2 0x3B8 PUSH2 0x8C0 JUMP JUMPDEST PUSH1 0x40 MLOAD PUSH2 0x3C5 SWAP2 SWAP1 PUSH2 0x2CB5 JUMP JUMPDEST PUSH1 0x40 MLOAD DUP1 SWAP2 SUB SWAP1 RETURN JUMPDEST PUSH2 0x3D6 PUSH2 0x8D3 JUMP JUMPDEST PUSH1 0x40 MLOAD PUSH2 0x3E3 SWAP2 SWAP1 PUSH2 0x2D08 JUMP JUMPDEST PUSH1 0x40 MLOAD DUP1 SWAP2 SUB SWAP1 RETURN JUMPDEST PUSH2 0x406 PUSH1 0x4 DUP1 CALLDATASIZE SUB DUP2 ADD SWAP1 PUSH2 0x401 SWAP2 SWAP1 PUSH2 0x2C47 JUMP JUMPDEST PUSH2 0x8DF JUMP JUMPDEST STOP JUMPDEST PUSH1 0x0 PUSH1 0x3 PUSH1 0x0 ADD PUSH1 0x0 SWAP1 SLOAD SWAP1 PUSH2 0x100 EXP SWAP1 DIV PUSH20 0xFFFFFFFFFFFFFFFFFFFFFFFFFFFFFFFFFFFFFFFF AND SWAP1 POP SWAP1 JUMP JUMPDEST PUSH2 0x43D PUSH2 0xA82 JUMP JUMPDEST PUSH2 0x446 DUP2 PUSH2 0xB14 JUMP JUMPDEST POP JUMP JUMPDEST PUSH1 0x0 PUSH1 0x2 PUSH1 0x0 SWAP1 SLOAD SWAP1 PUSH2 0x100 EXP SWAP1 DIV PUSH20 0xFFFFFFFFFFFFFFFFFFFFFFFFFFFFFFFFFFFFFFFF AND SWAP1 POP PUSH2 0x479 DUP2 PUSH2 0x12F4 JUMP JUMPDEST PUSH2 0x482 DUP6 PUSH2 0x62E JUMP JUMPDEST PUSH2 0x4C1 JUMPI PUSH1 0x40 MLOAD PUSH32 0x8C379A000000000000000000000000000000000000000000000000000000000 DUP2 MSTORE PUSH1 0x4 ADD PUSH2 0x4B8 SWAP1 PUSH2 0x2E95 JUMP JUMPDEST PUSH1 0x40 MLOAD DUP1 SWAP2 SUB SWAP1 REVERT JUMPDEST PUSH1 0x0 DUP5 GT PUSH2 0x504 JUMPI PUSH1 0x40 MLOAD PUSH32 0x8C379A000000000000000000000000000000000000000000000000000000000 DUP2 MSTORE PUSH1 0x4 ADD PUSH2 0x4FB SWAP1 PUSH2 0x2F27 JUMP JUMPDEST PUSH1 0x40 MLOAD DUP1 SWAP2 SUB SWAP1 REVERT JUMPDEST PUSH2 0x50D DUP6 PUSH2 0xB14 JUMP JUMPDEST PUSH2 0x51A DUP2 DUP7 DUP7 DUP7 DUP7 PUSH2 0x13BD JUMP JUMPDEST POP POP POP POP POP JUMP JUMPDEST PUSH1 0x2 PUSH1 0x0 SWAP1 SLOAD SWAP1 PUSH2 0x100 EXP SWAP1 DIV PUSH20 0xFFFFFFFFFFFFFFFFFFFFFFFFFFFFFFFFFFFFFFFF AND DUP2 JUMP JUMPDEST PUSH1 0x0 PUSH2 0x577 PUSH1 0x2 PUSH1 0x0 SWAP1 SLOAD SWAP1 PUSH2 0x100 EXP SWAP1 DIV PUSH20 0xFFFFFFFFFFFFFFFFFFFFFFFFFFFFFFFFFFFFFFFF AND DUP6 DUP6 DUP6 PUSH2 0x1C96 JUMP JUMPDEST SWAP1 POP SWAP4 SWAP3 POP POP POP JUMP JUMPDEST PUSH1 0x0 DUP1 PUSH2 0x5B1 PUSH1 0x2 PUSH1 0x0 SWAP1 SLOAD SWAP1 PUSH2 0x100 EXP SWAP1 DIV PUSH20 0xFFFFFFFFFFFFFFFFFFFFFFFFFFFFFFFFFFFFFFFF AND DUP7 DUP7 DUP7 PUSH2 0x20E4 JUMP JUMPDEST SWAP2 POP SWAP2 POP SWAP4 POP SWAP4 SWAP2 POP POP JUMP JUMPDEST PUSH1 0x0 PUSH1 0x2 PUSH1 0x0 SWAP1 SLOAD SWAP1 PUSH2 0x100 EXP SWAP1 DIV PUSH20 0xFFFFFFFFFFFFFFFFFFFFFFFFFFFFFFFFFFFFFFFF AND SWAP1 POP PUSH2 0x5ED DUP2 PUSH2 0x12F4 JUMP JUMPDEST PUSH2 0x5FA DUP2 DUP7 DUP7 DUP7 DUP7 PUSH2 0x13BD JUMP JUMPDEST POP POP POP POP POP JUMP JUMPDEST PUSH1 0x0 PUSH1 0x3 PUSH1 0x1 ADD PUSH1 0x0 SWAP1 SLOAD SWAP1 PUSH2 0x100 EXP SWAP1 DIV PUSH20 0xFFFFFFFFFFFFFFFFFFFFFFFFFFFFFFFFFFFFFFFF AND SWAP1 POP SWAP1 JUMP JUMPDEST PUSH1 0x0 PUSH1 0x3 PUSH1 0x4 ADD PUSH1 0x0 DUP4 PUSH20 0xFFFFFFFFFFFFFFFFFFFFFFFFFFFFFFFFFFFFFFFF AND PUSH20 0xFFFFFFFFFFFFFFFFFFFFFFFFFFFFFFFFFFFFFFFF AND DUP2 MSTORE PUSH1 0x20 ADD SWAP1 DUP2 MSTORE PUSH1 0x20 ADD PUSH1 0x0 KECCAK256 PUSH1 0x0 ADD PUSH1 0x0 SWAP1 SLOAD SWAP1 PUSH2 0x100 EXP SWAP1 DIV PUSH1 0xFF AND SWAP1 POP SWAP2 SWAP1 POP JUMP JUMPDEST PUSH1 0x0 PUSH1 0x3 PUSH1 0x2 ADD SLOAD SWAP1 POP SWAP1 JUMP JUMPDEST PUSH1 0x0 DUP1 PUSH1 0x3 DUP1 ADD SLOAD EQ SWAP1 POP SWAP1 JUMP JUMPDEST PUSH1 0x3 DUP1 PUSH1 0x0 ADD PUSH1 0x0 SWAP1 SLOAD SWAP1 PUSH2 0x100 EXP SWAP1 DIV PUSH20 0xFFFFFFFFFFFFFFFFFFFFFFFFFFFFFFFFFFFFFFFF AND SWAP1 DUP1 PUSH1 0x1 ADD PUSH1 0x0 SWAP1 SLOAD SWAP1 PUSH2 0x100 EXP SWAP1 DIV PUSH20 0xFFFFFFFFFFFFFFFFFFFFFFFFFFFFFFFFFFFFFFFF AND SWAP1 DUP1 PUSH1 0x2 ADD SLOAD SWAP1 DUP1 PUSH1 0x3 ADD SLOAD SWAP1 POP DUP5 JUMP JUMPDEST PUSH1 0x0 PUSH1 0x3 PUSH1 0x4 ADD PUSH1 0x0 DUP4 PUSH20 0xFFFFFFFFFFFFFFFFFFFFFFFFFFFFFFFFFFFFFFFF AND PUSH20 0xFFFFFFFFFFFFFFFFFFFFFFFFFFFFFFFFFFFFFFFF AND DUP2 MSTORE PUSH1 0x20 ADD SWAP1 DUP2 MSTORE PUSH1 0x20 ADD PUSH1 0x0 KECCAK256 PUSH1 0x0 ADD PUSH1 0x1 SWAP1 SLOAD SWAP1 PUSH2 0x100 EXP SWAP1 DIV PUSH20 0xFFFFFFFFFFFFFFFFFFFFFFFFFFFFFFFFFFFFFFFF AND SWAP1 POP SWAP2 SWAP1 POP JUMP JUMPDEST PUSH1 0x0 DUP1 PUSH1 0x0 SWAP1 SLOAD SWAP1 PUSH2 0x100 EXP SWAP1 DIV PUSH20 0xFFFFFFFFFFFFFFFFFFFFFFFFFFFFFFFFFFFFFFFF AND SWAP1 POP SWAP1 JUMP JUMPDEST PUSH1 0x0 DUP1 PUSH1 0x0 SWAP1 SLOAD SWAP1 PUSH2 0x100 EXP SWAP1 DIV PUSH20 0xFFFFFFFFFFFFFFFFFFFFFFFFFFFFFFFFFFFFFFFF AND PUSH20 0xFFFFFFFFFFFFFFFFFFFFFFFFFFFFFFFFFFFFFFFF AND CALLER PUSH20 0xFFFFFFFFFFFFFFFFFFFFFFFFFFFFFFFFFFFFFFFF AND EQ SWAP1 POP SWAP1 JUMP JUMPDEST PUSH1 0x40 MLOAD DUP1 PUSH1 0x40 ADD PUSH1 0x40 MSTORE DUP1 PUSH1 0xC DUP2 MSTORE PUSH1 0x20 ADD PUSH32 0x536F7274656454726F7665730000000000000000000000000000000000000000 DUP2 MSTORE POP DUP2 JUMP JUMPDEST PUSH1 0x0 PUSH1 0x3 PUSH1 0x4 ADD PUSH1 0x0 DUP4 PUSH20 0xFFFFFFFFFFFFFFFFFFFFFFFFFFFFFFFFFFFFFFFF AND PUSH20 0xFFFFFFFFFFFFFFFFFFFFFFFFFFFFFFFFFFFFFFFF AND DUP2 MSTORE PUSH1 0x20 ADD SWAP1 DUP2 MSTORE PUSH1 0x20 ADD PUSH1 0x0 KECCAK256 PUSH1 0x1 ADD PUSH1 0x0 SWAP1 SLOAD SWAP1 PUSH2 0x100 EXP SWAP1 DIV PUSH20 0xFFFFFFFFFFFFFFFFFFFFFFFFFFFFFFFFFFFFFFFF AND SWAP1 POP SWAP2 SWAP1 POP JUMP JUMPDEST PUSH1 0x1 PUSH1 0x0 SWAP1 SLOAD SWAP1 PUSH2 0x100 EXP SWAP1 DIV PUSH20 0xFFFFFFFFFFFFFFFFFFFFFFFFFFFFFFFFFFFFFFFF AND DUP2 JUMP JUMPDEST PUSH1 0x0 PUSH1 0x3 PUSH1 0x2 ADD SLOAD PUSH1 0x3 DUP1 ADD SLOAD EQ SWAP1 POP SWAP1 JUMP JUMPDEST PUSH1 0x0 PUSH1 0x3 DUP1 ADD SLOAD SWAP1 POP SWAP1 JUMP JUMPDEST PUSH2 0x8E7 PUSH2 0x79B JUMP JUMPDEST PUSH2 0x926 JUMPI PUSH1 0x40 MLOAD PUSH32 0x8C379A000000000000000000000000000000000000000000000000000000000 DUP2 MSTORE PUSH1 0x4 ADD PUSH2 0x91D SWAP1 PUSH2 0x2F93 JUMP JUMPDEST PUSH1 0x40 MLOAD DUP1 SWAP2 SUB SWAP1 REVERT JUMPDEST PUSH1 0x0 DUP4 GT PUSH2 0x969 JUMPI PUSH1 0x40 MLOAD PUSH32 0x8C379A000000000000000000000000000000000000000000000000000000000 DUP2 MSTORE PUSH1 0x4 ADD PUSH2 0x960 SWAP1 PUSH2 0x3025 JUMP JUMPDEST PUSH1 0x40 MLOAD DUP1 SWAP2 SUB SWAP1 REVERT JUMPDEST PUSH2 0x972 DUP3 PUSH2 0x23E0 JUMP JUMPDEST PUSH2 0x97B DUP2 PUSH2 0x23E0 JUMP JUMPDEST DUP3 PUSH1 0x3 PUSH1 0x2 ADD DUP2 SWAP1 SSTORE POP DUP2 PUSH1 0x2 PUSH1 0x0 PUSH2 0x100 EXP DUP2 SLOAD DUP2 PUSH20 0xFFFFFFFFFFFFFFFFFFFFFFFFFFFFFFFFFFFFFFFF MUL NOT AND SWAP1 DUP4 PUSH20 0xFFFFFFFFFFFFFFFFFFFFFFFFFFFFFFFFFFFFFFFF AND MUL OR SWAP1 SSTORE POP DUP1 PUSH1 0x1 PUSH1 0x0 PUSH2 0x100 EXP DUP2 SLOAD DUP2 PUSH20 0xFFFFFFFFFFFFFFFFFFFFFFFFFFFFFFFFFFFFFFFF MUL NOT AND SWAP1 DUP4 PUSH20 0xFFFFFFFFFFFFFFFFFFFFFFFFFFFFFFFFFFFFFFFF AND MUL OR SWAP1 SSTORE POP PUSH32 0x143219C9E69B09E07E095FCC889B43D8F46CA892BBA65F08DC3A0050869A5678 DUP3 PUSH1 0x40 MLOAD PUSH2 0xA36 SWAP2 SWAP1 PUSH2 0x2AB7 JUMP JUMPDEST PUSH1 0x40 MLOAD DUP1 SWAP2 SUB SWAP1 LOG1 PUSH32 0x3CA631FFCD2A9B5D9AE18543FC82F58EB4CA33AF9E6AB01B7A8E95331E6ED985 DUP2 PUSH1 0x40 MLOAD PUSH2 0xA6D SWAP2 SWAP1 PUSH2 0x2AB7 JUMP JUMPDEST PUSH1 0x40 MLOAD DUP1 SWAP2 SUB SWAP1 LOG1 PUSH2 0xA7D PUSH2 0x249C JUMP JUMPDEST POP POP POP JUMP JUMPDEST PUSH1 0x2 PUSH1 0x0 SWAP1 SLOAD SWAP1 PUSH2 0x100 EXP SWAP1 DIV PUSH20 0xFFFFFFFFFFFFFFFFFFFFFFFFFFFFFFFFFFFFFFFF AND PUSH20 0xFFFFFFFFFFFFFFFFFFFFFFFFFFFFFFFFFFFFFFFF AND CALLER PUSH20 0xFFFFFFFFFFFFFFFFFFFFFFFFFFFFFFFFFFFFFFFF AND EQ PUSH2 0xB12 JUMPI PUSH1 0x40 MLOAD PUSH32 0x8C379A000000000000000000000000000000000000000000000000000000000 DUP2 MSTORE PUSH1 0x4 ADD PUSH2 0xB09 SWAP1 PUSH2 0x30B7 JUMP JUMPDEST PUSH1 0x40 MLOAD DUP1 SWAP2 SUB SWAP1 REVERT JUMPDEST JUMP JUMPDEST PUSH2 0xB1D DUP2 PUSH2 0x62E JUMP JUMPDEST PUSH2 0xB5C JUMPI PUSH1 0x40 MLOAD PUSH32 0x8C379A000000000000000000000000000000000000000000000000000000000 DUP2 MSTORE PUSH1 0x4 ADD PUSH2 0xB53 SWAP1 PUSH2 0x2E95 JUMP JUMPDEST PUSH1 0x40 MLOAD DUP1 SWAP2 SUB SWAP1 REVERT JUMPDEST PUSH1 0x1 PUSH1 0x3 DUP1 ADD SLOAD GT ISZERO PUSH2 0x116C JUMPI PUSH1 0x3 PUSH1 0x0 ADD PUSH1 0x0 SWAP1 SLOAD SWAP1 PUSH2 0x100 EXP SWAP1 DIV PUSH20 0xFFFFFFFFFFFFFFFFFFFFFFFFFFFFFFFFFFFFFFFF AND PUSH20 0xFFFFFFFFFFFFFFFFFFFFFFFFFFFFFFFFFFFFFFFF AND DUP2 PUSH20 0xFFFFFFFFFFFFFFFFFFFFFFFFFFFFFFFFFFFFFFFF AND SUB PUSH2 0xD19 JUMPI PUSH1 0x3 PUSH1 0x4 ADD PUSH1 0x0 DUP3 PUSH20 0xFFFFFFFFFFFFFFFFFFFFFFFFFFFFFFFFFFFFFFFF AND PUSH20 0xFFFFFFFFFFFFFFFFFFFFFFFFFFFFFFFFFFFFFFFF AND DUP2 MSTORE PUSH1 0x20 ADD SWAP1 DUP2 MSTORE PUSH1 0x20 ADD PUSH1 0x0 KECCAK256 PUSH1 0x0 ADD PUSH1 0x1 SWAP1 SLOAD SWAP1 PUSH2 0x100 EXP SWAP1 DIV PUSH20 0xFFFFFFFFFFFFFFFFFFFFFFFFFFFFFFFFFFFFFFFF AND PUSH1 0x3 PUSH1 0x0 ADD PUSH1 0x0 PUSH2 0x100 EXP DUP2 SLOAD DUP2 PUSH20 0xFFFFFFFFFFFFFFFFFFFFFFFFFFFFFFFFFFFFFFFF MUL NOT AND SWAP1 DUP4 PUSH20 0xFFFFFFFFFFFFFFFFFFFFFFFFFFFFFFFFFFFFFFFF AND MUL OR SWAP1 SSTORE POP PUSH1 0x0 PUSH1 0x3 PUSH1 0x4 ADD PUSH1 0x0 PUSH1 0x3 PUSH1 0x0 ADD PUSH1 0x0 SWAP1 SLOAD SWAP1 PUSH2 0x100 EXP SWAP1 DIV PUSH20 0xFFFFFFFFFFFFFFFFFFFFFFFFFFFFFFFFFFFFFFFF AND PUSH20 0xFFFFFFFFFFFFFFFFFFFFFFFFFFFFFFFFFFFFFFFF AND PUSH20 0xFFFFFFFFFFFFFFFFFFFFFFFFFFFFFFFFFFFFFFFF AND DUP2 MSTORE PUSH1 0x20 ADD SWAP1 DUP2 MSTORE PUSH1 0x20 ADD PUSH1 0x0 KECCAK256 PUSH1 0x1 ADD PUSH1 0x0 PUSH2 0x100 EXP DUP2 SLOAD DUP2 PUSH20 0xFFFFFFFFFFFFFFFFFFFFFFFFFFFFFFFFFFFFFFFF MUL NOT AND SWAP1 DUP4 PUSH20 0xFFFFFFFFFFFFFFFFFFFFFFFFFFFFFFFFFFFFFFFF AND MUL OR SWAP1 SSTORE POP PUSH2 0x1167 JUMP JUMPDEST PUSH1 0x3 PUSH1 0x1 ADD PUSH1 0x0 SWAP1 SLOAD SWAP1 PUSH2 0x100 EXP SWAP1 DIV PUSH20 0xFFFFFFFFFFFFFFFFFFFFFFFFFFFFFFFFFFFFFFFF AND PUSH20 0xFFFFFFFFFFFFFFFFFFFFFFFFFFFFFFFFFFFFFFFF AND DUP2 PUSH20 0xFFFFFFFFFFFFFFFFFFFFFFFFFFFFFFFFFFFFFFFF AND SUB PUSH2 0xEC9 JUMPI PUSH1 0x3 PUSH1 0x4 ADD PUSH1 0x0 DUP3 PUSH20 0xFFFFFFFFFFFFFFFFFFFFFFFFFFFFFFFFFFFFFFFF AND PUSH20 0xFFFFFFFFFFFFFFFFFFFFFFFFFFFFFFFFFFFFFFFF AND DUP2 MSTORE PUSH1 0x20 ADD SWAP1 DUP2 MSTORE PUSH1 0x20 ADD PUSH1 0x0 KECCAK256 PUSH1 0x1 ADD PUSH1 0x0 SWAP1 SLOAD SWAP1 PUSH2 0x100 EXP SWAP1 DIV PUSH20 0xFFFFFFFFFFFFFFFFFFFFFFFFFFFFFFFFFFFFFFFF AND PUSH1 0x3 PUSH1 0x1 ADD PUSH1 0x0 PUSH2 0x100 EXP DUP2 SLOAD DUP2 PUSH20 0xFFFFFFFFFFFFFFFFFFFFFFFFFFFFFFFFFFFFFFFF MUL NOT AND SWAP1 DUP4 PUSH20 0xFFFFFFFFFFFFFFFFFFFFFFFFFFFFFFFFFFFFFFFF AND MUL OR SWAP1 SSTORE POP PUSH1 0x0 PUSH1 0x3 PUSH1 0x4 ADD PUSH1 0x0 PUSH1 0x3 PUSH1 0x1 ADD PUSH1 0x0 SWAP1 SLOAD SWAP1 PUSH2 0x100 EXP SWAP1 DIV PUSH20 0xFFFFFFFFFFFFFFFFFFFFFFFFFFFFFFFFFFFFFFFF AND PUSH20 0xFFFFFFFFFFFFFFFFFFFFFFFFFFFFFFFFFFFFFFFF AND PUSH20 0xFFFFFFFFFFFFFFFFFFFFFFFFFFFFFFFFFFFFFFFF AND DUP2 MSTORE PUSH1 0x20 ADD SWAP1 DUP2 MSTORE PUSH1 0x20 ADD PUSH1 0x0 KECCAK256 PUSH1 0x0 ADD PUSH1 0x1 PUSH2 0x100 EXP DUP2 SLOAD DUP2 PUSH20 0xFFFFFFFFFFFFFFFFFFFFFFFFFFFFFFFFFFFFFFFF MUL NOT AND SWAP1 DUP4 PUSH20 0xFFFFFFFFFFFFFFFFFFFFFFFFFFFFFFFFFFFFFFFF AND MUL OR SWAP1 SSTORE POP PUSH2 0x1166 JUMP JUMPDEST PUSH1 0x3 PUSH1 0x4 ADD PUSH1 0x0 DUP3 PUSH20 0xFFFFFFFFFFFFFFFFFFFFFFFFFFFFFFFFFFFFFFFF AND PUSH20 0xFFFFFFFFFFFFFFFFFFFFFFFFFFFFFFFFFFFFFFFF AND DUP2 MSTORE PUSH1 0x20 ADD SWAP1 DUP2 MSTORE PUSH1 0x20 ADD PUSH1 0x0 KECCAK256 PUSH1 0x0 ADD PUSH1 0x1 SWAP1 SLOAD SWAP1 PUSH2 0x100 EXP SWAP1 DIV PUSH20 0xFFFFFFFFFFFFFFFFFFFFFFFFFFFFFFFFFFFFFFFF AND PUSH1 0x3 PUSH1 0x4 ADD PUSH1 0x0 PUSH1 0x3 PUSH1 0x4 ADD PUSH1 0x0 DUP6 PUSH20 0xFFFFFFFFFFFFFFFFFFFFFFFFFFFFFFFFFFFFFFFF AND PUSH20 0xFFFFFFFFFFFFFFFFFFFFFFFFFFFFFFFFFFFFFFFF AND DUP2 MSTORE PUSH1 0x20 ADD SWAP1 DUP2 MSTORE PUSH1 0x20 ADD PUSH1 0x0 KECCAK256 PUSH1 0x1 ADD PUSH1 0x0 SWAP1 SLOAD SWAP1 PUSH2 0x100 EXP SWAP1 DIV PUSH20 0xFFFFFFFFFFFFFFFFFFFFFFFFFFFFFFFFFFFFFFFF AND PUSH20 0xFFFFFFFFFFFFFFFFFFFFFFFFFFFFFFFFFFFFFFFF AND PUSH20 0xFFFFFFFFFFFFFFFFFFFFFFFFFFFFFFFFFFFFFFFF AND DUP2 MSTORE PUSH1 0x20 ADD SWAP1 DUP2 MSTORE PUSH1 0x20 ADD PUSH1 0x0 KECCAK256 PUSH1 0x0 ADD PUSH1 0x1 PUSH2 0x100 EXP DUP2 SLOAD DUP2 PUSH20 0xFFFFFFFFFFFFFFFFFFFFFFFFFFFFFFFFFFFFFFFF MUL NOT AND SWAP1 DUP4 PUSH20 0xFFFFFFFFFFFFFFFFFFFFFFFFFFFFFFFFFFFFFFFF AND MUL OR SWAP1 SSTORE POP PUSH1 0x3 PUSH1 0x4 ADD PUSH1 0x0 DUP3 PUSH20 0xFFFFFFFFFFFFFFFFFFFFFFFFFFFFFFFFFFFFFFFF AND PUSH20 0xFFFFFFFFFFFFFFFFFFFFFFFFFFFFFFFFFFFFFFFF AND DUP2 MSTORE PUSH1 0x20 ADD SWAP1 DUP2 MSTORE PUSH1 0x20 ADD PUSH1 0x0 KECCAK256 PUSH1 0x1 ADD PUSH1 0x0 SWAP1 SLOAD SWAP1 PUSH2 0x100 EXP SWAP1 DIV PUSH20 0xFFFFFFFFFFFFFFFFFFFFFFFFFFFFFFFFFFFFFFFF AND PUSH1 0x3 PUSH1 0x4 ADD PUSH1 0x0 PUSH1 0x3 PUSH1 0x4 ADD PUSH1 0x0 DUP6 PUSH20 0xFFFFFFFFFFFFFFFFFFFFFFFFFFFFFFFFFFFFFFFF AND PUSH20 0xFFFFFFFFFFFFFFFFFFFFFFFFFFFFFFFFFFFFFFFF AND DUP2 MSTORE PUSH1 0x20 ADD SWAP1 DUP2 MSTORE PUSH1 0x20 ADD PUSH1 0x0 KECCAK256 PUSH1 0x0 ADD PUSH1 0x1 SWAP1 SLOAD SWAP1 PUSH2 0x100 EXP SWAP1 DIV PUSH20 0xFFFFFFFFFFFFFFFFFFFFFFFFFFFFFFFFFFFFFFFF AND PUSH20 0xFFFFFFFFFFFFFFFFFFFFFFFFFFFFFFFFFFFFFFFF AND PUSH20 0xFFFFFFFFFFFFFFFFFFFFFFFFFFFFFFFFFFFFFFFF AND DUP2 MSTORE PUSH1 0x20 ADD SWAP1 DUP2 MSTORE PUSH1 0x20 ADD PUSH1 0x0 KECCAK256 PUSH1 0x1 ADD PUSH1 0x0 PUSH2 0x100 EXP DUP2 SLOAD DUP2 PUSH20 0xFFFFFFFFFFFFFFFFFFFFFFFFFFFFFFFFFFFFFFFF MUL NOT AND SWAP1 DUP4 PUSH20 0xFFFFFFFFFFFFFFFFFFFFFFFFFFFFFFFFFFFFFFFF AND MUL OR SWAP1 SSTORE POP JUMPDEST JUMPDEST PUSH2 0x11F7 JUMP JUMPDEST PUSH1 0x0 PUSH1 0x3 PUSH1 0x0 ADD PUSH1 0x0 PUSH2 0x100 EXP DUP2 SLOAD DUP2 PUSH20 0xFFFFFFFFFFFFFFFFFFFFFFFFFFFFFFFFFFFFFFFF MUL NOT AND SWAP1 DUP4 PUSH20 0xFFFFFFFFFFFFFFFFFFFFFFFFFFFFFFFFFFFFFFFF AND MUL OR SWAP1 SSTORE POP PUSH1 0x0 PUSH1 0x3 PUSH1 0x1 ADD PUSH1 0x0 PUSH2 0x100 EXP DUP2 SLOAD DUP2 PUSH20 0xFFFFFFFFFFFFFFFFFFFFFFFFFFFFFFFFFFFFFFFF MUL NOT AND SWAP1 DUP4 PUSH20 0xFFFFFFFFFFFFFFFFFFFFFFFFFFFFFFFFFFFFFFFF AND MUL OR SWAP1 SSTORE POP JUMPDEST PUSH1 0x3 PUSH1 0x4 ADD PUSH1 0x0 DUP3 PUSH20 0xFFFFFFFFFFFFFFFFFFFFFFFFFFFFFFFFFFFFFFFF AND PUSH20 0xFFFFFFFFFFFFFFFFFFFFFFFFFFFFFFFFFFFFFFFF AND DUP2 MSTORE PUSH1 0x20 ADD SWAP1 DUP2 MSTORE PUSH1 0x20 ADD PUSH1 0x0 KECCAK256 PUSH1 0x0 DUP1 DUP3 ADD PUSH1 0x0 PUSH2 0x100 EXP DUP2 SLOAD SWAP1 PUSH1 0xFF MUL NOT AND SWAP1 SSTORE PUSH1 0x0 DUP3 ADD PUSH1 0x1 PUSH2 0x100 EXP DUP2 SLOAD SWAP1 PUSH20 0xFFFFFFFFFFFFFFFFFFFFFFFFFFFFFFFFFFFFFFFF MUL NOT AND SWAP1 SSTORE PUSH1 0x1 DUP3 ADD PUSH1 0x0 PUSH2 0x100 EXP DUP2 SLOAD SWAP1 PUSH20 0xFFFFFFFFFFFFFFFFFFFFFFFFFFFFFFFFFFFFFFFF MUL NOT AND SWAP1 SSTORE POP POP PUSH1 0x1 PUSH1 0x3 DUP1 ADD PUSH1 0x0 DUP3 DUP3 SLOAD PUSH2 0x12B3 SWAP2 SWAP1 PUSH2 0x3106 JUMP JUMPDEST SWAP3 POP POP DUP2 SWAP1 SSTORE POP PUSH32 0xCFC24166DB4BB677E857CACABD1541FB2B30645021B27C5130419589B84DB52B DUP2 PUSH1 0x40 MLOAD PUSH2 0x12E9 SWAP2 SWAP1 PUSH2 0x2AB7 JUMP JUMPDEST PUSH1 0x40 MLOAD DUP1 SWAP2 SUB SWAP1 LOG1 POP JUMP JUMPDEST PUSH1 0x1 PUSH1 0x0 SWAP1 SLOAD SWAP1 PUSH2 0x100 EXP SWAP1 DIV PUSH20 0xFFFFFFFFFFFFFFFFFFFFFFFFFFFFFFFFFFFFFFFF AND PUSH20 0xFFFFFFFFFFFFFFFFFFFFFFFFFFFFFFFFFFFFFFFF AND CALLER PUSH20 0xFFFFFFFFFFFFFFFFFFFFFFFFFFFFFFFFFFFFFFFF AND EQ DUP1 PUSH2 0x137B JUMPI POP DUP1 PUSH20 0xFFFFFFFFFFFFFFFFFFFFFFFFFFFFFFFFFFFFFFFF AND CALLER PUSH20 0xFFFFFFFFFFFFFFFFFFFFFFFFFFFFFFFFFFFFFFFF AND EQ JUMPDEST PUSH2 0x13BA JUMPI PUSH1 0x40 MLOAD PUSH32 0x8C379A000000000000000000000000000000000000000000000000000000000 DUP2 MSTORE PUSH1 0x4 ADD PUSH2 0x13B1 SWAP1 PUSH2 0x31AC JUMP JUMPDEST PUSH1 0x40 MLOAD DUP1 SWAP2 SUB SWAP1 REVERT JUMPDEST POP JUMP JUMPDEST PUSH2 0x13C5 PUSH2 0x8C0 JUMP JUMPDEST ISZERO PUSH2 0x1405 JUMPI PUSH1 0x40 MLOAD PUSH32 0x8C379A000000000000000000000000000000000000000000000000000000000 DUP2 MSTORE PUSH1 0x4 ADD PUSH2 0x13FC SWAP1 PUSH2 0x3218 JUMP JUMPDEST PUSH1 0x40 MLOAD DUP1 SWAP2 SUB SWAP1 REVERT JUMPDEST PUSH2 0x140E DUP5 PUSH2 0x62E JUMP JUMPDEST ISZERO PUSH2 0x144E JUMPI PUSH1 0x40 MLOAD PUSH32 0x8C379A000000000000000000000000000000000000000000000000000000000 DUP2 MSTORE PUSH1 0x4 ADD PUSH2 0x1445 SWAP1 PUSH2 0x32AA JUMP JUMPDEST PUSH1 0x40 MLOAD DUP1 SWAP2 SUB SWAP1 REVERT JUMPDEST PUSH1 0x0 PUSH20 0xFFFFFFFFFFFFFFFFFFFFFFFFFFFFFFFFFFFFFFFF AND DUP5 PUSH20 0xFFFFFFFFFFFFFFFFFFFFFFFFFFFFFFFFFFFFFFFF AND SUB PUSH2 0x14BD JUMPI PUSH1 0x40 MLOAD PUSH32 0x8C379A000000000000000000000000000000000000000000000000000000000 DUP2 MSTORE PUSH1 0x4 ADD PUSH2 0x14B4 SWAP1 PUSH2 0x3316 JUMP JUMPDEST PUSH1 0x40 MLOAD DUP1 SWAP2 SUB SWAP1 REVERT JUMPDEST PUSH1 0x0 DUP4 GT PUSH2 0x1500 JUMPI PUSH1 0x40 MLOAD PUSH32 0x8C379A000000000000000000000000000000000000000000000000000000000 DUP2 MSTORE PUSH1 0x4 ADD PUSH2 0x14F7 SWAP1 PUSH2 0x2F27 JUMP JUMPDEST PUSH1 0x40 MLOAD DUP1 SWAP2 SUB SWAP1 REVERT JUMPDEST PUSH1 0x0 DUP3 SWAP1 POP PUSH1 0x0 DUP3 SWAP1 POP PUSH2 0x1516 DUP8 DUP7 DUP5 DUP5 PUSH2 0x1C96 JUMP JUMPDEST PUSH2 0x152F JUMPI PUSH2 0x1526 DUP8 DUP7 DUP5 DUP5 PUSH2 0x20E4 JUMP JUMPDEST DUP1 SWAP3 POP DUP2 SWAP4 POP POP POP JUMPDEST PUSH1 0x1 PUSH1 0x3 PUSH1 0x4 ADD PUSH1 0x0 DUP9 PUSH20 0xFFFFFFFFFFFFFFFFFFFFFFFFFFFFFFFFFFFFFFFF AND PUSH20 0xFFFFFFFFFFFFFFFFFFFFFFFFFFFFFFFFFFFFFFFF AND DUP2 MSTORE PUSH1 0x20 ADD SWAP1 DUP2 MSTORE PUSH1 0x20 ADD PUSH1 0x0 KECCAK256 PUSH1 0x0 ADD PUSH1 0x0 PUSH2 0x100 EXP DUP2 SLOAD DUP2 PUSH1 0xFF MUL NOT AND SWAP1 DUP4 ISZERO ISZERO MUL OR SWAP1 SSTORE POP PUSH1 0x0 PUSH20 0xFFFFFFFFFFFFFFFFFFFFFFFFFFFFFFFFFFFFFFFF AND DUP3 PUSH20 0xFFFFFFFFFFFFFFFFFFFFFFFFFFFFFFFFFFFFFFFF AND EQ DUP1 ISZERO PUSH2 0x15F5 JUMPI POP PUSH1 0x0 PUSH20 0xFFFFFFFFFFFFFFFFFFFFFFFFFFFFFFFFFFFFFFFF AND DUP2 PUSH20 0xFFFFFFFFFFFFFFFFFFFFFFFFFFFFFFFFFFFFFFFF AND EQ JUMPDEST ISZERO PUSH2 0x1687 JUMPI DUP6 PUSH1 0x3 PUSH1 0x0 ADD PUSH1 0x0 PUSH2 0x100 EXP DUP2 SLOAD DUP2 PUSH20 0xFFFFFFFFFFFFFFFFFFFFFFFFFFFFFFFFFFFFFFFF MUL NOT AND SWAP1 DUP4 PUSH20 0xFFFFFFFFFFFFFFFFFFFFFFFFFFFFFFFFFFFFFFFF AND MUL OR SWAP1 SSTORE POP DUP6 PUSH1 0x3 PUSH1 0x1 ADD PUSH1 0x0 PUSH2 0x100 EXP DUP2 SLOAD DUP2 PUSH20 0xFFFFFFFFFFFFFFFFFFFFFFFFFFFFFFFFFFFFFFFF MUL NOT AND SWAP1 DUP4 PUSH20 0xFFFFFFFFFFFFFFFFFFFFFFFFFFFFFFFFFFFFFFFF AND MUL OR SWAP1 SSTORE POP PUSH2 0x1C38 JUMP JUMPDEST PUSH1 0x0 PUSH20 0xFFFFFFFFFFFFFFFFFFFFFFFFFFFFFFFFFFFFFFFF AND DUP3 PUSH20 0xFFFFFFFFFFFFFFFFFFFFFFFFFFFFFFFFFFFFFFFF AND SUB PUSH2 0x1856 JUMPI PUSH1 0x3 PUSH1 0x0 ADD PUSH1 0x0 SWAP1 SLOAD SWAP1 PUSH2 0x100 EXP SWAP1 DIV PUSH20 0xFFFFFFFFFFFFFFFFFFFFFFFFFFFFFFFFFFFFFFFF AND PUSH1 0x3 PUSH1 0x4 ADD PUSH1 0x0 DUP9 PUSH20 0xFFFFFFFFFFFFFFFFFFFFFFFFFFFFFFFFFFFFFFFF AND PUSH20 0xFFFFFFFFFFFFFFFFFFFFFFFFFFFFFFFFFFFFFFFF AND DUP2 MSTORE PUSH1 0x20 ADD SWAP1 DUP2 MSTORE PUSH1 0x20 ADD PUSH1 0x0 KECCAK256 PUSH1 0x0 ADD PUSH1 0x1 PUSH2 0x100 EXP DUP2 SLOAD DUP2 PUSH20 0xFFFFFFFFFFFFFFFFFFFFFFFFFFFFFFFFFFFFFFFF MUL NOT AND SWAP1 DUP4 PUSH20 0xFFFFFFFFFFFFFFFFFFFFFFFFFFFFFFFFFFFFFFFF AND MUL OR SWAP1 SSTORE POP DUP6 PUSH1 0x3 PUSH1 0x4 ADD PUSH1 0x0 PUSH1 0x3 PUSH1 0x0 ADD PUSH1 0x0 SWAP1 SLOAD SWAP1 PUSH2 0x100 EXP SWAP1 DIV PUSH20 0xFFFFFFFFFFFFFFFFFFFFFFFFFFFFFFFFFFFFFFFF AND PUSH20 0xFFFFFFFFFFFFFFFFFFFFFFFFFFFFFFFFFFFFFFFF AND PUSH20 0xFFFFFFFFFFFFFFFFFFFFFFFFFFFFFFFFFFFFFFFF AND DUP2 MSTORE PUSH1 0x20 ADD SWAP1 DUP2 MSTORE PUSH1 0x20 ADD PUSH1 0x0 KECCAK256 PUSH1 0x1 ADD PUSH1 0x0 PUSH2 0x100 EXP DUP2 SLOAD DUP2 PUSH20 0xFFFFFFFFFFFFFFFFFFFFFFFFFFFFFFFFFFFFFFFF MUL NOT AND SWAP1 DUP4 PUSH20 0xFFFFFFFFFFFFFFFFFFFFFFFFFFFFFFFFFFFFFFFF AND MUL OR SWAP1 SSTORE POP DUP6 PUSH1 0x3 PUSH1 0x0 ADD PUSH1 0x0 PUSH2 0x100 EXP DUP2 SLOAD DUP2 PUSH20 0xFFFFFFFFFFFFFFFFFFFFFFFFFFFFFFFFFFFFFFFF MUL NOT AND SWAP1 DUP4 PUSH20 0xFFFFFFFFFFFFFFFFFFFFFFFFFFFFFFFFFFFFFFFF AND MUL OR SWAP1 SSTORE POP PUSH2 0x1C37 JUMP JUMPDEST PUSH1 0x0 PUSH20 0xFFFFFFFFFFFFFFFFFFFFFFFFFFFFFFFFFFFFFFFF AND DUP2 PUSH20 0xFFFFFFFFFFFFFFFFFFFFFFFFFFFFFFFFFFFFFFFF AND SUB PUSH2 0x1A25 JUMPI PUSH1 0x3 PUSH1 0x1 ADD PUSH1 0x0 SWAP1 SLOAD SWAP1 PUSH2 0x100 EXP SWAP1 DIV PUSH20 0xFFFFFFFFFFFFFFFFFFFFFFFFFFFFFFFFFFFFFFFF AND PUSH1 0x3 PUSH1 0x4 ADD PUSH1 0x0 DUP9 PUSH20 0xFFFFFFFFFFFFFFFFFFFFFFFFFFFFFFFFFFFFFFFF AND PUSH20 0xFFFFFFFFFFFFFFFFFFFFFFFFFFFFFFFFFFFFFFFF AND DUP2 MSTORE PUSH1 0x20 ADD SWAP1 DUP2 MSTORE PUSH1 0x20 ADD PUSH1 0x0 KECCAK256 PUSH1 0x1 ADD PUSH1 0x0 PUSH2 0x100 EXP DUP2 SLOAD DUP2 PUSH20 0xFFFFFFFFFFFFFFFFFFFFFFFFFFFFFFFFFFFFFFFF MUL NOT AND SWAP1 DUP4 PUSH20 0xFFFFFFFFFFFFFFFFFFFFFFFFFFFFFFFFFFFFFFFF AND MUL OR SWAP1 SSTORE POP DUP6 PUSH1 0x3 PUSH1 0x4 ADD PUSH1 0x0 PUSH1 0x3 PUSH1 0x1 ADD PUSH1 0x0 SWAP1 SLOAD SWAP1 PUSH2 0x100 EXP SWAP1 DIV PUSH20 0xFFFFFFFFFFFFFFFFFFFFFFFFFFFFFFFFFFFFFFFF AND PUSH20 0xFFFFFFFFFFFFFFFFFFFFFFFFFFFFFFFFFFFFFFFF AND PUSH20 0xFFFFFFFFFFFFFFFFFFFFFFFFFFFFFFFFFFFFFFFF AND DUP2 MSTORE PUSH1 0x20 ADD SWAP1 DUP2 MSTORE PUSH1 0x20 ADD PUSH1 0x0 KECCAK256 PUSH1 0x0 ADD PUSH1 0x1 PUSH2 0x100 EXP DUP2 SLOAD DUP2 PUSH20 0xFFFFFFFFFFFFFFFFFFFFFFFFFFFFFFFFFFFFFFFF MUL NOT AND SWAP1 DUP4 PUSH20 0xFFFFFFFFFFFFFFFFFFFFFFFFFFFFFFFFFFFFFFFF AND MUL OR SWAP1 SSTORE POP DUP6 PUSH1 0x3 PUSH1 0x1 ADD PUSH1 0x0 PUSH2 0x100 EXP DUP2 SLOAD DUP2 PUSH20 0xFFFFFFFFFFFFFFFFFFFFFFFFFFFFFFFFFFFFFFFF MUL NOT AND SWAP1 DUP4 PUSH20 0xFFFFFFFFFFFFFFFFFFFFFFFFFFFFFFFFFFFFFFFF AND MUL OR SWAP1 SSTORE POP PUSH2 0x1C36 JUMP JUMPDEST DUP1 PUSH1 0x3 PUSH1 0x4 ADD PUSH1 0x0 DUP9 PUSH20 0xFFFFFFFFFFFFFFFFFFFFFFFFFFFFFFFFFFFFFFFF AND PUSH20 0xFFFFFFFFFFFFFFFFFFFFFFFFFFFFFFFFFFFFFFFF AND DUP2 MSTORE PUSH1 0x20 ADD SWAP1 DUP2 MSTORE PUSH1 0x20 ADD PUSH1 0x0 KECCAK256 PUSH1 0x0 ADD PUSH1 0x1 PUSH2 0x100 EXP DUP2 SLOAD DUP2 PUSH20 0xFFFFFFFFFFFFFFFFFFFFFFFFFFFFFFFFFFFFFFFF MUL NOT AND SWAP1 DUP4 PUSH20 0xFFFFFFFFFFFFFFFFFFFFFFFFFFFFFFFFFFFFFFFF AND MUL OR SWAP1 SSTORE POP DUP2 PUSH1 0x3 PUSH1 0x4 ADD PUSH1 0x0 DUP9 PUSH20 0xFFFFFFFFFFFFFFFFFFFFFFFFFFFFFFFFFFFFFFFF AND PUSH20 0xFFFFFFFFFFFFFFFFFFFFFFFFFFFFFFFFFFFFFFFF AND DUP2 MSTORE PUSH1 0x20 ADD SWAP1 DUP2 MSTORE PUSH1 0x20 ADD PUSH1 0x0 KECCAK256 PUSH1 0x1 ADD PUSH1 0x0 PUSH2 0x100 EXP DUP2 SLOAD DUP2 PUSH20 0xFFFFFFFFFFFFFFFFFFFFFFFFFFFFFFFFFFFFFFFF MUL NOT AND SWAP1 DUP4 PUSH20 0xFFFFFFFFFFFFFFFFFFFFFFFFFFFFFFFFFFFFFFFF AND MUL OR SWAP1 SSTORE POP DUP6 PUSH1 0x3 PUSH1 0x4 ADD PUSH1 0x0 DUP5 PUSH20 0xFFFFFFFFFFFFFFFFFFFFFFFFFFFFFFFFFFFFFFFF AND PUSH20 0xFFFFFFFFFFFFFFFFFFFFFFFFFFFFFFFFFFFFFFFF AND DUP2 MSTORE PUSH1 0x20 ADD SWAP1 DUP2 MSTORE PUSH1 0x20 ADD PUSH1 0x0 KECCAK256 PUSH1 0x0 ADD PUSH1 0x1 PUSH2 0x100 EXP DUP2 SLOAD DUP2 PUSH20 0xFFFFFFFFFFFFFFFFFFFFFFFFFFFFFFFFFFFFFFFF MUL NOT AND SWAP1 DUP4 PUSH20 0xFFFFFFFFFFFFFFFFFFFFFFFFFFFFFFFFFFFFFFFF AND MUL OR SWAP1 SSTORE POP DUP6 PUSH1 0x3 PUSH1 0x4 ADD PUSH1 0x0 DUP4 PUSH20 0xFFFFFFFFFFFFFFFFFFFFFFFFFFFFFFFFFFFFFFFF AND PUSH20 0xFFFFFFFFFFFFFFFFFFFFFFFFFFFFFFFFFFFFFFFF AND DUP2 MSTORE PUSH1 0x20 ADD SWAP1 DUP2 MSTORE PUSH1 0x20 ADD PUSH1 0x0 KECCAK256 PUSH1 0x1 ADD PUSH1 0x0 PUSH2 0x100 EXP DUP2 SLOAD DUP2 PUSH20 0xFFFFFFFFFFFFFFFFFFFFFFFFFFFFFFFFFFFFFFFF MUL NOT AND SWAP1 DUP4 PUSH20 0xFFFFFFFFFFFFFFFFFFFFFFFFFFFFFFFFFFFFFFFF AND MUL OR SWAP1 SSTORE POP JUMPDEST JUMPDEST JUMPDEST PUSH1 0x1 PUSH1 0x3 DUP1 ADD PUSH1 0x0 DUP3 DUP3 SLOAD PUSH2 0x1C4D SWAP2 SWAP1 PUSH2 0x3336 JUMP JUMPDEST SWAP3 POP POP DUP2 SWAP1 SSTORE POP PUSH32 0xE02B43ADBEE0C123DE070A04554A71877A0007E2FC161466299CAE3C094FE82F DUP7 DUP7 PUSH1 0x40 MLOAD PUSH2 0x1C85 SWAP3 SWAP2 SWAP1 PUSH2 0x338C JUMP JUMPDEST PUSH1 0x40 MLOAD DUP1 SWAP2 SUB SWAP1 LOG1 POP POP POP POP POP POP POP JUMP JUMPDEST PUSH1 0x0 DUP1 PUSH20 0xFFFFFFFFFFFFFFFFFFFFFFFFFFFFFFFFFFFFFFFF AND DUP4 PUSH20 0xFFFFFFFFFFFFFFFFFFFFFFFFFFFFFFFFFFFFFFFF AND EQ DUP1 ISZERO PUSH2 0x1CFF JUMPI POP PUSH1 0x0 PUSH20 0xFFFFFFFFFFFFFFFFFFFFFFFFFFFFFFFFFFFFFFFF AND DUP3 PUSH20 0xFFFFFFFFFFFFFFFFFFFFFFFFFFFFFFFFFFFFFFFF AND EQ JUMPDEST ISZERO PUSH2 0x1D13 JUMPI PUSH2 0x1D0C PUSH2 0x697 JUMP JUMPDEST SWAP1 POP PUSH2 0x20DC JUMP JUMPDEST PUSH1 0x0 PUSH20 0xFFFFFFFFFFFFFFFFFFFFFFFFFFFFFFFFFFFFFFFF AND DUP4 PUSH20 0xFFFFFFFFFFFFFFFFFFFFFFFFFFFFFFFFFFFFFFFF AND SUB PUSH2 0x1E27 JUMPI DUP2 PUSH20 0xFFFFFFFFFFFFFFFFFFFFFFFFFFFFFFFFFFFFFFFF AND PUSH1 0x3 PUSH1 0x0 ADD PUSH1 0x0 SWAP1 SLOAD SWAP1 PUSH2 0x100 EXP SWAP1 DIV PUSH20 0xFFFFFFFFFFFFFFFFFFFFFFFFFFFFFFFFFFFFFFFF AND PUSH20 0xFFFFFFFFFFFFFFFFFFFFFFFFFFFFFFFFFFFFFFFF AND EQ DUP1 ISZERO PUSH2 0x1E20 JUMPI POP DUP5 PUSH20 0xFFFFFFFFFFFFFFFFFFFFFFFFFFFFFFFFFFFFFFFF AND PUSH4 0xB0D8E181 DUP4 PUSH1 0x40 MLOAD DUP3 PUSH4 0xFFFFFFFF AND PUSH1 0xE0 SHL DUP2 MSTORE PUSH1 0x4 ADD PUSH2 0x1DDB SWAP2 SWAP1 PUSH2 0x2AB7 JUMP JUMPDEST PUSH1 0x20 PUSH1 0x40 MLOAD DUP1 DUP4 SUB DUP2 DUP7 GAS STATICCALL ISZERO DUP1 ISZERO PUSH2 0x1DF8 JUMPI RETURNDATASIZE PUSH1 0x0 DUP1 RETURNDATACOPY RETURNDATASIZE PUSH1 0x0 REVERT JUMPDEST POP POP POP POP PUSH1 0x40 MLOAD RETURNDATASIZE PUSH1 0x1F NOT PUSH1 0x1F DUP3 ADD AND DUP3 ADD DUP1 PUSH1 0x40 MSTORE POP DUP2 ADD SWAP1 PUSH2 0x1E1C SWAP2 SWAP1 PUSH2 0x33CA JUMP JUMPDEST DUP5 LT ISZERO JUMPDEST SWAP1 POP PUSH2 0x20DC JUMP JUMPDEST PUSH1 0x0 PUSH20 0xFFFFFFFFFFFFFFFFFFFFFFFFFFFFFFFFFFFFFFFF AND DUP3 PUSH20 0xFFFFFFFFFFFFFFFFFFFFFFFFFFFFFFFFFFFFFFFF AND SUB PUSH2 0x1F3B JUMPI DUP3 PUSH20 0xFFFFFFFFFFFFFFFFFFFFFFFFFFFFFFFFFFFFFFFF AND PUSH1 0x3 PUSH1 0x1 ADD PUSH1 0x0 SWAP1 SLOAD SWAP1 PUSH2 0x100 EXP SWAP1 DIV PUSH20 0xFFFFFFFFFFFFFFFFFFFFFFFFFFFFFFFFFFFFFFFF AND PUSH20 0xFFFFFFFFFFFFFFFFFFFFFFFFFFFFFFFFFFFFFFFF AND EQ DUP1 ISZERO PUSH2 0x1F34 JUMPI POP DUP5 PUSH20 0xFFFFFFFFFFFFFFFFFFFFFFFFFFFFFFFFFFFFFFFF AND PUSH4 0xB0D8E181 DUP5 PUSH1 0x40 MLOAD DUP3 PUSH4 0xFFFFFFFF AND PUSH1 0xE0 SHL DUP2 MSTORE PUSH1 0x4 ADD PUSH2 0x1EEF SWAP2 SWAP1 PUSH2 0x2AB7 JUMP JUMPDEST PUSH1 0x20 PUSH1 0x40 MLOAD DUP1 DUP4 SUB DUP2 DUP7 GAS STATICCALL ISZERO DUP1 ISZERO PUSH2 0x1F0C JUMPI RETURNDATASIZE PUSH1 0x0 DUP1 RETURNDATACOPY RETURNDATASIZE PUSH1 0x0 REVERT JUMPDEST POP POP POP POP PUSH1 0x40 MLOAD RETURNDATASIZE PUSH1 0x1F NOT PUSH1 0x1F DUP3 ADD AND DUP3 ADD DUP1 PUSH1 0x40 MSTORE POP DUP2 ADD SWAP1 PUSH2 0x1F30 SWAP2 SWAP1 PUSH2 0x33CA JUMP JUMPDEST DUP5 GT ISZERO JUMPDEST SWAP1 POP PUSH2 0x20DC JUMP JUMPDEST DUP2 PUSH20 0xFFFFFFFFFFFFFFFFFFFFFFFFFFFFFFFFFFFFFFFF AND PUSH1 0x3 PUSH1 0x4 ADD PUSH1 0x0 DUP6 PUSH20 0xFFFFFFFFFFFFFFFFFFFFFFFFFFFFFFFFFFFFFFFF AND PUSH20 0xFFFFFFFFFFFFFFFFFFFFFFFFFFFFFFFFFFFFFFFF AND DUP2 MSTORE PUSH1 0x20 ADD SWAP1 DUP2 MSTORE PUSH1 0x20 ADD PUSH1 0x0 KECCAK256 PUSH1 0x0 ADD PUSH1 0x1 SWAP1 SLOAD SWAP1 PUSH2 0x100 EXP SWAP1 DIV PUSH20 0xFFFFFFFFFFFFFFFFFFFFFFFFFFFFFFFFFFFFFFFF AND PUSH20 0xFFFFFFFFFFFFFFFFFFFFFFFFFFFFFFFFFFFFFFFF AND EQ DUP1 ISZERO PUSH2 0x2054 JUMPI POP DUP4 DUP6 PUSH20 0xFFFFFFFFFFFFFFFFFFFFFFFFFFFFFFFFFFFFFFFF AND PUSH4 0xB0D8E181 DUP6 PUSH1 0x40 MLOAD DUP3 PUSH4 0xFFFFFFFF AND PUSH1 0xE0 SHL DUP2 MSTORE PUSH1 0x4 ADD PUSH2 0x2010 SWAP2 SWAP1 PUSH2 0x2AB7 JUMP JUMPDEST PUSH1 0x20 PUSH1 0x40 MLOAD DUP1 DUP4 SUB DUP2 DUP7 GAS STATICCALL ISZERO DUP1 ISZERO PUSH2 0x202D JUMPI RETURNDATASIZE PUSH1 0x0 DUP1 RETURNDATACOPY RETURNDATASIZE PUSH1 0x0 REVERT JUMPDEST POP POP POP POP PUSH1 0x40 MLOAD RETURNDATASIZE PUSH1 0x1F NOT PUSH1 0x1F DUP3 ADD AND DUP3 ADD DUP1 PUSH1 0x40 MSTORE POP DUP2 ADD SWAP1 PUSH2 0x2051 SWAP2 SWAP1 PUSH2 0x33CA JUMP JUMPDEST LT ISZERO JUMPDEST DUP1 ISZERO PUSH2 0x20D9 JUMPI POP DUP5 PUSH20 0xFFFFFFFFFFFFFFFFFFFFFFFFFFFFFFFFFFFFFFFF AND PUSH4 0xB0D8E181 DUP4 PUSH1 0x40 MLOAD DUP3 PUSH4 0xFFFFFFFF AND PUSH1 0xE0 SHL DUP2 MSTORE PUSH1 0x4 ADD PUSH2 0x2094 SWAP2 SWAP1 PUSH2 0x2AB7 JUMP JUMPDEST PUSH1 0x20 PUSH1 0x40 MLOAD DUP1 DUP4 SUB DUP2 DUP7 GAS STATICCALL ISZERO DUP1 ISZERO PUSH2 0x20B1 JUMPI RETURNDATASIZE PUSH1 0x0 DUP1 RETURNDATACOPY RETURNDATASIZE PUSH1 0x0 REVERT JUMPDEST POP POP POP POP PUSH1 0x40 MLOAD RETURNDATASIZE PUSH1 0x1F NOT PUSH1 0x1F DUP3 ADD AND DUP3 ADD DUP1 PUSH1 0x40 MSTORE POP DUP2 ADD SWAP1 PUSH2 0x20D5 SWAP2 SWAP1 PUSH2 0x33CA JUMP JUMPDEST DUP5 LT ISZERO JUMPDEST SWAP1 POP JUMPDEST SWAP5 SWAP4 POP POP POP POP JUMP JUMPDEST PUSH1 0x0 DUP1 PUSH1 0x0 DUP5 SWAP1 POP PUSH1 0x0 DUP5 SWAP1 POP PUSH1 0x0 PUSH20 0xFFFFFFFFFFFFFFFFFFFFFFFFFFFFFFFFFFFFFFFF AND DUP3 PUSH20 0xFFFFFFFFFFFFFFFFFFFFFFFFFFFFFFFFFFFFFFFF AND EQ PUSH2 0x21BD JUMPI PUSH2 0x212E DUP3 PUSH2 0x62E JUMP JUMPDEST ISZERO DUP1 PUSH2 0x21B2 JUMPI POP DUP8 PUSH20 0xFFFFFFFFFFFFFFFFFFFFFFFFFFFFFFFFFFFFFFFF AND PUSH4 0xB0D8E181 DUP4 PUSH1 0x40 MLOAD DUP3 PUSH4 0xFFFFFFFF AND PUSH1 0xE0 SHL DUP2 MSTORE PUSH1 0x4 ADD PUSH2 0x216E SWAP2 SWAP1 PUSH2 0x2AB7 JUMP JUMPDEST PUSH1 0x20 PUSH1 0x40 MLOAD DUP1 DUP4 SUB DUP2 DUP7 GAS STATICCALL ISZERO DUP1 ISZERO PUSH2 0x218B JUMPI RETURNDATASIZE PUSH1 0x0 DUP1 RETURNDATACOPY RETURNDATASIZE PUSH1 0x0 REVERT JUMPDEST POP POP POP POP PUSH1 0x40 MLOAD RETURNDATASIZE PUSH1 0x1F NOT PUSH1 0x1F DUP3 ADD AND DUP3 ADD DUP1 PUSH1 0x40 MSTORE POP DUP2 ADD SWAP1 PUSH2 0x21AF SWAP2 SWAP1 PUSH2 0x33CA JUMP JUMPDEST DUP8 GT JUMPDEST ISZERO PUSH2 0x21BC JUMPI PUSH1 0x0 SWAP2 POP JUMPDEST JUMPDEST PUSH1 0x0 PUSH20 0xFFFFFFFFFFFFFFFFFFFFFFFFFFFFFFFFFFFFFFFF AND DUP2 PUSH20 0xFFFFFFFFFFFFFFFFFFFFFFFFFFFFFFFFFFFFFFFF AND EQ PUSH2 0x2289 JUMPI PUSH2 0x21FA DUP2 PUSH2 0x62E JUMP JUMPDEST ISZERO DUP1 PUSH2 0x227E JUMPI POP DUP8 PUSH20 0xFFFFFFFFFFFFFFFFFFFFFFFFFFFFFFFFFFFFFFFF AND PUSH4 0xB0D8E181 DUP3 PUSH1 0x40 MLOAD DUP3 PUSH4 0xFFFFFFFF AND PUSH1 0xE0 SHL DUP2 MSTORE PUSH1 0x4 ADD PUSH2 0x223A SWAP2 SWAP1 PUSH2 0x2AB7 JUMP JUMPDEST PUSH1 0x20 PUSH1 0x40 MLOAD DUP1 DUP4 SUB DUP2 DUP7 GAS STATICCALL ISZERO DUP1 ISZERO PUSH2 0x2257 JUMPI RETURNDATASIZE PUSH1 0x0 DUP1 RETURNDATACOPY RETURNDATASIZE PUSH1 0x0 REVERT JUMPDEST POP POP POP POP PUSH1 0x40 MLOAD RETURNDATASIZE PUSH1 0x1F NOT PUSH1 0x1F DUP3 ADD AND DUP3 ADD DUP1 PUSH1 0x40 MSTORE POP DUP2 ADD SWAP1 PUSH2 0x227B SWAP2 SWAP1 PUSH2 0x33CA JUMP JUMPDEST DUP8 LT JUMPDEST ISZERO PUSH2 0x2288 JUMPI PUSH1 0x0 SWAP1 POP JUMPDEST JUMPDEST PUSH1 0x0 PUSH20 0xFFFFFFFFFFFFFFFFFFFFFFFFFFFFFFFFFFFFFFFF AND DUP3 PUSH20 0xFFFFFFFFFFFFFFFFFFFFFFFFFFFFFFFFFFFFFFFF AND EQ DUP1 ISZERO PUSH2 0x22F1 JUMPI POP PUSH1 0x0 PUSH20 0xFFFFFFFFFFFFFFFFFFFFFFFFFFFFFFFFFFFFFFFF AND DUP2 PUSH20 0xFFFFFFFFFFFFFFFFFFFFFFFFFFFFFFFFFFFFFFFF AND EQ JUMPDEST ISZERO PUSH2 0x2331 JUMPI PUSH2 0x2326 DUP9 DUP9 PUSH1 0x3 PUSH1 0x0 ADD PUSH1 0x0 SWAP1 SLOAD SWAP1 PUSH2 0x100 EXP SWAP1 DIV PUSH20 0xFFFFFFFFFFFFFFFFFFFFFFFFFFFFFFFFFFFFFFFF AND PUSH2 0x255A JUMP JUMPDEST SWAP4 POP SWAP4 POP POP POP PUSH2 0x23D7 JUMP JUMPDEST PUSH1 0x0 PUSH20 0xFFFFFFFFFFFFFFFFFFFFFFFFFFFFFFFFFFFFFFFF AND DUP3 PUSH20 0xFFFFFFFFFFFFFFFFFFFFFFFFFFFFFFFFFFFFFFFF AND SUB PUSH2 0x237B JUMPI PUSH2 0x2370 DUP9 DUP9 DUP4 PUSH2 0x27E8 JUMP JUMPDEST SWAP4 POP SWAP4 POP POP POP PUSH2 0x23D7 JUMP JUMPDEST PUSH1 0x0 PUSH20 0xFFFFFFFFFFFFFFFFFFFFFFFFFFFFFFFFFFFFFFFF AND DUP2 PUSH20 0xFFFFFFFFFFFFFFFFFFFFFFFFFFFFFFFFFFFFFFFF AND SUB PUSH2 0x23C5 JUMPI PUSH2 0x23BA DUP9 DUP9 DUP5 PUSH2 0x255A JUMP JUMPDEST SWAP4 POP SWAP4 POP POP POP PUSH2 0x23D7 JUMP JUMPDEST PUSH2 0x23D0 DUP9 DUP9 DUP5 PUSH2 0x255A JUMP JUMPDEST SWAP4 POP SWAP4 POP POP POP JUMPDEST SWAP5 POP SWAP5 SWAP3 POP POP POP JUMP JUMPDEST PUSH1 0x0 PUSH20 0xFFFFFFFFFFFFFFFFFFFFFFFFFFFFFFFFFFFFFFFF AND DUP2 PUSH20 0xFFFFFFFFFFFFFFFFFFFFFFFFFFFFFFFFFFFFFFFF AND SUB PUSH2 0x244F JUMPI PUSH1 0x40 MLOAD PUSH32 0x8C379A000000000000000000000000000000000000000000000000000000000 DUP2 MSTORE PUSH1 0x4 ADD PUSH2 0x2446 SWAP1 PUSH2 0x3443 JUMP JUMPDEST PUSH1 0x40 MLOAD DUP1 SWAP2 SUB SWAP1 REVERT JUMPDEST PUSH1 0x0 DUP2 EXTCODESIZE SWAP1 POP PUSH1 0x0 DUP2 GT PUSH2 0x2498 JUMPI PUSH1 0x40 MLOAD PUSH32 0x8C379A000000000000000000000000000000000000000000000000000000000 DUP2 MSTORE PUSH1 0x4 ADD PUSH2 0x248F SWAP1 PUSH2 0x34AF JUMP JUMPDEST PUSH1 0x40 MLOAD DUP1 SWAP2 SUB SWAP1 REVERT JUMPDEST POP POP JUMP JUMPDEST PUSH1 0x0 PUSH20 0xFFFFFFFFFFFFFFFFFFFFFFFFFFFFFFFFFFFFFFFF AND PUSH1 0x0 DUP1 SLOAD SWAP1 PUSH2 0x100 EXP SWAP1 DIV PUSH20 0xFFFFFFFFFFFFFFFFFFFFFFFFFFFFFFFFFFFFFFFF AND PUSH20 0xFFFFFFFFFFFFFFFFFFFFFFFFFFFFFFFFFFFFFFFF AND PUSH32 0x8BE0079C531659141344CD1FD0A4F28419497F9722A3DAAFE3B4186F6B6457E0 PUSH1 0x40 MLOAD PUSH1 0x40 MLOAD DUP1 SWAP2 SUB SWAP1 LOG3 PUSH1 0x0 DUP1 PUSH1 0x0 PUSH2 0x100 EXP DUP2 SLOAD DUP2 PUSH20 0xFFFFFFFFFFFFFFFFFFFFFFFFFFFFFFFFFFFFFFFF MUL NOT AND SWAP1 DUP4 PUSH20 0xFFFFFFFFFFFFFFFFFFFFFFFFFFFFFFFFFFFFFFFF AND MUL OR SWAP1 SSTORE POP JUMP JUMPDEST PUSH1 0x0 DUP1 DUP3 PUSH20 0xFFFFFFFFFFFFFFFFFFFFFFFFFFFFFFFFFFFFFFFF AND PUSH1 0x3 PUSH1 0x0 ADD PUSH1 0x0 SWAP1 SLOAD SWAP1 PUSH2 0x100 EXP SWAP1 DIV PUSH20 0xFFFFFFFFFFFFFFFFFFFFFFFFFFFFFFFFFFFFFFFF AND PUSH20 0xFFFFFFFFFFFFFFFFFFFFFFFFFFFFFFFFFFFFFFFF AND EQ DUP1 ISZERO PUSH2 0x2636 JUMPI POP DUP5 PUSH20 0xFFFFFFFFFFFFFFFFFFFFFFFFFFFFFFFFFFFFFFFF AND PUSH4 0xB0D8E181 DUP5 PUSH1 0x40 MLOAD DUP3 PUSH4 0xFFFFFFFF AND PUSH1 0xE0 SHL DUP2 MSTORE PUSH1 0x4 ADD PUSH2 0x25F1 SWAP2 SWAP1 PUSH2 0x2AB7 JUMP JUMPDEST PUSH1 0x20 PUSH1 0x40 MLOAD DUP1 DUP4 SUB DUP2 DUP7 GAS STATICCALL ISZERO DUP1 ISZERO PUSH2 0x260E JUMPI RETURNDATASIZE PUSH1 0x0 DUP1 RETURNDATACOPY RETURNDATASIZE PUSH1 0x0 REVERT JUMPDEST POP POP POP POP PUSH1 0x40 MLOAD RETURNDATASIZE PUSH1 0x1F NOT PUSH1 0x1F DUP3 ADD AND DUP3 ADD DUP1 PUSH1 0x40 MSTORE POP DUP2 ADD SWAP1 PUSH2 0x2632 SWAP2 SWAP1 PUSH2 0x33CA JUMP JUMPDEST DUP5 LT ISZERO JUMPDEST ISZERO PUSH2 0x2647 JUMPI PUSH1 0x0 DUP4 SWAP2 POP SWAP2 POP PUSH2 0x27E0 JUMP JUMPDEST PUSH1 0x0 DUP4 SWAP1 POP PUSH1 0x0 PUSH1 0x3 PUSH1 0x4 ADD PUSH1 0x0 DUP4 PUSH20 0xFFFFFFFFFFFFFFFFFFFFFFFFFFFFFFFFFFFFFFFF AND PUSH20 0xFFFFFFFFFFFFFFFFFFFFFFFFFFFFFFFFFFFFFFFF AND DUP2 MSTORE PUSH1 0x20 ADD SWAP1 DUP2 MSTORE PUSH1 0x20 ADD PUSH1 0x0 KECCAK256 PUSH1 0x0 ADD PUSH1 0x1 SWAP1 SLOAD SWAP1 PUSH2 0x100 EXP SWAP1 DIV PUSH20 0xFFFFFFFFFFFFFFFFFFFFFFFFFFFFFFFFFFFFFFFF AND SWAP1 POP JUMPDEST PUSH1 0x0 PUSH20 0xFFFFFFFFFFFFFFFFFFFFFFFFFFFFFFFFFFFFFFFF AND DUP3 PUSH20 0xFFFFFFFFFFFFFFFFFFFFFFFFFFFFFFFFFFFFFFFF AND EQ ISZERO DUP1 ISZERO PUSH2 0x26FD JUMPI POP PUSH2 0x26FB DUP8 DUP8 DUP5 DUP5 PUSH2 0x1C96 JUMP JUMPDEST ISZERO JUMPDEST ISZERO PUSH2 0x27D7 JUMPI PUSH1 0x3 PUSH1 0x4 ADD PUSH1 0x0 DUP4 PUSH20 0xFFFFFFFFFFFFFFFFFFFFFFFFFFFFFFFFFFFFFFFF AND PUSH20 0xFFFFFFFFFFFFFFFFFFFFFFFFFFFFFFFFFFFFFFFF AND DUP2 MSTORE PUSH1 0x20 ADD SWAP1 DUP2 MSTORE PUSH1 0x20 ADD PUSH1 0x0 KECCAK256 PUSH1 0x0 ADD PUSH1 0x1 SWAP1 SLOAD SWAP1 PUSH2 0x100 EXP SWAP1 DIV PUSH20 0xFFFFFFFFFFFFFFFFFFFFFFFFFFFFFFFFFFFFFFFF AND SWAP2 POP PUSH1 0x3 PUSH1 0x4 ADD PUSH1 0x0 DUP4 PUSH20 0xFFFFFFFFFFFFFFFFFFFFFFFFFFFFFFFFFFFFFFFF AND PUSH20 0xFFFFFFFFFFFFFFFFFFFFFFFFFFFFFFFFFFFFFFFF AND DUP2 MSTORE PUSH1 0x20 ADD SWAP1 DUP2 MSTORE PUSH1 0x20 ADD PUSH1 0x0 KECCAK256 PUSH1 0x0 ADD PUSH1 0x1 SWAP1 SLOAD SWAP1 PUSH2 0x100 EXP SWAP1 DIV PUSH20 0xFFFFFFFFFFFFFFFFFFFFFFFFFFFFFFFFFFFFFFFF AND SWAP1 POP PUSH2 0x26B7 JUMP JUMPDEST DUP2 DUP2 SWAP4 POP SWAP4 POP POP POP JUMPDEST SWAP4 POP SWAP4 SWAP2 POP POP JUMP JUMPDEST PUSH1 0x0 DUP1 DUP3 PUSH20 0xFFFFFFFFFFFFFFFFFFFFFFFFFFFFFFFFFFFFFFFF AND PUSH1 0x3 PUSH1 0x1 ADD PUSH1 0x0 SWAP1 SLOAD SWAP1 PUSH2 0x100 EXP SWAP1 DIV PUSH20 0xFFFFFFFFFFFFFFFFFFFFFFFFFFFFFFFFFFFFFFFF AND PUSH20 0xFFFFFFFFFFFFFFFFFFFFFFFFFFFFFFFFFFFFFFFF AND EQ DUP1 ISZERO PUSH2 0x28C4 JUMPI POP DUP5 PUSH20 0xFFFFFFFFFFFFFFFFFFFFFFFFFFFFFFFFFFFFFFFF AND PUSH4 0xB0D8E181 DUP5 PUSH1 0x40 MLOAD DUP3 PUSH4 0xFFFFFFFF AND PUSH1 0xE0 SHL DUP2 MSTORE PUSH1 0x4 ADD PUSH2 0x287F SWAP2 SWAP1 PUSH2 0x2AB7 JUMP JUMPDEST PUSH1 0x20 PUSH1 0x40 MLOAD DUP1 DUP4 SUB DUP2 DUP7 GAS STATICCALL ISZERO DUP1 ISZERO PUSH2 0x289C JUMPI RETURNDATASIZE PUSH1 0x0 DUP1 RETURNDATACOPY RETURNDATASIZE PUSH1 0x0 REVERT JUMPDEST POP POP POP POP PUSH1 0x40 MLOAD RETURNDATASIZE PUSH1 0x1F NOT PUSH1 0x1F DUP3 ADD AND DUP3 ADD DUP1 PUSH1 0x40 MSTORE POP DUP2 ADD SWAP1 PUSH2 0x28C0 SWAP2 SWAP1 PUSH2 0x33CA JUMP JUMPDEST DUP5 GT ISZERO JUMPDEST ISZERO PUSH2 0x28D5 JUMPI DUP3 PUSH1 0x0 SWAP2 POP SWAP2 POP PUSH2 0x2A6E JUMP JUMPDEST PUSH1 0x0 DUP4 SWAP1 POP PUSH1 0x0 PUSH1 0x3 PUSH1 0x4 ADD PUSH1 0x0 DUP4 PUSH20 0xFFFFFFFFFFFFFFFFFFFFFFFFFFFFFFFFFFFFFFFF AND PUSH20 0xFFFFFFFFFFFFFFFFFFFFFFFFFFFFFFFFFFFFFFFF AND DUP2 MSTORE PUSH1 0x20 ADD SWAP1 DUP2 MSTORE PUSH1 0x20 ADD PUSH1 0x0 KECCAK256 PUSH1 0x1 ADD PUSH1 0x0 SWAP1 SLOAD SWAP1 PUSH2 0x100 EXP SWAP1 DIV PUSH20 0xFFFFFFFFFFFFFFFFFFFFFFFFFFFFFFFFFFFFFFFF AND SWAP1 POP JUMPDEST PUSH1 0x0 PUSH20 0xFFFFFFFFFFFFFFFFFFFFFFFFFFFFFFFFFFFFFFFF AND DUP3 PUSH20 0xFFFFFFFFFFFFFFFFFFFFFFFFFFFFFFFFFFFFFFFF AND EQ ISZERO DUP1 ISZERO PUSH2 0x298B JUMPI POP PUSH2 0x2989 DUP8 DUP8 DUP4 DUP6 PUSH2 0x1C96 JUMP JUMPDEST ISZERO JUMPDEST ISZERO PUSH2 0x2A65 JUMPI PUSH1 0x3 PUSH1 0x4 ADD PUSH1 0x0 DUP4 PUSH20 0xFFFFFFFFFFFFFFFFFFFFFFFFFFFFFFFFFFFFFFFF AND PUSH20 0xFFFFFFFFFFFFFFFFFFFFFFFFFFFFFFFFFFFFFFFF AND DUP2 MSTORE PUSH1 0x20 ADD SWAP1 DUP2 MSTORE PUSH1 0x20 ADD PUSH1 0x0 KECCAK256 PUSH1 0x1 ADD PUSH1 0x0 SWAP1 SLOAD SWAP1 PUSH2 0x100 EXP SWAP1 DIV PUSH20 0xFFFFFFFFFFFFFFFFFFFFFFFFFFFFFFFFFFFFFFFF AND SWAP2 POP PUSH1 0x3 PUSH1 0x4 ADD PUSH1 0x0 DUP4 PUSH20 0xFFFFFFFFFFFFFFFFFFFFFFFFFFFFFFFFFFFFFFFF AND PUSH20 0xFFFFFFFFFFFFFFFFFFFFFFFFFFFFFFFFFFFFFFFF AND DUP2 MSTORE PUSH1 0x20 ADD SWAP1 DUP2 MSTORE PUSH1 0x20 ADD PUSH1 0x0 KECCAK256 PUSH1 0x1 ADD PUSH1 0x0 SWAP1 SLOAD SWAP1 PUSH2 0x100 EXP SWAP1 DIV PUSH20 0xFFFFFFFFFFFFFFFFFFFFFFFFFFFFFFFFFFFFFFFF AND SWAP1 POP PUSH2 0x2945 JUMP JUMPDEST DUP1 DUP3 SWAP4 POP SWAP4 POP POP POP JUMPDEST SWAP4 POP SWAP4 SWAP2 POP POP JUMP JUMPDEST PUSH1 0x0 PUSH20 0xFFFFFFFFFFFFFFFFFFFFFFFFFFFFFFFFFFFFFFFF DUP3 AND SWAP1 POP SWAP2 SWAP1 POP JUMP JUMPDEST PUSH1 0x0 PUSH2 0x2AA1 DUP3 PUSH2 0x2A76 JUMP JUMPDEST SWAP1 POP SWAP2 SWAP1 POP JUMP JUMPDEST PUSH2 0x2AB1 DUP2 PUSH2 0x2A96 JUMP JUMPDEST DUP3 MSTORE POP POP JUMP JUMPDEST PUSH1 0x0 PUSH1 0x20 DUP3 ADD SWAP1 POP PUSH2 0x2ACC PUSH1 0x0 DUP4 ADD DUP5 PUSH2 0x2AA8 JUMP JUMPDEST SWAP3 SWAP2 POP POP JUMP JUMPDEST PUSH1 0x0 DUP1 REVERT JUMPDEST PUSH2 0x2AE0 DUP2 PUSH2 0x2A96 JUMP JUMPDEST DUP2 EQ PUSH2 0x2AEB JUMPI PUSH1 0x0 DUP1 REVERT JUMPDEST POP JUMP JUMPDEST PUSH1 0x0 DUP2 CALLDATALOAD SWAP1 POP PUSH2 0x2AFD DUP2 PUSH2 0x2AD7 JUMP JUMPDEST SWAP3 SWAP2 POP POP JUMP JUMPDEST PUSH1 0x0 PUSH1 0x20 DUP3 DUP5 SUB SLT ISZERO PUSH2 0x2B19 JUMPI PUSH2 0x2B18 PUSH2 0x2AD2 JUMP JUMPDEST JUMPDEST PUSH1 0x0 PUSH2 0x2B27 DUP5 DUP3 DUP6 ADD PUSH2 0x2AEE JUMP JUMPDEST SWAP2 POP POP SWAP3 SWAP2 POP POP JUMP JUMPDEST PUSH1 0x0 DUP2 SWAP1 POP SWAP2 SWAP1 POP JUMP JUMPDEST PUSH2 0x2B43 DUP2 PUSH2 0x2B30 JUMP JUMPDEST DUP2 EQ PUSH2 0x2B4E JUMPI PUSH1 0x0 DUP1 REVERT JUMPDEST POP JUMP JUMPDEST PUSH1 0x0 DUP2 CALLDATALOAD SWAP1 POP PUSH2 0x2B60 DUP2 PUSH2 0x2B3A JUMP JUMPDEST SWAP3 SWAP2 POP POP JUMP JUMPDEST PUSH1 0x0 DUP1 PUSH1 0x0 DUP1 PUSH1 0x80 DUP6 DUP8 SUB SLT ISZERO PUSH2 0x2B80 JUMPI PUSH2 0x2B7F PUSH2 0x2AD2 JUMP JUMPDEST JUMPDEST PUSH1 0x0 PUSH2 0x2B8E DUP8 DUP3 DUP9 ADD PUSH2 0x2AEE JUMP JUMPDEST SWAP5 POP POP PUSH1 0x20 PUSH2 0x2B9F DUP8 DUP3 DUP9 ADD PUSH2 0x2B51 JUMP JUMPDEST SWAP4 POP POP PUSH1 0x40 PUSH2 0x2BB0 DUP8 DUP3 DUP9 ADD PUSH2 0x2AEE JUMP JUMPDEST SWAP3 POP POP PUSH1 0x60 PUSH2 0x2BC1 DUP8 DUP3 DUP9 ADD PUSH2 0x2AEE JUMP JUMPDEST SWAP2 POP POP SWAP3 SWAP6 SWAP2 SWAP5 POP SWAP3 POP JUMP JUMPDEST PUSH1 0x0 DUP2 SWAP1 POP SWAP2 SWAP1 POP JUMP JUMPDEST PUSH1 0x0 PUSH2 0x2BF2 PUSH2 0x2BED PUSH2 0x2BE8 DUP5 PUSH2 0x2A76 JUMP JUMPDEST PUSH2 0x2BCD JUMP JUMPDEST PUSH2 0x2A76 JUMP JUMPDEST SWAP1 POP SWAP2 SWAP1 POP JUMP JUMPDEST PUSH1 0x0 PUSH2 0x2C04 DUP3 PUSH2 0x2BD7 JUMP JUMPDEST SWAP1 POP SWAP2 SWAP1 POP JUMP JUMPDEST PUSH1 0x0 PUSH2 0x2C16 DUP3 PUSH2 0x2BF9 JUMP JUMPDEST SWAP1 POP SWAP2 SWAP1 POP JUMP JUMPDEST PUSH2 0x2C26 DUP2 PUSH2 0x2C0B JUMP JUMPDEST DUP3 MSTORE POP POP JUMP JUMPDEST PUSH1 0x0 PUSH1 0x20 DUP3 ADD SWAP1 POP PUSH2 0x2C41 PUSH1 0x0 DUP4 ADD DUP5 PUSH2 0x2C1D JUMP JUMPDEST SWAP3 SWAP2 POP POP JUMP JUMPDEST PUSH1 0x0 DUP1 PUSH1 0x0 PUSH1 0x60 DUP5 DUP7 SUB SLT ISZERO PUSH2 0x2C60 JUMPI PUSH2 0x2C5F PUSH2 0x2AD2 JUMP JUMPDEST JUMPDEST PUSH1 0x0 PUSH2 0x2C6E DUP7 DUP3 DUP8 ADD PUSH2 0x2B51 JUMP JUMPDEST SWAP4 POP POP PUSH1 0x20 PUSH2 0x2C7F DUP7 DUP3 DUP8 ADD PUSH2 0x2AEE JUMP JUMPDEST SWAP3 POP POP PUSH1 0x40 PUSH2 0x2C90 DUP7 DUP3 DUP8 ADD PUSH2 0x2AEE JUMP JUMPDEST SWAP2 POP POP SWAP3 POP SWAP3 POP SWAP3 JUMP JUMPDEST PUSH1 0x0 DUP2 ISZERO ISZERO SWAP1 POP SWAP2 SWAP1 POP JUMP JUMPDEST PUSH2 0x2CAF DUP2 PUSH2 0x2C9A JUMP JUMPDEST DUP3 MSTORE POP POP JUMP JUMPDEST PUSH1 0x0 PUSH1 0x20 DUP3 ADD SWAP1 POP PUSH2 0x2CCA PUSH1 0x0 DUP4 ADD DUP5 PUSH2 0x2CA6 JUMP JUMPDEST SWAP3 SWAP2 POP POP JUMP JUMPDEST PUSH1 0x0 PUSH1 0x40 DUP3 ADD SWAP1 POP PUSH2 0x2CE5 PUSH1 0x0 DUP4 ADD DUP6 PUSH2 0x2AA8 JUMP JUMPDEST PUSH2 0x2CF2 PUSH1 0x20 DUP4 ADD DUP5 PUSH2 0x2AA8 JUMP JUMPDEST SWAP4 SWAP3 POP POP POP JUMP JUMPDEST PUSH2 0x2D02 DUP2 PUSH2 0x2B30 JUMP JUMPDEST DUP3 MSTORE POP POP JUMP JUMPDEST PUSH1 0x0 PUSH1 0x20 DUP3 ADD SWAP1 POP PUSH2 0x2D1D PUSH1 0x0 DUP4 ADD DUP5 PUSH2 0x2CF9 JUMP JUMPDEST SWAP3 SWAP2 POP POP JUMP JUMPDEST PUSH1 0x0 PUSH1 0x80 DUP3 ADD SWAP1 POP PUSH2 0x2D38 PUSH1 0x0 DUP4 ADD DUP8 PUSH2 0x2AA8 JUMP JUMPDEST PUSH2 0x2D45 PUSH1 0x20 DUP4 ADD DUP7 PUSH2 0x2AA8 JUMP JUMPDEST PUSH2 0x2D52 PUSH1 0x40 DUP4 ADD DUP6 PUSH2 0x2CF9 JUMP JUMPDEST PUSH2 0x2D5F PUSH1 0x60 DUP4 ADD DUP5 PUSH2 0x2CF9 JUMP JUMPDEST SWAP6 SWAP5 POP POP POP POP POP JUMP JUMPDEST PUSH1 0x0 DUP2 MLOAD SWAP1 POP SWAP2 SWAP1 POP JUMP JUMPDEST PUSH1 0x0 DUP3 DUP3 MSTORE PUSH1 0x20 DUP3 ADD SWAP1 POP SWAP3 SWAP2 POP POP JUMP JUMPDEST PUSH1 0x0 JUMPDEST DUP4 DUP2 LT ISZERO PUSH2 0x2DA2 JUMPI DUP1 DUP3 ADD MLOAD DUP2 DUP5 ADD MSTORE PUSH1 0x20 DUP2 ADD SWAP1 POP PUSH2 0x2D87 JUMP JUMPDEST DUP4 DUP2 GT ISZERO PUSH2 0x2DB1 JUMPI PUSH1 0x0 DUP5 DUP5 ADD MSTORE JUMPDEST POP POP POP POP JUMP JUMPDEST PUSH1 0x0 PUSH1 0x1F NOT PUSH1 0x1F DUP4 ADD AND SWAP1 POP SWAP2 SWAP1 POP JUMP JUMPDEST PUSH1 0x0 PUSH2 0x2DD3 DUP3 PUSH2 0x2D68 JUMP JUMPDEST PUSH2 0x2DDD DUP2 DUP6 PUSH2 0x2D73 JUMP JUMPDEST SWAP4 POP PUSH2 0x2DED DUP2 DUP6 PUSH1 0x20 DUP7 ADD PUSH2 0x2D84 JUMP JUMPDEST PUSH2 0x2DF6 DUP2 PUSH2 0x2DB7 JUMP JUMPDEST DUP5 ADD SWAP2 POP POP SWAP3 SWAP2 POP POP JUMP JUMPDEST PUSH1 0x0 PUSH1 0x20 DUP3 ADD SWAP1 POP DUP2 DUP2 SUB PUSH1 0x0 DUP4 ADD MSTORE PUSH2 0x2E1B DUP2 DUP5 PUSH2 0x2DC8 JUMP JUMPDEST SWAP1 POP SWAP3 SWAP2 POP POP JUMP JUMPDEST PUSH32 0x536F7274656454726F7665733A204C69737420646F6573206E6F7420636F6E74 PUSH1 0x0 DUP3 ADD MSTORE PUSH32 0x61696E2074686520696400000000000000000000000000000000000000000000 PUSH1 0x20 DUP3 ADD MSTORE POP JUMP JUMPDEST PUSH1 0x0 PUSH2 0x2E7F PUSH1 0x2A DUP4 PUSH2 0x2D73 JUMP JUMPDEST SWAP2 POP PUSH2 0x2E8A DUP3 PUSH2 0x2E23 JUMP JUMPDEST PUSH1 0x40 DUP3 ADD SWAP1 POP SWAP2 SWAP1 POP JUMP JUMPDEST PUSH1 0x0 PUSH1 0x20 DUP3 ADD SWAP1 POP DUP2 DUP2 SUB PUSH1 0x0 DUP4 ADD MSTORE PUSH2 0x2EAE DUP2 PUSH2 0x2E72 JUMP JUMPDEST SWAP1 POP SWAP2 SWAP1 POP JUMP JUMPDEST PUSH32 0x536F7274656454726F7665733A204E494352206D75737420626520706F736974 PUSH1 0x0 DUP3 ADD MSTORE PUSH32 0x6976650000000000000000000000000000000000000000000000000000000000 PUSH1 0x20 DUP3 ADD MSTORE POP JUMP JUMPDEST PUSH1 0x0 PUSH2 0x2F11 PUSH1 0x23 DUP4 PUSH2 0x2D73 JUMP JUMPDEST SWAP2 POP PUSH2 0x2F1C DUP3 PUSH2 0x2EB5 JUMP JUMPDEST PUSH1 0x40 DUP3 ADD SWAP1 POP SWAP2 SWAP1 POP JUMP JUMPDEST PUSH1 0x0 PUSH1 0x20 DUP3 ADD SWAP1 POP DUP2 DUP2 SUB PUSH1 0x0 DUP4 ADD MSTORE PUSH2 0x2F40 DUP2 PUSH2 0x2F04 JUMP JUMPDEST SWAP1 POP SWAP2 SWAP1 POP JUMP JUMPDEST PUSH32 0x4F776E61626C653A2063616C6C6572206973206E6F7420746865206F776E6572 PUSH1 0x0 DUP3 ADD MSTORE POP JUMP JUMPDEST PUSH1 0x0 PUSH2 0x2F7D PUSH1 0x20 DUP4 PUSH2 0x2D73 JUMP JUMPDEST SWAP2 POP PUSH2 0x2F88 DUP3 PUSH2 0x2F47 JUMP JUMPDEST PUSH1 0x20 DUP3 ADD SWAP1 POP SWAP2 SWAP1 POP JUMP JUMPDEST PUSH1 0x0 PUSH1 0x20 DUP3 ADD SWAP1 POP DUP2 DUP2 SUB PUSH1 0x0 DUP4 ADD MSTORE PUSH2 0x2FAC DUP2 PUSH2 0x2F70 JUMP JUMPDEST SWAP1 POP SWAP2 SWAP1 POP JUMP JUMPDEST PUSH32 0x536F7274656454726F7665733A2053697A652063616E206E6F74206265207A65 PUSH1 0x0 DUP3 ADD MSTORE PUSH32 0x726F000000000000000000000000000000000000000000000000000000000000 PUSH1 0x20 DUP3 ADD MSTORE POP JUMP JUMPDEST PUSH1 0x0 PUSH2 0x300F PUSH1 0x22 DUP4 PUSH2 0x2D73 JUMP JUMPDEST SWAP2 POP PUSH2 0x301A DUP3 PUSH2 0x2FB3 JUMP JUMPDEST PUSH1 0x40 DUP3 ADD SWAP1 POP SWAP2 SWAP1 POP JUMP JUMPDEST PUSH1 0x0 PUSH1 0x20 DUP3 ADD SWAP1 POP DUP2 DUP2 SUB PUSH1 0x0 DUP4 ADD MSTORE PUSH2 0x303E DUP2 PUSH2 0x3002 JUMP JUMPDEST SWAP1 POP SWAP2 SWAP1 POP JUMP JUMPDEST PUSH32 0x536F7274656454726F7665733A2043616C6C6572206973206E6F742074686520 PUSH1 0x0 DUP3 ADD MSTORE PUSH32 0x54726F76654D616E616765720000000000000000000000000000000000000000 PUSH1 0x20 DUP3 ADD MSTORE POP JUMP JUMPDEST PUSH1 0x0 PUSH2 0x30A1 PUSH1 0x2C DUP4 PUSH2 0x2D73 JUMP JUMPDEST SWAP2 POP PUSH2 0x30AC DUP3 PUSH2 0x3045 JUMP JUMPDEST PUSH1 0x40 DUP3 ADD SWAP1 POP SWAP2 SWAP1 POP JUMP JUMPDEST PUSH1 0x0 PUSH1 0x20 DUP3 ADD SWAP1 POP DUP2 DUP2 SUB PUSH1 0x0 DUP4 ADD MSTORE PUSH2 0x30D0 DUP2 PUSH2 0x3094 JUMP JUMPDEST SWAP1 POP SWAP2 SWAP1 POP JUMP JUMPDEST PUSH32 0x4E487B7100000000000000000000000000000000000000000000000000000000 PUSH1 0x0 MSTORE PUSH1 0x11 PUSH1 0x4 MSTORE PUSH1 0x24 PUSH1 0x0 REVERT JUMPDEST PUSH1 0x0 PUSH2 0x3111 DUP3 PUSH2 0x2B30 JUMP JUMPDEST SWAP2 POP PUSH2 0x311C DUP4 PUSH2 0x2B30 JUMP JUMPDEST SWAP3 POP DUP3 DUP3 LT ISZERO PUSH2 0x312F JUMPI PUSH2 0x312E PUSH2 0x30D7 JUMP JUMPDEST JUMPDEST DUP3 DUP3 SUB SWAP1 POP SWAP3 SWAP2 POP POP JUMP JUMPDEST PUSH32 0x536F7274656454726F7665733A2043616C6C6572206973206E65697468657220 PUSH1 0x0 DUP3 ADD MSTORE PUSH32 0x424F206E6F722054726F76654D00000000000000000000000000000000000000 PUSH1 0x20 DUP3 ADD MSTORE POP JUMP JUMPDEST PUSH1 0x0 PUSH2 0x3196 PUSH1 0x2D DUP4 PUSH2 0x2D73 JUMP JUMPDEST SWAP2 POP PUSH2 0x31A1 DUP3 PUSH2 0x313A JUMP JUMPDEST PUSH1 0x40 DUP3 ADD SWAP1 POP SWAP2 SWAP1 POP JUMP JUMPDEST PUSH1 0x0 PUSH1 0x20 DUP3 ADD SWAP1 POP DUP2 DUP2 SUB PUSH1 0x0 DUP4 ADD MSTORE PUSH2 0x31C5 DUP2 PUSH2 0x3189 JUMP JUMPDEST SWAP1 POP SWAP2 SWAP1 POP JUMP JUMPDEST PUSH32 0x536F7274656454726F7665733A204C6973742069732066756C6C000000000000 PUSH1 0x0 DUP3 ADD MSTORE POP JUMP JUMPDEST PUSH1 0x0 PUSH2 0x3202 PUSH1 0x1A DUP4 PUSH2 0x2D73 JUMP JUMPDEST SWAP2 POP PUSH2 0x320D DUP3 PUSH2 0x31CC JUMP JUMPDEST PUSH1 0x20 DUP3 ADD SWAP1 POP SWAP2 SWAP1 POP JUMP JUMPDEST PUSH1 0x0 PUSH1 0x20 DUP3 ADD SWAP1 POP DUP2 DUP2 SUB PUSH1 0x0 DUP4 ADD MSTORE PUSH2 0x3231 DUP2 PUSH2 0x31F5 JUMP JUMPDEST SWAP1 POP SWAP2 SWAP1 POP JUMP JUMPDEST PUSH32 0x536F7274656454726F7665733A204C69737420616C726561647920636F6E7461 PUSH1 0x0 DUP3 ADD MSTORE PUSH32 0x696E7320746865206E6F64650000000000000000000000000000000000000000 PUSH1 0x20 DUP3 ADD MSTORE POP JUMP JUMPDEST PUSH1 0x0 PUSH2 0x3294 PUSH1 0x2C DUP4 PUSH2 0x2D73 JUMP JUMPDEST SWAP2 POP PUSH2 0x329F DUP3 PUSH2 0x3238 JUMP JUMPDEST PUSH1 0x40 DUP3 ADD SWAP1 POP SWAP2 SWAP1 POP JUMP JUMPDEST PUSH1 0x0 PUSH1 0x20 DUP3 ADD SWAP1 POP DUP2 DUP2 SUB PUSH1 0x0 DUP4 ADD MSTORE PUSH2 0x32C3 DUP2 PUSH2 0x3287 JUMP JUMPDEST SWAP1 POP SWAP2 SWAP1 POP JUMP JUMPDEST PUSH32 0x536F7274656454726F7665733A2049642063616E6E6F74206265207A65726F00 PUSH1 0x0 DUP3 ADD MSTORE POP JUMP JUMPDEST PUSH1 0x0 PUSH2 0x3300 PUSH1 0x1F DUP4 PUSH2 0x2D73 JUMP JUMPDEST SWAP2 POP PUSH2 0x330B DUP3 PUSH2 0x32CA JUMP JUMPDEST PUSH1 0x20 DUP3 ADD SWAP1 POP SWAP2 SWAP1 POP JUMP JUMPDEST PUSH1 0x0 PUSH1 0x20 DUP3 ADD SWAP1 POP DUP2 DUP2 SUB PUSH1 0x0 DUP4 ADD MSTORE PUSH2 0x332F DUP2 PUSH2 0x32F3 JUMP JUMPDEST SWAP1 POP SWAP2 SWAP1 POP JUMP JUMPDEST PUSH1 0x0 PUSH2 0x3341 DUP3 PUSH2 0x2B30 JUMP JUMPDEST SWAP2 POP PUSH2 0x334C DUP4 PUSH2 0x2B30 JUMP JUMPDEST SWAP3 POP DUP3 PUSH32 0xFFFFFFFFFFFFFFFFFFFFFFFFFFFFFFFFFFFFFFFFFFFFFFFFFFFFFFFFFFFFFFFF SUB DUP3 GT ISZERO PUSH2 0x3381 JUMPI PUSH2 0x3380 PUSH2 0x30D7 JUMP JUMPDEST JUMPDEST DUP3 DUP3 ADD SWAP1 POP SWAP3 SWAP2 POP POP JUMP JUMPDEST PUSH1 0x0 PUSH1 0x40 DUP3 ADD SWAP1 POP PUSH2 0x33A1 PUSH1 0x0 DUP4 ADD DUP6 PUSH2 0x2AA8 JUMP JUMPDEST PUSH2 0x33AE PUSH1 0x20 DUP4 ADD DUP5 PUSH2 0x2CF9 JUMP JUMPDEST SWAP4 SWAP3 POP POP POP JUMP JUMPDEST PUSH1 0x0 DUP2 MLOAD SWAP1 POP PUSH2 0x33C4 DUP2 PUSH2 0x2B3A JUMP JUMPDEST SWAP3 SWAP2 POP POP JUMP JUMPDEST PUSH1 0x0 PUSH1 0x20 DUP3 DUP5 SUB SLT ISZERO PUSH2 0x33E0 JUMPI PUSH2 0x33DF PUSH2 0x2AD2 JUMP JUMPDEST JUMPDEST PUSH1 0x0 PUSH2 0x33EE DUP5 DUP3 DUP6 ADD PUSH2 0x33B5 JUMP JUMPDEST SWAP2 POP POP SWAP3 SWAP2 POP POP JUMP JUMPDEST PUSH32 0x4163636F756E742063616E6E6F74206265207A65726F20616464726573730000 PUSH1 0x0 DUP3 ADD MSTORE POP JUMP JUMPDEST PUSH1 0x0 PUSH2 0x342D PUSH1 0x1E DUP4 PUSH2 0x2D73 JUMP JUMPDEST SWAP2 POP PUSH2 0x3438 DUP3 PUSH2 0x33F7 JUMP JUMPDEST PUSH1 0x20 DUP3 ADD SWAP1 POP SWAP2 SWAP1 POP JUMP JUMPDEST PUSH1 0x0 PUSH1 0x20 DUP3 ADD SWAP1 POP DUP2 DUP2 SUB PUSH1 0x0 DUP4 ADD MSTORE PUSH2 0x345C DUP2 PUSH2 0x3420 JUMP JUMPDEST SWAP1 POP SWAP2 SWAP1 POP JUMP JUMPDEST PUSH32 0x4163636F756E7420636F64652073697A652063616E6E6F74206265207A65726F PUSH1 0x0 DUP3 ADD MSTORE POP JUMP JUMPDEST PUSH1 0x0 PUSH2 0x3499 PUSH1 0x20 DUP4 PUSH2 0x2D73 JUMP JUMPDEST SWAP2 POP PUSH2 0x34A4 DUP3 PUSH2 0x3463 JUMP JUMPDEST PUSH1 0x20 DUP3 ADD SWAP1 POP SWAP2 SWAP1 POP JUMP JUMPDEST PUSH1 0x0 PUSH1 0x20 DUP3 ADD SWAP1 POP DUP2 DUP2 SUB PUSH1 0x0 DUP4 ADD MSTORE PUSH2 0x34C8 DUP2 PUSH2 0x348C JUMP JUMPDEST SWAP1 POP SWAP2 SWAP1 POP JUMP INVALID LOG2 PUSH5 0x6970667358 0x22 SLT KECCAK256 ORIGIN 0xBB 0xB2 0xBE PUSH2 0x3D99 0xBA 0xBB CODESIZE 0xE2 0xE2 STATICCALL ADD 0xDD 0xAD OR 0x27 PUSH3 0xFAC1A9 0xC3 0x1F CREATE2 0xC4 0x21 0xC1 KECCAK256 0xE1 NOT SWAP2 PUSH5 0x736F6C6343 STOP ADDMOD 0xF STOP CALLER "
				},
				"gasEstimates": {
					"creation": {
						"codeDepositCost": "2714600",
						"executionCost": "28763",
						"totalCost": "2743363"
					},
					"external": {
						"NAME()": "infinite",
						"borrowerOperationsAddress()": "2580",
						"contains(address)": "2984",
						"data()": "infinite",
						"findInsertPosition(uint256,address,address)": "infinite",
						"getFirst()": "2552",
						"getLast()": "2595",
						"getMaxSize()": "2554",
						"getNext(address)": "infinite",
						"getPrev(address)": "infinite",
						"getSize()": "2553",
						"insert(address,uint256,address,address)": "infinite",
						"isEmpty()": "2478",
						"isFull()": "4649",
						"isOwner()": "2607",
						"owner()": "2611",
						"reInsert(address,uint256,address,address)": "infinite",
						"remove(address)": "infinite",
						"setParams(uint256,address,address)": "infinite",
						"troveManager()": "infinite",
						"validInsertPosition(uint256,address,address)": "infinite"
					},
					"internal": {
						"_ascendList(contract ITroveManager,uint256,address)": "infinite",
						"_descendList(contract ITroveManager,uint256,address)": "infinite",
						"_findInsertPosition(contract ITroveManager,uint256,address,address)": "infinite",
						"_insert(contract ITroveManager,address,uint256,address,address)": "infinite",
						"_remove(address)": "infinite",
						"_requireCallerIsBOorTroveM(contract ITroveManager)": "infinite",
						"_requireCallerIsTroveManager()": "infinite",
						"_validInsertPosition(contract ITroveManager,uint256,address,address)": "infinite"
					}
				},
				"methodIdentifiers": {
					"NAME()": "a3f4df7e",
					"borrowerOperationsAddress()": "b7f8cf9b",
					"contains(address)": "5dbe47e8",
					"data()": "73d4a13a",
					"findInsertPosition(uint256,address,address)": "416980dc",
					"getFirst()": "1e223143",
					"getLast()": "4d622831",
					"getMaxSize()": "63e1d57c",
					"getNext(address)": "765e0159",
					"getPrev(address)": "b72703ac",
					"getSize()": "de8fa431",
					"insert(address,uint256,address,address)": "46f7cf87",
					"isEmpty()": "681fe70c",
					"isFull()": "babd3d9a",
					"isOwner()": "8f32d59b",
					"owner()": "8da5cb5b",
					"reInsert(address,uint256,address,address)": "2be21260",
					"remove(address)": "29092d0e",
					"setParams(uint256,address,address)": "f376d798",
					"troveManager()": "3d83908a",
					"validInsertPosition(uint256,address,address)": "3fce12d5"
				}
			},
			"storageLayout": {
				"storage": [
					{
						"astId": 191,
						"contract": "src/UserListByCR.sol:SortedTroves",
						"label": "_owner",
						"offset": 0,
						"slot": "0",
						"type": "t_address"
					},
					{
						"astId": 1495,
						"contract": "src/UserListByCR.sol:SortedTroves",
						"label": "borrowerOperationsAddress",
						"offset": 0,
						"slot": "1",
						"type": "t_address"
					},
					{
						"astId": 1498,
						"contract": "src/UserListByCR.sol:SortedTroves",
						"label": "troveManager",
						"offset": 0,
						"slot": "2",
						"type": "t_contract(ITroveManager)1459"
					},
					{
						"astId": 1522,
						"contract": "src/UserListByCR.sol:SortedTroves",
						"label": "data",
						"offset": 0,
						"slot": "3",
						"type": "t_struct(Data)1519_storage"
					}
				],
				"types": {
					"t_address": {
						"encoding": "inplace",
						"label": "address",
						"numberOfBytes": "20"
					},
					"t_bool": {
						"encoding": "inplace",
						"label": "bool",
						"numberOfBytes": "1"
					},
					"t_contract(ITroveManager)1459": {
						"encoding": "inplace",
						"label": "contract ITroveManager",
						"numberOfBytes": "20"
					},
					"t_mapping(t_address,t_struct(Node)1505_storage)": {
						"encoding": "mapping",
						"key": "t_address",
						"label": "mapping(address => struct SortedTroves.Node)",
						"numberOfBytes": "32",
						"value": "t_struct(Node)1505_storage"
					},
					"t_struct(Data)1519_storage": {
						"encoding": "inplace",
						"label": "struct SortedTroves.Data",
						"members": [
							{
								"astId": 1507,
								"contract": "src/UserListByCR.sol:SortedTroves",
								"label": "head",
								"offset": 0,
								"slot": "0",
								"type": "t_address"
							},
							{
								"astId": 1509,
								"contract": "src/UserListByCR.sol:SortedTroves",
								"label": "tail",
								"offset": 0,
								"slot": "1",
								"type": "t_address"
							},
							{
								"astId": 1511,
								"contract": "src/UserListByCR.sol:SortedTroves",
								"label": "maxSize",
								"offset": 0,
								"slot": "2",
								"type": "t_uint256"
							},
							{
								"astId": 1513,
								"contract": "src/UserListByCR.sol:SortedTroves",
								"label": "size",
								"offset": 0,
								"slot": "3",
								"type": "t_uint256"
							},
							{
								"astId": 1518,
								"contract": "src/UserListByCR.sol:SortedTroves",
								"label": "nodes",
								"offset": 0,
								"slot": "4",
								"type": "t_mapping(t_address,t_struct(Node)1505_storage)"
							}
						],
						"numberOfBytes": "160"
					},
					"t_struct(Node)1505_storage": {
						"encoding": "inplace",
						"label": "struct SortedTroves.Node",
						"members": [
							{
								"astId": 1500,
								"contract": "src/UserListByCR.sol:SortedTroves",
								"label": "exists",
								"offset": 0,
								"slot": "0",
								"type": "t_bool"
							},
							{
								"astId": 1502,
								"contract": "src/UserListByCR.sol:SortedTroves",
								"label": "nextId",
								"offset": 1,
								"slot": "0",
								"type": "t_address"
							},
							{
								"astId": 1504,
								"contract": "src/UserListByCR.sol:SortedTroves",
								"label": "prevId",
								"offset": 0,
								"slot": "1",
								"type": "t_address"
							}
						],
						"numberOfBytes": "64"
					},
					"t_uint256": {
						"encoding": "inplace",
						"label": "uint256",
						"numberOfBytes": "32"
					}
				}
			},
			"userdoc": {
				"kind": "user",
				"methods": {},
				"version": 1
			}
		}
	}
}